{
  "contractName": "Mushroom",
  "abi": [
    {
      "constant": true,
      "inputs": [],
      "name": "mushroom_eth_rate",
      "outputs": [
        {
          "name": "",
          "type": "uint256"
        }
      ],
      "payable": false,
      "stateMutability": "view",
      "type": "function"
    },
    {
      "constant": true,
      "inputs": [],
      "name": "owner",
      "outputs": [
        {
          "name": "",
          "type": "address"
        }
      ],
      "payable": false,
      "stateMutability": "view",
      "type": "function"
    },
    {
      "inputs": [],
      "payable": false,
      "stateMutability": "nonpayable",
      "type": "constructor"
    },
    {
      "constant": true,
      "inputs": [],
      "name": "getAllUsers",
      "outputs": [
        {
          "name": "",
          "type": "address[]"
        }
      ],
      "payable": false,
      "stateMutability": "view",
      "type": "function"
    },
    {
      "constant": true,
      "inputs": [
        {
          "name": "_addr",
          "type": "address"
        }
      ],
      "name": "isRegister",
      "outputs": [
        {
          "name": "",
          "type": "bool"
        }
      ],
      "payable": false,
      "stateMutability": "view",
      "type": "function"
    },
    {
      "constant": false,
      "inputs": [],
      "name": "registerUser",
      "outputs": [],
      "payable": false,
      "stateMutability": "nonpayable",
      "type": "function"
    },
    {
      "constant": true,
      "inputs": [
        {
          "name": "_user",
          "type": "address"
        }
      ],
      "name": "getGuCoin",
      "outputs": [
        {
          "name": "",
          "type": "uint256"
        }
      ],
      "payable": false,
      "stateMutability": "view",
      "type": "function"
    },
    {
      "constant": false,
      "inputs": [],
      "name": "buyGuCoin",
      "outputs": [],
      "payable": true,
      "stateMutability": "payable",
      "type": "function"
    },
    {
      "constant": false,
      "inputs": [],
      "name": "newGame",
      "outputs": [
        {
          "name": "",
          "type": "uint256"
        }
      ],
      "payable": true,
      "stateMutability": "payable",
      "type": "function"
    },
    {
      "constant": false,
      "inputs": [
        {
          "name": "game_id",
          "type": "uint256"
        }
      ],
      "name": "joinGame",
      "outputs": [
        {
          "name": "",
          "type": "bool"
        }
      ],
      "payable": false,
      "stateMutability": "nonpayable",
      "type": "function"
    },
    {
      "constant": true,
      "inputs": [
        {
          "name": "game_index",
          "type": "uint256"
        },
        {
          "name": "team_index",
          "type": "uint8"
        }
      ],
      "name": "gameWithTeam",
      "outputs": [
        {
          "name": "",
          "type": "uint256"
        },
        {
          "name": "",
          "type": "address[]"
        },
        {
          "name": "",
          "type": "uint8[]"
        }
      ],
      "payable": false,
      "stateMutability": "view",
      "type": "function"
    },
    {
      "constant": true,
      "inputs": [
        {
          "name": "_addr",
          "type": "address"
        }
      ],
      "name": "getBankerGame",
      "outputs": [
        {
          "name": "",
          "type": "bool"
        },
        {
          "name": "",
          "type": "uint256"
        }
      ],
      "payable": false,
      "stateMutability": "view",
      "type": "function"
    },
    {
      "constant": true,
      "inputs": [
        {
          "name": "game_index",
          "type": "uint256"
        }
      ],
      "name": "getGameInfo",
      "outputs": [
        {
          "name": "",
          "type": "string"
        },
        {
          "name": "",
          "type": "address[]"
        },
        {
          "name": "",
          "type": "uint256"
        },
        {
          "name": "",
          "type": "uint256"
        },
        {
          "name": "",
          "type": "uint256"
        },
        {
          "name": "",
          "type": "uint8"
        }
      ],
      "payable": false,
      "stateMutability": "view",
      "type": "function"
    },
    {
      "constant": true,
      "inputs": [
        {
          "name": "_addr",
          "type": "address"
        }
      ],
      "name": "getPlayerGame",
      "outputs": [
        {
          "name": "",
          "type": "bool"
        },
        {
          "name": "",
          "type": "uint256"
        }
      ],
      "payable": false,
      "stateMutability": "view",
      "type": "function"
    }
  ],
  "bytecode": "0x608060405234801561001057600080fd5b506020604051908101604052806000815250600360008201518160010155905050655af3107a400060058190555061229d8061004d6000396000f3006080604052600436106100c5576000357c0100000000000000000000000000000000000000000000000000000000900463ffffffff1680630da3ed5a146100ca57806322fdef941461012157806331154de51461017c57806346d5409a146101a757806347e1d550146101b15780634d3820eb146102c15780637d03f5f3146102d85780637d984928146102f657806382ccf5b0146103585780638da5cb5b14610436578063ce00348f1461048d578063e2842d79146104ef578063efaa55a01461055b575b600080fd5b3480156100d657600080fd5b5061010b600480360381019080803573ffffffffffffffffffffffffffffffffffffffff1690602001909291905050506105a0565b6040518082815260200191505060405180910390f35b34801561012d57600080fd5b50610162600480360381019080803573ffffffffffffffffffffffffffffffffffffffff169060200190929190505050610621565b604051808215151515815260200191505060405180910390f35b34801561018857600080fd5b50610191610681565b6040518082815260200191505060405180910390f35b6101af610687565b005b3480156101bd57600080fd5b506101dc600480360381019080803590602001909291905050506107af565b6040518080602001806020018781526020018681526020018581526020018460ff1660ff168152602001838103835289818151815260200191508051906020019080838360005b8381101561023e578082015181840152602081019050610223565b50505050905090810190601f16801561026b5780820380516001836020036101000a031916815260200191505b50838103825288818151815260200191508051906020019060200280838360005b838110156102a757808201518184015260208101905061028c565b505050509050019850505050505050505060405180910390f35b3480156102cd57600080fd5b506102d66107e1565b005b6102e06109b5565b6040518082815260200191505060405180910390f35b34801561030257600080fd5b50610337600480360381019080803573ffffffffffffffffffffffffffffffffffffffff1690602001909291905050506109d7565b60405180831515151581526020018281526020019250505060405180910390f35b34801561036457600080fd5b5061039060048036038101908080359060200190929190803560ff1690602001909291905050506109f7565b604051808481526020018060200180602001838103835285818151815260200191508051906020019060200280838360005b838110156103dd5780820151818401526020810190506103c2565b50505050905001838103825284818151815260200191508051906020019060200280838360005b8381101561041f578082015181840152602081019050610404565b505050509050019550505050505060405180910390f35b34801561044257600080fd5b5061044b610a4f565b604051808273ffffffffffffffffffffffffffffffffffffffff1673ffffffffffffffffffffffffffffffffffffffff16815260200191505060405180910390f35b34801561049957600080fd5b506104ce600480360381019080803573ffffffffffffffffffffffffffffffffffffffff169060200190929190505050610a74565b60405180831515151581526020018281526020019250505060405180910390f35b3480156104fb57600080fd5b50610504610a94565b6040518080602001828103825283818151815260200191508051906020019060200280838360005b8381101561054757808201518184015260208101905061052c565b505050509050019250505060405180910390f35b34801561056757600080fd5b5061058660048036038101908080359060200190929190505050610b22565b604051808215151515815260200191505060405180910390f35b6000806000600160008573ffffffffffffffffffffffffffffffffffffffff1673ffffffffffffffffffffffffffffffffffffffff1681526020019081526020016000209150600082600001541115610619578160000154430390506106128183600201610b4190919063ffffffff16565b925061061a565b5b5050919050565b600080600160008473ffffffffffffffffffffffffffffffffffffffff1673ffffffffffffffffffffffffffffffffffffffff16815260200190815260200160002060000154141515610677576001905061067c565b600090505b919050565b60055481565b600060016005543481151561069857fe5b0411151561070e576040517f08c379a00000000000000000000000000000000000000000000000000000000081526004018080602001828103825260108152602001807f4e6f7420656e6f756768206d6f6e65790000000000000000000000000000000081525060200191505060405180910390fd5b600160003373ffffffffffffffffffffffffffffffffffffffff1673ffffffffffffffffffffffffffffffffffffffff16815260200190815260200160002090506107ac6005543481151561075f57fe5b0460016040805190810160405280600b81526020017f62757920477520436f696e00000000000000000000000000000000000000000081525084600201610c05909392919063ffffffff16565b50565b6060806000806000806107cc876003610c9f90919063ffffffff16565b95509550955095509550955091939550919395565b6000600160003373ffffffffffffffffffffffffffffffffffffffff1673ffffffffffffffffffffffffffffffffffffffff1681526020019081526020016000206000015414151561089b576040517f08c379a00000000000000000000000000000000000000000000000000000000081526004018080602001828103825260138152602001807f796f75206861766520726567697374657265640000000000000000000000000081525060200191505060405180910390fd5b60023390806001815401808255809150509060018203906000526020600020016000909192909190916101000a81548173ffffffffffffffffffffffffffffffffffffffff021916908373ffffffffffffffffffffffffffffffffffffffff16021790555050606060405190810160405280438152602001600060ff1681526020016020604051908101604052806000815250815250600160003373ffffffffffffffffffffffffffffffffffffffff1673ffffffffffffffffffffffffffffffffffffffff1681526020019081526020016000206000820151816000015560208201518160010160006101000a81548160ff021916908360ff160217905550604082015181600201600082015181600101555050905050565b60006109d233346005806003610e0f90949392919063ffffffff16565b905090565b6000806109ee836003610fa690919063ffffffff16565b91509150915091565b60006060806000606080610a198888436003611066909392919063ffffffff16565b9250610a34888860ff16600361145b9092919063ffffffff16565b80925081935050508282829550955095505050509250925092565b6000809054906101000a900473ffffffffffffffffffffffffffffffffffffffff1681565b600080610a8b83600361176a90919063ffffffff16565b91509150915091565b60606002805480602002602001604051908101604052809291908181526020018280548015610b1857602002820191906000526020600020905b8160009054906101000a900473ffffffffffffffffffffffffffffffffffffffff1673ffffffffffffffffffffffffffffffffffffffff1681526020019060010190808311610ace575b5050505050905090565b6000610b3a82336003611b7c9092919063ffffffff16565b9050919050565b6000806000839150600090505b84600101548167ffffffffffffffff161015610bfa578460000160008267ffffffffffffffff16815260200190815260200160002060010160009054906101000a900460ff1615610bc5578460000160008267ffffffffffffffff1681526020019081526020016000206000015482019150610bed565b8460000160008267ffffffffffffffff16815260200190815260200160002060000154820391505b8080600101915050610b4e565b819250505092915050565b606060405190810160405280848152602001831515815260200182815250846000016000866001015481526020019081526020016000206000820151816000015560208201518160010160006101000a81548160ff0219169083151502179055506040820151816002019080519060200190610c829291906120b2565b509050506001846001016000828254019250508190555050505050565b606080600080600080600060608060008b60000160008c8152602001908152602001600020935083600c0160009054906101000a900460ff1660ff16604051908082528060200260200182016040528015610d095781602001602082028038833980820191505090505b509250610d168c8c611d00565b9150600090505b83600c0160009054906101000a900460ff1660ff168160ff161015610dd2578360050160008260ff1660ff16815260200190815260200160002060009054906101000a900473ffffffffffffffffffffffffffffffffffffffff16838260ff16815181101515610d8957fe5b9060200190602002019073ffffffffffffffffffffffffffffffffffffffff16908173ffffffffffffffffffffffffffffffffffffffff16815250508080600101915050610d1d565b8183856007015486600b0154876008015488600c0160029054906101000a900460ff16995099509950995099509950505050509295509295509295565b6000610140604051908101604052808673ffffffffffffffffffffffffffffffffffffffff1681526020018581526020014381526020016000815260200183815260200160008152602001848152602001600060ff168152602001600060ff168152602001600260ff168152508660000160008860010154815260200190815260200160002060008201518160000160006101000a81548173ffffffffffffffffffffffffffffffffffffffff021916908373ffffffffffffffffffffffffffffffffffffffff1602179055506020820151816006015560408201518160070155606082015181600801556080820151816009015560a082015181600a015560c082015181600b015560e082015181600c0160006101000a81548160ff021916908360ff16021790555061010082015181600c0160016101000a81548160ff021916908360ff16021790555061012082015181600c0160026101000a81548160ff021916908360ff160217905550905050600186600101600082825401925050819055506001866001015403905095945050505050565b60008060008090505b846001015481101561105357610fc58582611f49565b15801561103557508373ffffffffffffffffffffffffffffffffffffffff1685600001600083815260200190815260200160002060000160009054906101000a900473ffffffffffffffffffffffffffffffffffffffff1673ffffffffffffffffffffffffffffffffffffffff16145b15611046576001819250925061105e565b8080600101915050610faf565b600080809050925092505b509250929050565b600080600080600080611077612132565b8a60000160008b8152602001908152602001600020955060009450600093508786600901548760080154011115156110bb57856008015486600901540193506110bf565b8793505b600092505b85600c0160029054906101000a900460ff1660ff1686600c0160009054906101000a900460ff1660ff168115156110f757fe5b0460ff168360ff16101561112057600386600801548503028501945082806001019350506110c4565b600091505b85600a015482101561144a5785600301600083815260200190815260200160002060c060405190810160405290816000820160c060405190810160405290816000820160009054906101000a900460ff16151515158152602001600182018054600181600116156101000203166002900480601f0160208091040260200160405190810160405280929190818152602001828054600181600116156101000203166002900480156112175780601f106111ec57610100808354040283529160200191611217565b820191906000526020600020905b8154815290600101906020018083116111fa57829003601f168201915b505050505081526020016002820160009054906101000a900463ffffffff1663ffffffff1663ffffffff1681526020016002820160049054906101000a900463ffffffff1663ffffffff1663ffffffff1681526020016002820160089054906101000a900460ff1660ff1660ff1681526020016002820160099054906101000a900460ff1660ff1660ff168152505081526020016003820160009054906101000a900473ffffffffffffffffffffffffffffffffffffffff1673ffffffffffffffffffffffffffffffffffffffff1673ffffffffffffffffffffffffffffffffffffffff1681526020016003820160149054906101000a900460ff16151515158152602001600482015481526020016005820160009054906101000a900460ff1660ff1660ff1681526020016005820160019054906101000a900460ff1660ff1660ff168152505090508860ff16816080015160ff161415156113795761143d565b80604001511561139657600381606001518503028501945061143c565b8060000151600001511515611426578381600001516040015163ffffffff1682606001510111156113f757806000015160a0015160ff168160a0015160ff1682600001516040015163ffffffff168360600151018603020285019450611421565b806000015160a0015160ff168160a0015160ff16826000015160400151020263ffffffff16850194505b61143b565b6114368b8b8b8460600151611066565b850194505b5b5b8180600101925050611125565b849650505050505050949350505050565b60608060006060806000808960000160008a8152602001908152602001600020945084600c0160029054906101000a900460ff1660ff1685600c0160009054906101000a900460ff1660ff168115156114b057fe5b0460ff166040519080825280602002602001820160405280156114e25781602001602082028038833980820191505090505b50935084600c0160029054906101000a900460ff1660ff1685600c0160009054906101000a900460ff1660ff1681151561151857fe5b0460ff1660405190808252806020026020018201604052801561154a5781602001602082028038833980820191505090505b50925060009150600090505b84600c0160009054906101000a900460ff1660ff168160ff16101561175757878560020160008760050160008560ff1660ff16815260200190815260200160002060009054906101000a900473ffffffffffffffffffffffffffffffffffffffff1673ffffffffffffffffffffffffffffffffffffffff1673ffffffffffffffffffffffffffffffffffffffff16815260200190815260200160002060009054906101000a900460ff1660ff16141561174a578460050160008260ff1660ff16815260200190815260200160002060009054906101000a900473ffffffffffffffffffffffffffffffffffffffff16848360ff1681518110151561165657fe5b9060200190602002019073ffffffffffffffffffffffffffffffffffffffff16908173ffffffffffffffffffffffffffffffffffffffff16815250508460010160008660050160008460ff1660ff16815260200190815260200160002060009054906101000a900473ffffffffffffffffffffffffffffffffffffffff1673ffffffffffffffffffffffffffffffffffffffff1673ffffffffffffffffffffffffffffffffffffffff16815260200190815260200160002060009054906101000a900460ff16838360ff1681518110151561172d57fe5b9060200190602002019060ff16908160ff16815250506001820191505b8080600101915050611556565b8383965096505050505050935093915050565b600080600080606060008093505b8760010154841015611b665787600001600085815260200190815260200160002092506117a58885611d00565b915060405160200180807f61626f727465640000000000000000000000000000000000000000000000000081525060070190506040516020818303038152906040526040518082805190602001908083835b60208310151561181c57805182526020820191506020810190506020830392506117f7565b6001836020036101000a038019825116818451168082178552505050505050905001915050604051809103902060001916826040516020018082805190602001908083835b6020831015156118865780518252602082019150602081019050602083039250611861565b6001836020036101000a0380198251168184511680821785525050505050509050019150506040516020818303038152906040526040518082805190602001908083835b6020831015156118ef57805182526020820191506020810190506020830392506118ca565b6001836020036101000a0380198251168184511680821785525050505050509050019150506040518091039020600019161480611aa2575060405160200180807f656e64656400000000000000000000000000000000000000000000000000000081525060050190506040516020818303038152906040526040518082805190602001908083835b60208310151561199c5780518252602082019150602081019050602083039250611977565b6001836020036101000a038019825116818451168082178552505050505050905001915050604051809103902060001916826040516020018082805190602001908083835b602083101515611a0657805182526020820191506020810190506020830392506119e1565b6001836020036101000a0380198251168184511680821785525050505050509050019150506040516020818303038152906040526040518082805190602001908083835b602083101515611a6f5780518252602082019150602081019050602083039250611a4a565b6001836020036101000a038019825116818451168082178552505050505050905001915050604051809103902060001916145b15611aac57611b59565b600090505b82600c0160009054906101000a900460ff1660ff168160ff161015611b58578673ffffffffffffffffffffffffffffffffffffffff168360050160008360ff1660ff16815260200190815260200160002060009054906101000a900473ffffffffffffffffffffffffffffffffffffffff1673ffffffffffffffffffffffffffffffffffffffff161415611b4b5760018495509550611b71565b8080600101915050611ab1565b5b8380600101945050611778565b600080809050955095505b505050509250929050565b600080846000016000858152602001908152602001600020905060008160080154141515611bad5760009150611cf8565b600281600c0160009054906101000a900460ff1660ff161015611cc1578281600501600083600c0160009054906101000a900460ff1660ff1660ff16815260200190815260200160002060006101000a81548173ffffffffffffffffffffffffffffffffffffffff021916908373ffffffffffffffffffffffffffffffffffffffff16021790555060018160010160008573ffffffffffffffffffffffffffffffffffffffff1673ffffffffffffffffffffffffffffffffffffffff16815260200190815260200160002060006101000a81548160ff021916908360ff160217905550600181600c0160008282829054906101000a900460ff160192506101000a81548160ff021916908360ff1602179055505b600281600c0160009054906101000a900460ff1660ff16101515611cf357611ce98585611fba565b4381600801819055505b600191505b509392505050565b6060611d0a61218e565b606084600001600085815260200190815260200160002061014060405190810160405290816000820160009054906101000a900473ffffffffffffffffffffffffffffffffffffffff1673ffffffffffffffffffffffffffffffffffffffff1673ffffffffffffffffffffffffffffffffffffffff16815260200160068201548152602001600782015481526020016008820154815260200160098201548152602001600a8201548152602001600b8201548152602001600c820160009054906101000a900460ff1660ff1660ff168152602001600c820160019054906101000a900460ff1660ff1660ff168152602001600c820160029054906101000a900460ff1660ff1660ff16815250509150600082606001511415611eb4578160c0015182604001514303101515611e76576040805190810160405280600781526020017f61626f72746564000000000000000000000000000000000000000000000000008152509050611eaf565b6040805190810160405280600781526020017f70656e64696e670000000000000000000000000000000000000000000000000081525090505b611f3e565b816080015182606001514303101515611f04576040805190810160405280600581526020017f656e6465640000000000000000000000000000000000000000000000000000008152509050611f3d565b6040805190810160405280600781526020017f737461727465640000000000000000000000000000000000000000000000000081525090505b5b809250505092915050565b6000808360000160008481526020019081526020016000209050600081600801541415611f915780600b015481600701544303111515611f8c5760019150611fb3565b611fae565b806009015481600701544303111515611fad5760019150611fb3565b5b600091505b5092915050565b6000808360000160008481526020019081526020016000209150600090505b81600c0160009054906101000a900460ff1660ff168160ff1610156120ac5760026001820160ff1681151561200a57fe5b068260020160008460050160008560ff1660ff16815260200190815260200160002060009054906101000a900473ffffffffffffffffffffffffffffffffffffffff1673ffffffffffffffffffffffffffffffffffffffff1673ffffffffffffffffffffffffffffffffffffffff16815260200190815260200160002060006101000a81548160ff021916908360ff1602179055508080600101915050611fd9565b50505050565b828054600181600116156101000203166002900490600052602060002090601f016020900481019282601f106120f357805160ff1916838001178555612121565b82800160010185558215612121579182015b82811115612120578251825591602001919060010190612105565b5b50905061212e9190612201565b5090565b61016060405190810160405280612147612226565b8152602001600073ffffffffffffffffffffffffffffffffffffffff16815260200160001515815260200160008152602001600060ff168152602001600060ff1681525090565b61014060405190810160405280600073ffffffffffffffffffffffffffffffffffffffff168152602001600081526020016000815260200160008152602001600081526020016000815260200160008152602001600060ff168152602001600060ff168152602001600060ff1681525090565b61222391905b8082111561221f576000816000905550600101612207565b5090565b90565b60c06040519081016040528060001515815260200160608152602001600063ffffffff168152602001600063ffffffff168152602001600060ff168152602001600060ff16815250905600a165627a7a7230582099d31f0367c24598c45435a51a5512f5075107ee48a5bed2e1f6097642b488a90029",
  "source": "pragma solidity ^0.4.23;\ncontract Mushroom {\n    using LedgerSystem for LedgerSystem.Data;\n    using MushroomGameSystem for MushroomGameSystem.Data;\n    \n    address public owner;\n    mapping(address => User) users;\n    address[] all_users;\n    MushroomGameSystem.Data mushroomGames;\n    uint256 public mushroom_eth_rate;\n    \n    struct User {\n        uint256 registerBlockheight;\n        uint8 gameIndex;\n        LedgerSystem.Data ledger;\n    }\n    \n    constructor () public {\n        mushroomGames = MushroomGameSystem.Data(0);\n        mushroom_eth_rate = 1E14;\n    }\n    \n    function getAllUsers() public view returns(address[]) {\n        return all_users;\n    }\n    \n    function isRegister(address _addr) public view returns (bool) {\n        if(users[_addr].registerBlockheight != 0) {\n            return true;\n        }\n        return false;\n    }\n    \n    function registerUser() public {\n        require(users[msg.sender].registerBlockheight == 0, \"you have registered\");\n        all_users.push(msg.sender);\n        users[msg.sender] = User({\n            registerBlockheight: block.number,\n            gameIndex: 0,\n            ledger: LedgerSystem.Data(0)\n        });\n    }\n    \n    function getGuCoin(address _user) public view returns (uint256) {\n        User storage user = users[_user];\n        if(user.registerBlockheight>0) {\n            uint256 base = (block.number - user.registerBlockheight);\n            return user.ledger.getBalance(base);\n        }\n    }\n    \n    function buyGuCoin() public payable {\n        require(msg.value / mushroom_eth_rate > 1, \"Not enough money\");\n        User storage _u = users[msg.sender];\n        _u.ledger.operation(msg.value / mushroom_eth_rate, true, \"buy Gu Coin\");\n    }\n    \n    function newGame() public payable returns(uint256) {\n        return mushroomGames.newGame(msg.sender, msg.value, 5, 5);\n    }\n    \n    function joinGame(uint256 game_id) public returns (bool) {\n        return mushroomGames.joinGame(game_id, msg.sender);\n    }\n    \n    function gameWithTeam(uint256 game_index, uint8 team_index) \n        public\n        view\n        returns (\n            uint256,    // score\n            address[],  // team_members\n            uint8[]     // level\n        )\n    {\n        uint256 score = mushroomGames.calcMushroom(\n            game_index,\n            team_index,\n            block.number);\n        address[] memory addresses;\n        uint8[] memory levels;\n        (addresses, levels) = mushroomGames.getTeamMember(game_index, team_index);\n        return (score, addresses, levels);\n    }\n    \n    function getBankerGame(address _addr) view public returns (bool, uint256) {\n        return mushroomGames.getBankerGame(_addr);\n    }\n    \n    function getGameInfo(uint256 game_index) \n        public \n        view \n        returns (\n            string,     // pending || started || aborted || ended\n            address[],  // participants\n            uint256,    // created_at_block\n            uint256,    // game_start_at\n            uint256,    // pending_block\n            uint8      // team count\n        )\n    {\n        return mushroomGames.getGameInfo(game_index);\n    }\n    \n    function getPlayerGame(address _addr) view public returns (bool, uint256) {\n        return mushroomGames.getPlayerGame(_addr);\n    }\n    \n}\n\nlibrary MushroomGameSystem {\n    struct Data {\n        mapping(uint256 => MushroomGame) mushroomGames;\n        uint256 index;\n    }\n    \n    struct MushroomGame {\n        address banker;\n        mapping(address => uint8) levels;\n        mapping(address => uint8) team_member;\n        mapping(uint256 => GuGuLedger) ledgers;\n        mapping(uint8 => Item) items;\n        mapping(uint8 => address) gamer;\n        uint256 banker_deposit;\n        uint256 created_at_block;\n        uint256 game_start_at;\n        uint256 gaming_block;\n        uint256 ledger_count;\n        uint256 pending_block;\n        uint8 gamer_count;\n        uint8 items_count;\n        uint8 team_count;\n    }\n    \n    struct Item {\n        bool unique;    //buy once only\n        string name;\n        uint32 duration;\n        uint32 price;\n        uint8 mushroom_rate;\n        uint8 production_rate;\n    }\n    \n    struct GuGuLedger {\n        Item item;\n        address user;\n        bool isLevel;\n        uint256 block;\n        uint8 team_index;\n        uint8 user_level;\n    }\n    \n    function getTeamMember(\n        Data storage self,\n        uint256 game_index,\n        uint256 team_index\n    ) \n        internal\n        view\n        returns (address[], uint8[]) \n    {\n        MushroomGame storage _m = self.mushroomGames[game_index];\n        address[] memory addresses = new address[](_m.gamer_count / _m.team_count);\n        uint8[] memory levels = new uint8[](_m.gamer_count / _m.team_count);\n        uint8 idx = 0;\n        for(uint8 i=0; i< _m.gamer_count; i++) {\n            if(_m.team_member[_m.gamer[i]] == team_index) {\n                addresses[idx] = _m.gamer[i];\n                levels[idx] = _m.levels[_m.gamer[i]];\n                idx += 1;\n            }\n        }\n        return (addresses, levels);\n    }\n    \n    function getPlayerGame(Data storage self, address _addr) \n        internal \n        view \n        returns(bool, uint256) \n    {\n        for(uint256 i = 0; i < self.index; i++) {\n            MushroomGame storage _m = self.mushroomGames[i];\n            string memory status = gameStatus(self, i);\n            \n            if(keccak256(abi.encodePacked(status)) == keccak256(abi.encodePacked(\"aborted\")) || keccak256(abi.encodePacked(status)) == keccak256(abi.encodePacked(\"ended\"))) {\n                continue;\n            }\n            for(uint8 j = 0; j< _m.gamer_count; j++) {\n                if(_m.gamer[j] == _addr) {\n                    return (true, i);\n                }\n            }\n        }\n        return (false, 0);\n    }\n    \n    function getGameInfo(\n        Data storage self,\n        uint256 game_index\n    ) \n        internal\n        view\n        returns (\n            string,     // pending || started || aborted || ended\n            address[],  // participants\n            uint256,    // created_at_block\n            uint256,    // game_start_at\n            uint256,    // pending_block\n            uint8       // team count\n        )\n    {\n        MushroomGame storage _m = self.mushroomGames[game_index];\n        address[] memory addr = new address[](_m.gamer_count);\n        string memory status;\n        status = gameStatus(self, game_index);\n        for(uint8 i=0; i<_m.gamer_count; i++) {\n            addr[i] = _m.gamer[i];\n        } \n        return (\n            status,\n            addr,\n            _m.created_at_block,\n            _m.pending_block,\n            _m.game_start_at,\n            _m.team_count\n        );\n    }\n    \n    function getBankerGame(Data storage self, address _banker) \n        internal\n        view\n        returns (bool, uint256) \n    {\n        for(uint256 i=0;i<self.index;i++) {\n            if(!isEnd(self, i) && self.mushroomGames[i].banker == _banker) {\n                return (true, i);\n            }\n        }\n        return (false, 0);\n    }\n\n    \n    function calcMushroom(\n        Data storage self, \n        uint256 game_index,\n        uint8 team_index,\n        uint256 target_block\n    ) \n        view \n        internal\n        returns (uint256) \n    {\n        MushroomGame storage _m = self.mushroomGames[game_index];\n        //uint248 team_members = _m.gamer_count / _m.team_count;\n        uint256 total_gugu = 0;\n        uint256 end_block = 0;\n        if(_m.game_start_at + _m.gaming_block <= target_block) {\n            end_block = _m.gaming_block + _m.game_start_at;\n        } else {\n            end_block = target_block;\n        }\n        for(uint8 x=0;x<_m.gamer_count/_m.team_count; x++) {\n            total_gugu += (end_block - _m.game_start_at) * 3;\n        }\n        \n        for(uint256 i=0; i<_m.ledger_count; i++) {\n            GuGuLedger memory _l = _m.ledgers[i];\n            if(_l.team_index != team_index){\n                continue;\n            }\n            if(_l.isLevel) {\n                total_gugu += (end_block - _l.block) * 3;\n            } else {\n                if(!_l.item.unique) {\n                    if((_l.block + _l.item.duration) > end_block) {\n                        total_gugu += (end_block \n                            - (_l.block + _l.item.duration)) \n                            * _l.user_level \n                            * _l.item.production_rate;\n                    } else {\n                        total_gugu += _l.item.duration \n                            * _l.user_level \n                            * _l.item.production_rate;\n                    }\n                } else {\n                    total_gugu += calcMushroom(\n                        self,\n                        game_index,\n                        team_index,\n                        _l.block);\n                }\n            }\n        }\n        return total_gugu;\n    }\n    \n    function newGame(\n        Data storage self,\n        address _banker,\n        uint256 _deposit,\n        uint256 _pending_block,\n        uint256 _gaming_block\n    ) \n        internal returns (uint256) \n    {\n        self.mushroomGames[self.index] = MushroomGame({\n            banker: _banker,\n            banker_deposit: _deposit,\n            gamer_count: 0,\n            created_at_block: block.number,\n            game_start_at: 0,\n            pending_block: _pending_block,\n            gaming_block: _gaming_block,\n            items_count: 0,\n            ledger_count: 0,\n            team_count: 2\n        });\n        self.index += 1;\n        return self.index - 1 ;\n    }\n    \n    function newGameItem(\n        Data storage self,\n        uint256 game_index,\n        string _name,\n        uint32 _price,\n        uint32 _duration,\n        uint8 _production_rate,\n        uint8 _mushroom_rate,\n        bool _unique\n    ) \n        internal \n    {\n        MushroomGame storage _m = self.mushroomGames[game_index];\n        _m.items[_m.items_count] = Item({\n            name: _name,\n            price: _price,\n            duration: _duration,\n            production_rate: _production_rate,\n            mushroom_rate: _mushroom_rate,\n            unique: _unique\n        });\n        _m.items_count += 1;\n        \n    }\n    \n    function gameStatus(Data storage self, uint256 index) view internal returns (string) {\n        MushroomGame memory _m = self.mushroomGames[index];\n        string memory status;\n        if(_m.game_start_at == 0) {\n            if(block.number - _m.created_at_block >= _m.pending_block) {\n                status = \"aborted\";\n            } else {\n                status = \"pending\";\n            }\n        } else {\n            if(block.number - _m.game_start_at >= _m.gaming_block) {\n                status = \"ended\";\n            } else {\n                status = \"started\";\n            }\n        }\n        return status;\n    }\n    function isEnd(Data storage self, uint256 index) \n        internal\n        view\n        returns(bool) \n    {\n        MushroomGame storage m = self.mushroomGames[index];\n        if(m.game_start_at == 0) {\n            if(block.number - m.created_at_block <= m.pending_block) {\n                return true;\n            }\n        } else {\n            if(block.number - m.created_at_block <= m.gaming_block) {\n                return true;\n            }\n        }\n        return false;\n    }\n    \n    function banker_withdrawal(Data storage self, uint256 index) internal {\n        MushroomGame storage m = self.mushroomGames[index];\n        require(\n            m.game_start_at == 0 \n            && m.created_at_block + block.number <= m.pending_block);\n        require(m.banker.send(m.banker_deposit));\n    }\n    \n    function joinGame(Data storage self, uint256 game_index, address user) \n        internal\n        returns (bool) \n    {\n        MushroomGame storage _m = self.mushroomGames[game_index];\n        if(_m.game_start_at != 0) {\n            return false;\n        }\n        if(_m.gamer_count < 2) {\n            _m.gamer[_m.gamer_count] = user;\n            _m.levels[user] = 1;\n            _m.gamer_count += 1;\n        } \n        if(_m.gamer_count >= 2) {\n            randonGamer(self, game_index);\n            _m.game_start_at = block.number;\n        }\n        return true;\n    }\n    \n    function randonGamer(Data storage self, uint256 game_index) internal {\n        MushroomGame storage _m = self.mushroomGames[game_index];\n        for(uint8 i=0; i<_m.gamer_count; i++) {\n            _m.team_member[_m.gamer[i]] = (i+1) % 2; \n        }\n        return;\n    }\n}\n\nlibrary LedgerSystem {\n    struct Data { \n        mapping(uint256 => Ledger) ledgers;\n        uint256 index;\n    }\n    \n    struct Ledger {\n        uint256 amount;\n        bool positive;\n        string desc;\n    }\n    \n    function operation(\n        Data storage self,\n        uint256 _amount,\n        bool _positive,\n        string _desc\n    ) \n        internal \n    {\n        self.ledgers[self.index] = Ledger({\n            amount: _amount,\n            positive: _positive,\n            desc: _desc\n        });\n        self.index += 1;\n    }\n    \n    function getBalance(\n        Data storage self,\n        uint256 _init\n    ) \n        internal\n        view \n        returns (uint256)\n    {\n        uint256 base = _init;\n        for(uint64 i=0; i<self.index; i++) {\n            if(self.ledgers[i].positive) {\n                base += self.ledgers[i].amount;\n            } else {\n                base -= self.ledgers[i].amount;\n            }\n        }\n        return base;\n    }\n}\n",
  "sourcePath": "/Users/waynechiu/Desktop/dApp/contracts/Mushroom.sol",
  "compiler": {
    "name": "solc",
    "version": "0.4.24+commit.e67f0147.Emscripten.clang"
  },
  "schemaVersion": "2.0.1",
  "updatedAt": "2018-11-04T05:05:34.398Z"
}