{
  "contractName": "NumberGame",
  "abi": [
    {
      "constant": true,
      "inputs": [],
      "name": "keyPrice_",
      "outputs": [
        {
          "name": "",
          "type": "uint256"
        }
      ],
      "payable": false,
      "stateMutability": "view",
      "type": "function"
    },
    {
      "constant": true,
      "inputs": [],
      "name": "totalGameCount_",
      "outputs": [
        {
          "name": "",
          "type": "uint256"
        }
      ],
      "payable": false,
      "stateMutability": "view",
      "type": "function"
    },
    {
      "constant": true,
      "inputs": [],
      "name": "snapshotWinnerFee_",
      "outputs": [
        {
          "name": "",
          "type": "uint256"
        }
      ],
      "payable": false,
      "stateMutability": "view",
      "type": "function"
    },
    {
      "constant": true,
      "inputs": [],
      "name": "keyRevealFee_",
      "outputs": [
        {
          "name": "",
          "type": "uint256"
        }
      ],
      "payable": false,
      "stateMutability": "view",
      "type": "function"
    },
    {
      "constant": true,
      "inputs": [
        {
          "name": "",
          "type": "uint256"
        }
      ],
      "name": "games_",
      "outputs": [
        {
          "name": "bankerAddress",
          "type": "address"
        },
        {
          "name": "totalAmount",
          "type": "uint256"
        },
        {
          "name": "gameTotalTime",
          "type": "uint256"
        },
        {
          "name": "startTime",
          "type": "uint256"
        },
        {
          "name": "endTime",
          "type": "uint256"
        },
        {
          "name": "winnerName",
          "type": "bytes32"
        },
        {
          "name": "winnerAddress",
          "type": "address"
        },
        {
          "name": "winnerNumber",
          "type": "uint256"
        },
        {
          "name": "winnerTimestamp",
          "type": "uint256"
        }
      ],
      "payable": false,
      "stateMutability": "view",
      "type": "function"
    },
    {
      "constant": true,
      "inputs": [],
      "name": "gameActivationFee_",
      "outputs": [
        {
          "name": "",
          "type": "uint256"
        }
      ],
      "payable": false,
      "stateMutability": "view",
      "type": "function"
    },
    {
      "constant": true,
      "inputs": [],
      "name": "currentLottryPot_",
      "outputs": [
        {
          "name": "",
          "type": "uint256"
        }
      ],
      "payable": false,
      "stateMutability": "view",
      "type": "function"
    },
    {
      "anonymous": false,
      "inputs": [
        {
          "indexed": true,
          "name": "playerAddress",
          "type": "address"
        },
        {
          "indexed": true,
          "name": "playerName",
          "type": "bytes32"
        },
        {
          "indexed": false,
          "name": "timeStamp",
          "type": "uint256"
        },
        {
          "indexed": false,
          "name": "winningAmount",
          "type": "uint256"
        }
      ],
      "name": "onLotteryWin",
      "type": "event"
    },
    {
      "anonymous": false,
      "inputs": [
        {
          "indexed": true,
          "name": "bankerAddress",
          "type": "address"
        },
        {
          "indexed": true,
          "name": "bankerName",
          "type": "bytes32"
        },
        {
          "indexed": false,
          "name": "timeStamp",
          "type": "uint256"
        },
        {
          "indexed": false,
          "name": "initialAmount",
          "type": "uint256"
        },
        {
          "indexed": false,
          "name": "round",
          "type": "uint256"
        }
      ],
      "name": "onGameStart",
      "type": "event"
    },
    {
      "constant": false,
      "inputs": [],
      "name": "startGame",
      "outputs": [],
      "payable": true,
      "stateMutability": "payable",
      "type": "function"
    },
    {
      "constant": true,
      "inputs": [
        {
          "name": "_gameRound",
          "type": "uint256"
        },
        {
          "name": "_key",
          "type": "uint256"
        }
      ],
      "name": "getKeysSnapshotCount",
      "outputs": [
        {
          "name": "",
          "type": "uint256"
        },
        {
          "name": "",
          "type": "uint256"
        }
      ],
      "payable": false,
      "stateMutability": "view",
      "type": "function"
    },
    {
      "constant": false,
      "inputs": [
        {
          "name": "_gameRound",
          "type": "uint256"
        },
        {
          "name": "_keys",
          "type": "uint256[]"
        }
      ],
      "name": "snapshotKeys",
      "outputs": [],
      "payable": true,
      "stateMutability": "payable",
      "type": "function"
    },
    {
      "constant": false,
      "inputs": [
        {
          "name": "_gameRound",
          "type": "uint256"
        }
      ],
      "name": "snapshotWinner",
      "outputs": [],
      "payable": true,
      "stateMutability": "payable",
      "type": "function"
    },
    {
      "constant": false,
      "inputs": [
        {
          "name": "_gameRound",
          "type": "uint256"
        },
        {
          "name": "_keys",
          "type": "uint256[]"
        }
      ],
      "name": "buyKeys",
      "outputs": [],
      "payable": true,
      "stateMutability": "payable",
      "type": "function"
    },
    {
      "constant": true,
      "inputs": [],
      "name": "random",
      "outputs": [
        {
          "name": "",
          "type": "uint8"
        }
      ],
      "payable": false,
      "stateMutability": "view",
      "type": "function"
    }
  ],
  "bytecode": "0x60806040526706f05b59d3b20000600055670de0b6b3a7640000600155600060025560006003556702c68af0bb140000600455674563918244f4000060055534801561004a57600080fd5b506116e88061005a6000396000f3006080604052600436106100c5576000357c0100000000000000000000000000000000000000000000000000000000900463ffffffff16806328078143146100ca5780633a610fec1461012d5780635ec01e4d146101585780636b973f5514610189578063736aab16146101b457806391a7a52714610206578063c3b4657e14610231578063c74004b014610251578063d52412791461027c578063d65ab5f214610355578063e8cd7bac1461035f578063ed2ec0501461038a578063ff3483e5146103b5575b600080fd5b61012b6004803603810190808035906020019092919080359060200190820180359060200190808060200260200160405190810160405280939291908181526020018383602002808284378201915050505050509192919290505050610418565b005b34801561013957600080fd5b506101426106ea565b6040518082815260200191505060405180910390f35b34801561016457600080fd5b5061016d6106f0565b604051808260ff1660ff16815260200191505060405180910390f35b34801561019557600080fd5b5061019e610791565b6040518082815260200191505060405180910390f35b3480156101c057600080fd5b506101e96004803603810190808035906020019092919080359060200190929190505050610797565b604051808381526020018281526020019250505060405180910390f35b34801561021257600080fd5b5061021b6107fb565b6040518082815260200191505060405180910390f35b61024f60048036038101908080359060200190929190505050610801565b005b34801561025d57600080fd5b50610266610a51565b6040518082815260200191505060405180910390f35b34801561028857600080fd5b506102a760048036038101908080359060200190929190505050610a57565b604051808a73ffffffffffffffffffffffffffffffffffffffff1673ffffffffffffffffffffffffffffffffffffffff16815260200189815260200188815260200187815260200186815260200185600019166000191681526020018473ffffffffffffffffffffffffffffffffffffffff1673ffffffffffffffffffffffffffffffffffffffff168152602001838152602001828152602001995050505050505050505060405180910390f35b61035d610ae5565b005b34801561036b57600080fd5b50610374610f03565b6040518082815260200191505060405180910390f35b34801561039657600080fd5b5061039f610f09565b6040518082815260200191505060405180910390f35b6104166004803603810190808035906020019092919080359060200190820180359060200190808060200260200160405190810160405280939291908181526020018383602002808284378201915050505050509192919290505050610f0f565b005b6000806000732440eddb85071164c69a3e46401c849ceffe5d6273ffffffffffffffffffffffffffffffffffffffff1663e18d38ce336040518263ffffffff167c0100000000000000000000000000000000000000000000000000000000028152600401808273ffffffffffffffffffffffffffffffffffffffff1673ffffffffffffffffffffffffffffffffffffffff168152602001915050602060405180830381600087803b1580156104cc57600080fd5b505af11580156104e0573d6000803e3d6000fd5b505050506040513d60208110156104f657600080fd5b810190808051906020019092919050505092507f30000000000000000000000000000000000000000000000000000000000000008360001916141515156105a5576040517f08c379a00000000000000000000000000000000000000000000000000000000081526004018080602001828103825260138152602001807f7573657220646f6573206e6f742065786973740000000000000000000000000081525060200191505060405180910390fd5b600454341015151561061f576040517f08c379a00000000000000000000000000000000000000000000000000000000081526004018080602001828103825260108152602001807f4e6f7420656e6f756768206d6f6e65790000000000000000000000000000000081525060200191505060405180910390fd5b600660008681526020019081526020016000209150600090505b83518110156106e35781600a016000858381518110151561065657fe5b9060200190602002015181526020019081526020016000205482600b016000868481518110151561068357fe5b906020019060200201518152602001908152602001600020600101819055504282600b01600086848151811015156106b757fe5b906020019060200201518152602001908152602001600020600001819055508080600101915050610639565b5050505050565b60005481565b60006064424460405160200180838152602001828152602001925050506040516020818303038152906040526040518082805190602001908083835b602083101515610751578051825260208201915060208101905060208303925061072c565b6001836020036101000a03801982511681845116808217855250505050505090500191505060405180910390206001900481151561078b57fe5b06905090565b60025481565b60008060066000858152602001908152602001600020600b0160008481526020019081526020016000206000015460066000868152602001908152602001600020600b01600085815260200190815260200160002060010154915091509250929050565b60055481565b600080600080732440eddb85071164c69a3e46401c849ceffe5d6273ffffffffffffffffffffffffffffffffffffffff1663e18d38ce336040518263ffffffff167c0100000000000000000000000000000000000000000000000000000000028152600401808273ffffffffffffffffffffffffffffffffffffffff1673ffffffffffffffffffffffffffffffffffffffff168152602001915050602060405180830381600087803b1580156108b657600080fd5b505af11580156108ca573d6000803e3d6000fd5b505050506040513d60208110156108e057600080fd5b810190808051906020019092919050505093507f300000000000000000000000000000000000000000000000000000000000000084600019161415151561098f576040517f08c379a00000000000000000000000000000000000000000000000000000000081526004018080602001828103825260138152602001807f7573657220646f6573206e6f742065786973740000000000000000000000000081525060200191505060405180910390fd5b6005543410151515610a09576040517f08c379a00000000000000000000000000000000000000000000000000000000081526004018080602001828103825260108152602001807f4e6f7420656e6f756768206d6f6e65790000000000000000000000000000000081525060200191505060405180910390fd5b600660008681526020019081526020016000209250610a2785611385565b91509150818360050181600019169055508083600701819055504283600801819055505050505050565b60045481565b60066020528060005260406000206000915090508060000160009054906101000a900473ffffffffffffffffffffffffffffffffffffffff16908060010154908060020154908060030154908060040154908060050154908060060160009054906101000a900473ffffffffffffffffffffffffffffffffffffffff16908060070154908060080154905089565b60008060003392503491506001548210151515610b90576040517f08c379a00000000000000000000000000000000000000000000000000000000081526004018080602001828103825260268152602001807f756d6d2e2e2e2e2e2020796f75206861766520746f2070617920746865206e6181526020017f6d6520666565000000000000000000000000000000000000000000000000000081525060400191505060405180910390fd5b6002600081548092919060010191905055508260066000600254815260200190815260200160002060000160006101000a81548173ffffffffffffffffffffffffffffffffffffffff021916908373ffffffffffffffffffffffffffffffffffffffff160217905550610c0d600a8361154e90919063ffffffff16565b600381905550610c27600a8361154e90919063ffffffff16565b9050732440eddb85071164c69a3e46401c849ceffe5d6273ffffffffffffffffffffffffffffffffffffffff1663d0e30db0826040518263ffffffff167c01000000000000000000000000000000000000000000000000000000000281526004016020604051808303818588803b158015610ca157600080fd5b505af1158015610cb5573d6000803e3d6000fd5b50505050506040513d6020811015610ccc57600080fd5b810190808051906020019092919050505050610d056008610cf7600a8561154e90919063ffffffff16565b61157890919063ffffffff16565b60066000600254815260200190815260200160002060010154016006600060025481526020019081526020016000206001018190555061a8c060066000600254815260200190815260200160002060020181905550426006600060025481526020019081526020016000206003018190555061a8c0420160066000600254815260200190815260200160002060040181905550732440eddb85071164c69a3e46401c849ceffe5d6273ffffffffffffffffffffffffffffffffffffffff1663e18d38ce846040518263ffffffff167c0100000000000000000000000000000000000000000000000000000000028152600401808273ffffffffffffffffffffffffffffffffffffffff1673ffffffffffffffffffffffffffffffffffffffff168152602001915050602060405180830381600087803b158015610e4757600080fd5b505af1158015610e5b573d6000803e3d6000fd5b505050506040513d6020811015610e7157600080fd5b8101908080519060200190929190505050600019168373ffffffffffffffffffffffffffffffffffffffff167fd2e3b044802ec7ace4d431ada5a537bceb8099d0b5c3c6d579a92365b5bf5766426006600060025481526020019081526020016000206001015460025460405180848152602001838152602001828152602001935050505060405180910390a3505050565b60015481565b60035481565b6000806000806000806000806000339850600660008c81526020019081526020016000209750732440eddb85071164c69a3e46401c849ceffe5d6273ffffffffffffffffffffffffffffffffffffffff1663e18d38ce8a6040518263ffffffff167c0100000000000000000000000000000000000000000000000000000000028152600401808273ffffffffffffffffffffffffffffffffffffffff1673ffffffffffffffffffffffffffffffffffffffff168152602001915050602060405180830381600087803b158015610fe457600080fd5b505af1158015610ff8573d6000803e3d6000fd5b505050506040513d602081101561100e57600080fd5b810190808051906020019092919050505096506110378a5160005461157890919063ffffffff16565b955085341115156110b0576040517f08c379a00000000000000000000000000000000000000000000000000000000081526004018080602001828103825260108152602001807f4e6f7420656e6f756768206d6f6e65790000000000000000000000000000000081525060200191505060405180910390fd5b6110c4600a3461154e90919063ffffffff16565b94506110ed60086110df600a3461154e90919063ffffffff16565b61157890919063ffffffff16565b9350611103600a3461154e90919063ffffffff16565b9250732440eddb85071164c69a3e46401c849ceffe5d6273ffffffffffffffffffffffffffffffffffffffff1663d0e30db0846040518263ffffffff167c01000000000000000000000000000000000000000000000000000000000281526004016020604051808303818588803b15801561117d57600080fd5b505af1158015611191573d6000803e3d6000fd5b50505050506040513d60208110156111a857600080fd5b8101908080519060200190929190505050506111cf856003546115b690919063ffffffff16565b6003819055506111ec8489600101546115b690919063ffffffff16565b8860010181905550600088600c016000896000191660001916815260200190815260200160002080549050141561125257876009018790806001815401808255809150509060018203906000526020600020016000909192909190915090600019169055505b600091505b89518210156113785787600c01600088600019166000191681526020019081526020016000208a8381518110151561128b57fe5b90602001906020020151908060018154018082558091505090600182039060005260206000200160009091929091909150555087600a0160008b848151811015156112d257fe5b906020019060200201518152602001908152602001600020549050600081141561132d57600188600a0160008c8581518110151561130c57fe5b90602001906020020151815260200190815260200160002081905550611362565b6001810188600a0160008c8581518110151561134557fe5b906020019060200201518152602001908152602001600020819055505b61136a6115d7565b508180600101925050611257565b5050505050505050505050565b60008060008060006060600060606000600660008b81526020019081526020016000209450846009018054806020026020016040519081016040528092919081815260200182805480156113fc57602002820191906000526020600020905b815460001916815260200190600101908083116113e4575b50505050509350600092505b835183101561153c5784600c016000858581518110151561142557fe5b906020019060200201516000191660001916815260200190815260200160002080548060200260200160405190810160405280929190818152602001828054801561148f57602002820191906000526020600020905b81548152602001906001019080831161147b575b50505050509150600090505b815181101561152f578582828151811015156114b357fe5b9060200190602002015111156115225781818151811015156114d157fe5b90602001906020020151955083838151811015156114eb57fe5b906020019060200201519650600185600a0160008881526020019081526020016000205411156115215760009550600060010296505b5b808060010191505061149b565b8280600101935050611408565b86869850985050505050505050915091565b60008060008311151561156057600080fd5b828481151561156b57fe5b0490508091505092915050565b600080600084141561158d57600091506115af565b828402905082848281151561159e57fe5b041415156115ab57600080fd5b8091505b5092915050565b60008082840190508381101515156115cd57600080fd5b8091505092915050565b600060326115e36106f0565b60ff1611156116b457732440eddb85071164c69a3e46401c849ceffe5d6273ffffffffffffffffffffffffffffffffffffffff1663d0e30db06003546040518263ffffffff167c01000000000000000000000000000000000000000000000000000000000281526004016020604051808303818588803b15801561166657600080fd5b505af115801561167a573d6000803e3d6000fd5b50505050506040513d602081101561169157600080fd5b8101908080519060200190929190505050506000600381905550600190506116b9565b600090505b905600a165627a7a72305820afccacd9213f32fa0ff63980919e0a971aa3bf575ee0a734ac3c30c1c4f366d30029",
  "source": "pragma solidity ^0.4.19;\n\n/**\n * @title SafeMath\n * @dev Math operations with safety checks that revert on error\n */\nlibrary SafeMath {\n\n  /**\n  * @dev Multiplies two numbers, reverts on overflow.\n  */\n    function mul(uint256 a, uint256 b) internal pure returns (uint256) {\n      // Gas optimization: this is cheaper than requiring 'a' not being zero, but the\n      // benefit is lost if 'b' is also tested.\n      // See: https://github.com/OpenZeppelin/openzeppelin-solidity/pull/522\n        if (a == 0) {\n            return 0;\n        }\n\n        uint256 c = a * b;\n        require(c / a == b);\n\n        return c;\n    }\n\n  /**\n  * @dev Integer division of two numbers truncating the quotient, reverts on division by zero.\n  */\n    function div(uint256 a, uint256 b) internal pure returns (uint256) {\n        require(b > 0); // Solidity only automatically asserts when dividing by 0\n        uint256 c = a / b;\n      // assert(a == b * c + a % b); // There is no case in which this doesn't hold\n\n        return c;\n    }\n\n  /**\n  * @dev Subtracts two numbers, reverts on overflow (i.e. if subtrahend is greater than minuend).\n  */\n    function sub(uint256 a, uint256 b) internal pure returns (uint256) {\n        require(b <= a);\n        uint256 c = a - b;\n\n        return c;\n    }\n\n  /**\n  * @dev Adds two numbers, reverts on overflow.\n  */\n    function add(uint256 a, uint256 b) internal pure returns (uint256) {\n        uint256 c = a + b;\n        require(c >= a);\n\n        return c;\n    }\n\n  /**\n  * @dev Divides two numbers and returns the remainder (unsigned integer modulo),\n  * reverts when dividing by zero.\n  */\n    function mod(uint256 a, uint256 b) internal pure returns (uint256) {\n        require(b != 0);\n        return a % b;\n    }\n}\n\n\ninterface PlayerBookInterface {\n    function getPlayerName(address _addr) external view returns(bytes32);\n    function deposit() external payable returns(bool);\n}\n\ncontract GameEvents {\n    event onLotteryWin\n    (\n        address indexed playerAddress,\n        bytes32 indexed playerName,\n        uint256 timeStamp,\n        uint256 winningAmount\n    );\n    event onGameStart\n    (\n        address indexed bankerAddress,\n        bytes32 indexed bankerName,\n        uint256 timeStamp,\n        uint256 initialAmount,\n        uint256 round\n    );\n}\n\n\ncontract NumberGame is GameEvents {\n    using SafeMath for uint256;\n    address constant playbookContractAddress_ = 0x2440eDDb85071164C69A3e46401C849CEfFE5d62;\n\n    PlayerBookInterface constant private PlayerBook = PlayerBookInterface(playbookContractAddress_);\n\n    uint256 public keyPrice_ = 0.5 ether;\n    uint256 public gameActivationFee_ = 1 ether;\n    uint256 public totalGameCount_ = 0;\n    uint256 public currentLottryPot_ = 0;\n    uint256 public keyRevealFee_ = 0.2 ether;\n    uint256 public snapshotWinnerFee_ = 5 ether;\n\n    mapping (uint256 => Game) public games_;\n    \n    struct SnapshotKey {\n        uint256 timestamp;\n        uint256 count;\n    }\n    \n    struct Game {\n        address bankerAddress;\n        uint256 totalAmount;\n        uint gameTotalTime;\n        uint startTime;\n        uint endTime;\n        bytes32 winnerName;\n        address winnerAddress;\n        uint256 winnerNumber;\n        uint winnerTimestamp;\n        bytes32[] participantes;\n        mapping(uint256 => uint256) keys;\n        mapping(uint256 => SnapshotKey) snapshotKeys;\n        mapping(bytes32 => uint256[]) userKeys;\n    }\n\n    function startGame()\n      public\n      payable\n    {\n        address bankerAddress = msg.sender;\n        uint256 depositAmount = msg.value;\n        require (depositAmount >= gameActivationFee_, \"umm.....  you have to pay the name fee\");\n        totalGameCount_++;\n        games_[totalGameCount_].bankerAddress = bankerAddress;\n\n\n        currentLottryPot_ = depositAmount.div(10);\n        uint256 goOutAmount = depositAmount.div(10);\n        PlayerBook.deposit.value(goOutAmount)();\n\n        games_[totalGameCount_].totalAmount = games_[totalGameCount_].totalAmount + depositAmount.div(10).mul(8);\n        \n        games_[totalGameCount_].gameTotalTime = 12 hours;\n        games_[totalGameCount_].startTime = now;\n        games_[totalGameCount_].endTime = now + 12 hours;\n\n        emit onGameStart(\n            bankerAddress,\n            PlayerBook.getPlayerName(bankerAddress),\n            now,\n            games_[totalGameCount_].totalAmount,\n            totalGameCount_\n        );\n    }\n    \n    function getKeysSnapshotCount(uint256 _gameRound, uint256 _key)\n        public\n        view\n        returns(\n            uint256,\n            uint256\n        )\n    {\n        return (\n            games_[_gameRound].snapshotKeys[_key].timestamp,\n            games_[_gameRound].snapshotKeys[_key].count\n        );\n    }\n\n    function snapshotKeys(uint256 _gameRound ,uint256[] _keys)\n        public\n        payable\n    {\n        bytes32 userName = PlayerBook.getPlayerName(msg.sender);\n        require(userName != \"0\", \"user does not exist\");\n        require(msg.value >= keyRevealFee_, \"Not enough money\");\n        Game storage currentGame = games_[_gameRound];\n        for (uint i = 0; i < _keys.length; i++) {\n            currentGame.snapshotKeys[_keys[i]].count = currentGame.keys[_keys[i]];\n            currentGame.snapshotKeys[_keys[i]].timestamp = block.timestamp;\n        }\n    }\n    \n    function currentWinner(uint256 _gameRound)\n        internal\n        view\n        returns (\n            bytes32,\n            uint256\n        )\n    {   \n        bytes32 tempWinner;\n        uint256 tempWinningNumber;\n        Game storage currentGame = games_[_gameRound];\n        bytes32[] memory participantes = currentGame.participantes;\n        for (uint i = 0; i < participantes.length; i++) {\n            uint256[] memory tempUserKeys = currentGame.userKeys[participantes[i]];\n            for(uint o = 0; o < tempUserKeys.length; o++) {\n                if(tempUserKeys[o] > tempWinningNumber) {\n                    tempWinningNumber = tempUserKeys[o];\n                    tempWinner = participantes[i];\n                    if(currentGame.keys[tempWinningNumber] > 1) {\n                        tempWinningNumber = 0;\n                        tempWinner = 0x0000000000000000000000000000000000000000000000000000000000000000;\n                    }\n                }\n            }\n        }\n        return (\n            tempWinner,\n            tempWinningNumber\n        );\n    }\n    \n    function snapshotWinner(uint256 _gameRound)\n        public\n        payable\n    {\n        bytes32 userName = PlayerBook.getPlayerName(msg.sender);\n        require(userName != \"0\", \"user does not exist\");\n        require(msg.value >= snapshotWinnerFee_, \"Not enough money\");\n\n        Game storage currentGame = games_[_gameRound];\n        \n        (bytes32 winnerName, uint256 winningNumber) = currentWinner(_gameRound);\n\n        \n        currentGame.winnerName = winnerName;\n        currentGame.winnerNumber = winningNumber;\n        currentGame.winnerTimestamp = block.timestamp;\n    }\n    \n    \n    \n\n    function buyKeys(uint256 _gameRound, uint256[] _keys)\n      public\n      payable\n    {\n        address playerAddress = msg.sender;\n        Game storage currentGame = games_[_gameRound];\n        bytes32 userName = PlayerBook.getPlayerName(playerAddress);\n        uint256 costTotalKeys = keyPrice_.mul(_keys.length);\n\n        require(msg.value > costTotalKeys, \"Not enough money\");\n        \n        uint256 lotteryMoney = msg.value.div(10);\n        uint256 winningAmount = msg.value.div(10).mul(8);\n        uint256 potPassingIncomeAmount = msg.value.div(10);\n        PlayerBook.deposit.value(potPassingIncomeAmount)();\n        currentLottryPot_ = currentLottryPot_.add(lotteryMoney);\n        currentGame.totalAmount = currentGame.totalAmount.add(winningAmount);\n        \n        \n        if(currentGame.userKeys[userName].length == 0) {\n            currentGame.participantes.push(userName);\n        }\n        \n        for (uint i = 0; i < _keys.length; i++) {\n            currentGame.userKeys[userName].push(_keys[i]);\n            uint256 keyCount = currentGame.keys[_keys[i]];\n\n            \n            if(keyCount == 0) {\n                // Create Key if is not exist\n                currentGame.keys[_keys[i]] = 1;\n            } else {\n                // Add Count if key exist\n                currentGame.keys[_keys[i]] = keyCount + 1;\n            }\n            \n            playLottry();\n        }\n    }\n\n    function random() public view returns (uint8) {\n        return uint8(uint256(keccak256(abi.encodePacked(block.timestamp, block.difficulty)))%100);\n    }\n    \n    function playLottry()\n        internal\n        returns(bool)\n    {\n        if(random() > 50) {\n            PlayerBook.deposit.value(currentLottryPot_)();\n            currentLottryPot_ = 0;\n            return (true);\n            emit onLotteryWin(\n                msg.sender,\n                PlayerBook.getPlayerName(msg.sender),\n                now,\n                currentLottryPot_\n            );\n        }\n        return (false);\n    }\n}\n",
  "sourcePath": "/Users/waynechiu/Desktop/dApp/contracts/NumberGame.sol",
  "compiler": {
    "name": "solc",
    "version": "0.4.24+commit.e67f0147.Emscripten.clang"
  },
  "schemaVersion": "2.0.1",
  "updatedAt": "2018-10-24T21:57:00.193Z"
}