{
  "contractName": "NumberGame",
  "abi": [
    {
      "constant": true,
      "inputs": [],
      "name": "keyPrice_",
      "outputs": [
        {
          "name": "",
          "type": "uint256"
        }
      ],
      "payable": false,
      "stateMutability": "view",
      "type": "function"
    },
    {
      "constant": true,
      "inputs": [],
      "name": "totalGameCount_",
      "outputs": [
        {
          "name": "",
          "type": "uint256"
        }
      ],
      "payable": false,
      "stateMutability": "view",
      "type": "function"
    },
    {
      "constant": true,
      "inputs": [],
      "name": "keyRevealFee_",
      "outputs": [
        {
          "name": "",
          "type": "uint256"
        }
      ],
      "payable": false,
      "stateMutability": "view",
      "type": "function"
    },
    {
      "constant": true,
      "inputs": [
        {
          "name": "",
          "type": "uint256"
        }
      ],
      "name": "games_",
      "outputs": [
        {
          "name": "bankerAddress",
          "type": "address"
        },
        {
          "name": "winnerAddress",
          "type": "address"
        },
        {
          "name": "totalAmount",
          "type": "uint256"
        },
        {
          "name": "gameTotalTime",
          "type": "uint256"
        },
        {
          "name": "startTime",
          "type": "uint256"
        },
        {
          "name": "endTime",
          "type": "uint256"
        }
      ],
      "payable": false,
      "stateMutability": "view",
      "type": "function"
    },
    {
      "constant": true,
      "inputs": [],
      "name": "gameActivationFee_",
      "outputs": [
        {
          "name": "",
          "type": "uint256"
        }
      ],
      "payable": false,
      "stateMutability": "view",
      "type": "function"
    },
    {
      "constant": true,
      "inputs": [],
      "name": "currentLottryPot_",
      "outputs": [
        {
          "name": "",
          "type": "uint256"
        }
      ],
      "payable": false,
      "stateMutability": "view",
      "type": "function"
    },
    {
      "anonymous": false,
      "inputs": [
        {
          "indexed": true,
          "name": "playerAddress",
          "type": "address"
        },
        {
          "indexed": true,
          "name": "playerName",
          "type": "bytes32"
        },
        {
          "indexed": false,
          "name": "timeStamp",
          "type": "uint256"
        },
        {
          "indexed": false,
          "name": "winningAmount",
          "type": "uint256"
        }
      ],
      "name": "onLotteryWin",
      "type": "event"
    },
    {
      "anonymous": false,
      "inputs": [
        {
          "indexed": true,
          "name": "bankerAddress",
          "type": "address"
        },
        {
          "indexed": true,
          "name": "bankerName",
          "type": "bytes32"
        },
        {
          "indexed": false,
          "name": "timeStamp",
          "type": "uint256"
        },
        {
          "indexed": false,
          "name": "initialAmount",
          "type": "uint256"
        },
        {
          "indexed": false,
          "name": "round",
          "type": "uint256"
        }
      ],
      "name": "onGameStart",
      "type": "event"
    },
    {
      "constant": false,
      "inputs": [],
      "name": "startGame",
      "outputs": [
        {
          "name": "",
          "type": "bool"
        }
      ],
      "payable": true,
      "stateMutability": "payable",
      "type": "function"
    },
    {
      "constant": true,
      "inputs": [
        {
          "name": "_gameRound",
          "type": "uint256"
        },
        {
          "name": "_key",
          "type": "uint256"
        }
      ],
      "name": "getKeysSnapshotCount",
      "outputs": [
        {
          "name": "",
          "type": "uint256"
        }
      ],
      "payable": false,
      "stateMutability": "view",
      "type": "function"
    },
    {
      "constant": false,
      "inputs": [
        {
          "name": "_gameRound",
          "type": "uint256"
        },
        {
          "name": "_keys",
          "type": "uint256[]"
        }
      ],
      "name": "snapshotKeys",
      "outputs": [
        {
          "name": "",
          "type": "bool"
        }
      ],
      "payable": true,
      "stateMutability": "payable",
      "type": "function"
    },
    {
      "constant": false,
      "inputs": [
        {
          "name": "_gameRound",
          "type": "uint256"
        },
        {
          "name": "_keys",
          "type": "uint256[]"
        }
      ],
      "name": "buyKeys",
      "outputs": [],
      "payable": true,
      "stateMutability": "payable",
      "type": "function"
    },
    {
      "constant": true,
      "inputs": [],
      "name": "random",
      "outputs": [
        {
          "name": "",
          "type": "uint8"
        }
      ],
      "payable": false,
      "stateMutability": "view",
      "type": "function"
    }
  ],
  "bytecode": "0x60806040526706f05b59d3b20000600055670de0b6b3a7640000600155600060025560006003556702c68af0bb14000060045534801561003e57600080fd5b506111c98061004e6000396000f3006080604052600436106100af576000357c0100000000000000000000000000000000000000000000000000000000900463ffffffff16806328078143146100b45780633a610fec1461012f5780635ec01e4d1461015a5780636b973f551461018b578063736aab16146101b6578063c74004b014610201578063d52412791461022c578063d65ab5f2146102e8578063e8cd7bac1461030a578063ed2ec05014610335578063ff3483e514610360575b600080fd5b61011560048036038101908080359060200190929190803590602001908201803590602001908080602002602001604051908101604052809392919081815260200183836020028082843782019150505050505091929192905050506103c3565b604051808215151515815260200191505060405180910390f35b34801561013b57600080fd5b50610144610665565b6040518082815260200191505060405180910390f35b34801561016657600080fd5b5061016f61066b565b604051808260ff1660ff16815260200191505060405180910390f35b34801561019757600080fd5b506101a061070c565b6040518082815260200191505060405180910390f35b3480156101c257600080fd5b506101eb6004803603810190808035906020019092919080359060200190929190505050610712565b6040518082815260200191505060405180910390f35b34801561020d57600080fd5b50610216610744565b6040518082815260200191505060405180910390f35b34801561023857600080fd5b506102576004803603810190808035906020019092919050505061074a565b604051808773ffffffffffffffffffffffffffffffffffffffff1673ffffffffffffffffffffffffffffffffffffffff1681526020018673ffffffffffffffffffffffffffffffffffffffff1673ffffffffffffffffffffffffffffffffffffffff168152602001858152602001848152602001838152602001828152602001965050505050505060405180910390f35b6102f06107c6565b604051808215151515815260200191505060405180910390f35b34801561031657600080fd5b5061031f610bea565b6040518082815260200191505060405180910390f35b34801561034157600080fd5b5061034a610bf0565b6040518082815260200191505060405180910390f35b6103c16004803603810190808035906020019092919080359060200190820180359060200190808060200260200160405190810160405280939291908181526020018383602002808284378201915050505050509192919290505050610bf6565b005b60008060008073325116395e63e9b5cc82285bf01a68ebbff3050d73ffffffffffffffffffffffffffffffffffffffff1663e18d38ce336040518263ffffffff167c0100000000000000000000000000000000000000000000000000000000028152600401808273ffffffffffffffffffffffffffffffffffffffff1673ffffffffffffffffffffffffffffffffffffffff168152602001915050602060405180830381600087803b15801561047857600080fd5b505af115801561048c573d6000803e3d6000fd5b505050506040513d60208110156104a257600080fd5b810190808051906020019092919050505092507f3000000000000000000000000000000000000000000000000000000000000000836000191614151515610551576040517f08c379a00000000000000000000000000000000000000000000000000000000081526004018080602001828103825260138152602001807f7573657220646f6573206e6f742065786973740000000000000000000000000081525060200191505060405180910390fd5b60045434101515156105cb576040517f08c379a00000000000000000000000000000000000000000000000000000000081526004018080602001828103825260108152602001807f4e6f7420656e6f756768206d6f6e65790000000000000000000000000000000081525060200191505060405180910390fd5b600560008781526020019081526020016000209150600090505b845181101561065857816006016000868381518110151561060257fe5b90602001906020020151815260200190815260200160002054826007016000878481518110151561062f57fe5b9060200190602002015181526020019081526020016000208190555080806001019150506105e5565b6001935050505092915050565b60005481565b60006064424460405160200180838152602001828152602001925050506040516020818303038152906040526040518082805190602001908083835b6020831015156106cc57805182526020820191506020810190506020830392506106a7565b6001836020036101000a03801982511681845116808217855250505050505090500191505060405180910390206001900481151561070657fe5b06905090565b60025481565b600060056000848152602001908152602001600020600701600083815260200190815260200160002054905092915050565b60045481565b60056020528060005260406000206000915090508060000160009054906101000a900473ffffffffffffffffffffffffffffffffffffffff16908060010160009054906101000a900473ffffffffffffffffffffffffffffffffffffffff16908060020154908060030154908060040154908060050154905086565b6000806000803392503491506001548210151515610872576040517f08c379a00000000000000000000000000000000000000000000000000000000081526004018080602001828103825260268152602001807f756d6d2e2e2e2e2e2020796f75206861766520746f2070617920746865206e6181526020017f6d6520666565000000000000000000000000000000000000000000000000000081525060400191505060405180910390fd5b6002600081548092919060010191905055508260056000600254815260200190815260200160002060000160006101000a81548173ffffffffffffffffffffffffffffffffffffffff021916908373ffffffffffffffffffffffffffffffffffffffff1602179055506108ef600a8361100e90919063ffffffff16565b600381905550610909600a8361100e90919063ffffffff16565b905073325116395e63e9b5cc82285bf01a68ebbff3050d73ffffffffffffffffffffffffffffffffffffffff1663d0e30db0826040518263ffffffff167c01000000000000000000000000000000000000000000000000000000000281526004016020604051808303818588803b15801561098357600080fd5b505af1158015610997573d6000803e3d6000fd5b50505050506040513d60208110156109ae57600080fd5b8101908080519060200190929190505050506109e760086109d9600a8561100e90919063ffffffff16565b61102f90919063ffffffff16565b60056000600254815260200190815260200160002060020154016005600060025481526020019081526020016000206002018190555061a8c060056000600254815260200190815260200160002060030181905550426005600060025481526020019081526020016000206004018190555061a8c042016005600060025481526020019081526020016000206005018190555073325116395e63e9b5cc82285bf01a68ebbff3050d73ffffffffffffffffffffffffffffffffffffffff1663e18d38ce846040518263ffffffff167c0100000000000000000000000000000000000000000000000000000000028152600401808273ffffffffffffffffffffffffffffffffffffffff1673ffffffffffffffffffffffffffffffffffffffff168152602001915050602060405180830381600087803b158015610b2957600080fd5b505af1158015610b3d573d6000803e3d6000fd5b505050506040513d6020811015610b5357600080fd5b8101908080519060200190929190505050600019168373ffffffffffffffffffffffffffffffffffffffff167fd2e3b044802ec7ace4d431ada5a537bceb8099d0b5c3c6d579a92365b5bf5766426005600060025481526020019081526020016000206002015460025460405180848152602001838152602001828152602001935050505060405180910390a36001935050505090565b60015481565b60035481565b6000806000806000806000806000339850600560008c8152602001908152602001600020975073325116395e63e9b5cc82285bf01a68ebbff3050d73ffffffffffffffffffffffffffffffffffffffff1663e18d38ce8a6040518263ffffffff167c0100000000000000000000000000000000000000000000000000000000028152600401808273ffffffffffffffffffffffffffffffffffffffff1673ffffffffffffffffffffffffffffffffffffffff168152602001915050602060405180830381600087803b158015610ccb57600080fd5b505af1158015610cdf573d6000803e3d6000fd5b505050506040513d6020811015610cf557600080fd5b81019080805190602001909291905050509650610d1e8a5160005461102f90919063ffffffff16565b95508534111515610d97576040517f08c379a00000000000000000000000000000000000000000000000000000000081526004018080602001828103825260108152602001807f4e6f7420656e6f756768206d6f6e65790000000000000000000000000000000081525060200191505060405180910390fd5b610dab600a3461106d90919063ffffffff16565b9450610dd46008610dc6600a3461106d90919063ffffffff16565b61102f90919063ffffffff16565b9350610dea600a3461106d90919063ffffffff16565b925073325116395e63e9b5cc82285bf01a68ebbff3050d73ffffffffffffffffffffffffffffffffffffffff1663d0e30db0846040518263ffffffff167c01000000000000000000000000000000000000000000000000000000000281526004016020604051808303818588803b158015610e6457600080fd5b505af1158015610e78573d6000803e3d6000fd5b50505050506040513d6020811015610e8f57600080fd5b810190808051906020019092919050505050610eb68560035461109790919063ffffffff16565b600381905550610ed384896002015461109790919063ffffffff16565b8860020181905550600091505b89518210156110015787600801600088600019166000191681526020019081526020016000208a83815181101515610f1457fe5b9060200190602002015190806001815401808255809150509060018203906000526020600020016000909192909190915055508760060160008b84815181101515610f5b57fe5b9060200190602002015181526020019081526020016000205490506000811415610fb65760018860060160008c85815181101515610f9557fe5b90602001906020020151815260200190815260200160002081905550610feb565b600181018860060160008c85815181101515610fce57fe5b906020019060200201518152602001908152602001600020819055505b610ff36110b8565b508180600101925050610ee0565b5050505050505050505050565b60008083831115151561102057600080fd5b82840390508091505092915050565b60008060008414156110445760009150611066565b828402905082848281151561105557fe5b0414151561106257600080fd5b8091505b5092915050565b60008060008311151561107f57600080fd5b828481151561108a57fe5b0490508091505092915050565b60008082840190508381101515156110ae57600080fd5b8091505092915050565b600060326110c461066b565b60ff1611156111955773325116395e63e9b5cc82285bf01a68ebbff3050d73ffffffffffffffffffffffffffffffffffffffff1663d0e30db06003546040518263ffffffff167c01000000000000000000000000000000000000000000000000000000000281526004016020604051808303818588803b15801561114757600080fd5b505af115801561115b573d6000803e3d6000fd5b50505050506040513d602081101561117257600080fd5b81019080805190602001909291905050505060006003819055506001905061119a565b600090505b905600a165627a7a723058203e2edd7accebab47eaea59be419d5cb4609f6723bd00732822e8737e449b3fa50029",
  "source": "pragma solidity ^0.4.19;\n\n/**\n * @title SafeMath\n * @dev Math operations with safety checks that revert on error\n */\nlibrary SafeMath {\n\n  /**\n  * @dev Multiplies two numbers, reverts on overflow.\n  */\n    function mul(uint256 a, uint256 b) internal pure returns (uint256) {\n      // Gas optimization: this is cheaper than requiring 'a' not being zero, but the\n      // benefit is lost if 'b' is also tested.\n      // See: https://github.com/OpenZeppelin/openzeppelin-solidity/pull/522\n        if (a == 0) {\n            return 0;\n        }\n\n        uint256 c = a * b;\n        require(c / a == b);\n\n        return c;\n    }\n\n  /**\n  * @dev Integer division of two numbers truncating the quotient, reverts on division by zero.\n  */\n    function div(uint256 a, uint256 b) internal pure returns (uint256) {\n        require(b > 0); // Solidity only automatically asserts when dividing by 0\n        uint256 c = a / b;\n      // assert(a == b * c + a % b); // There is no case in which this doesn't hold\n\n        return c;\n    }\n\n  /**\n  * @dev Subtracts two numbers, reverts on overflow (i.e. if subtrahend is greater than minuend).\n  */\n    function sub(uint256 a, uint256 b) internal pure returns (uint256) {\n        require(b <= a);\n        uint256 c = a - b;\n\n        return c;\n    }\n\n  /**\n  * @dev Adds two numbers, reverts on overflow.\n  */\n    function add(uint256 a, uint256 b) internal pure returns (uint256) {\n        uint256 c = a + b;\n        require(c >= a);\n\n        return c;\n    }\n\n  /**\n  * @dev Divides two numbers and returns the remainder (unsigned integer modulo),\n  * reverts when dividing by zero.\n  */\n    function mod(uint256 a, uint256 b) internal pure returns (uint256) {\n        require(b != 0);\n        return a % b;\n    }\n}\n\n\ninterface PlayerBookInterface {\n    function getPlayerName(address _addr) external view returns(bytes32);\n    function deposit() external payable returns(bool);\n}\n\ncontract GameEvents {\n    event onLotteryWin\n    (\n        address indexed playerAddress,\n        bytes32 indexed playerName,\n        uint256 timeStamp,\n        uint256 winningAmount\n    );\n    event onGameStart\n    (\n        address indexed bankerAddress,\n        bytes32 indexed bankerName,\n        uint256 timeStamp,\n        uint256 initialAmount,\n        uint256 round\n    );\n    \n}\n\n\ncontract NumberGame is GameEvents {\n    using SafeMath for uint256;\n    address constant playbookContractAddress_ = 0x325116395e63E9B5cc82285BF01A68EBBff3050D;\n\n    PlayerBookInterface constant private PlayerBook = PlayerBookInterface(playbookContractAddress_);\n\n    uint256 public keyPrice_ = 0.5 ether;\n    uint256 public gameActivationFee_ = 1 ether;\n    uint256 public totalGameCount_ = 0;\n    uint256 public currentLottryPot_ = 0;\n    uint256 public keyRevealFee_ = 0.2 ether;\n\n    mapping (uint256 => Game) public games_;\n\n    struct Game {\n        address bankerAddress;\n        address winnerAddress;\n        uint256 totalAmount;\n        uint gameTotalTime;\n        uint startTime;\n        uint endTime;\n        mapping(uint256 => uint256) keys;\n        mapping(uint256 => uint256) snapshotKeys;\n        mapping(bytes32 => uint256[]) userKeys;\n    }\n\n    function startGame()\n      public\n      payable\n      returns (bool)\n    {\n        address bankerAddress = msg.sender;\n        uint256 depositAmount = msg.value;\n        require (depositAmount >= gameActivationFee_, \"umm.....  you have to pay the name fee\");\n        totalGameCount_++;\n        games_[totalGameCount_].bankerAddress = bankerAddress;\n\n\n        currentLottryPot_ = depositAmount.sub(10);\n        uint256 goOutAmount = depositAmount.sub(10);\n        PlayerBook.deposit.value(goOutAmount)();\n\n        games_[totalGameCount_].totalAmount = games_[totalGameCount_].totalAmount + depositAmount.sub(10).mul(8);\n        \n        games_[totalGameCount_].gameTotalTime = 12 hours;\n        games_[totalGameCount_].startTime = now;\n        games_[totalGameCount_].endTime = now + 12 hours;\n\n        emit onGameStart(\n            bankerAddress,\n            PlayerBook.getPlayerName(bankerAddress),\n            now,\n            games_[totalGameCount_].totalAmount,\n            totalGameCount_\n        );\n        return (true);\n    }\n    \n    function getKeysSnapshotCount(uint256 _gameRound, uint256 _key)\n        public\n        view\n        returns(uint256)\n    {\n        return games_[_gameRound].snapshotKeys[_key];\n    }\n\n    function snapshotKeys(uint256 _gameRound ,uint256[] _keys)\n        public\n        payable\n        returns (bool) {\n        bytes32 userName = PlayerBook.getPlayerName(msg.sender);\n        require(userName != \"0\", \"user does not exist\");\n        require(msg.value >= keyRevealFee_, \"Not enough money\");\n        Game storage currentGame = games_[_gameRound];\n        for (uint i = 0; i < _keys.length; i++) {\n            currentGame.snapshotKeys[_keys[i]] = currentGame.keys[_keys[i]];\n        }\n        return (true);\n    }\n    \n\n    function buyKeys(uint256 _gameRound, uint256[] _keys)\n      public\n      payable\n    {\n        address playerAddress = msg.sender;\n        Game storage currentGame = games_[_gameRound];\n        bytes32 userName = PlayerBook.getPlayerName(playerAddress);\n        uint256 costTotalKeys = keyPrice_.mul(_keys.length);\n\n        require(msg.value > costTotalKeys, \"Not enough money\");\n        \n        uint256 lotteryMoney = msg.value.div(10);\n        uint256 winningAmount = msg.value.div(10).mul(8);\n        uint256 potPassingIncomeAmount = msg.value.div(10);\n        PlayerBook.deposit.value(potPassingIncomeAmount)();\n        currentLottryPot_ = currentLottryPot_.add(lotteryMoney);\n        currentGame.totalAmount = currentGame.totalAmount.add(winningAmount);\n        \n        for (uint i = 0; i < _keys.length; i++) {\n            currentGame.userKeys[userName].push(_keys[i]);\n            uint256 keyCount = currentGame.keys[_keys[i]];\n\n            \n            if(keyCount == 0) {\n                // Create Key if is not exist\n                currentGame.keys[_keys[i]] = 1;\n            } else {\n                // Add Count if key exist\n                currentGame.keys[_keys[i]] = keyCount + 1;\n            }\n            \n            playLottry();\n        }\n    }\n\n    function random() public view returns (uint8) {\n        return uint8(uint256(keccak256(abi.encodePacked(block.timestamp, block.difficulty)))%100);\n    }\n    \n    function playLottry()\n        internal\n        returns(bool)\n    {\n        if(random() > 50) {\n            PlayerBook.deposit.value(currentLottryPot_)();\n            currentLottryPot_ = 0;\n            return (true);\n            emit onLotteryWin(\n                msg.sender,\n                PlayerBook.getPlayerName(msg.sender),\n                now,\n                currentLottryPot_\n            );\n        }\n        return (false);\n    }\n}\n",
  "sourcePath": "/Users/waynechiu/Desktop/dApp/contracts/Game.sol",
  "compiler": {
    "name": "solc",
    "version": "0.4.24+commit.e67f0147.Emscripten.clang"
  },
  "schemaVersion": "2.0.1",
  "updatedAt": "2018-10-24T09:51:01.650Z"
}