{
  "contractName": "NumberGame",
  "abi": [
    {
      "constant": true,
      "inputs": [],
      "name": "keyPrice_",
      "outputs": [
        {
          "name": "",
          "type": "uint256"
        }
      ],
      "payable": false,
      "stateMutability": "view",
      "type": "function"
    },
    {
      "constant": true,
      "inputs": [],
      "name": "currentLotteryPot_",
      "outputs": [
        {
          "name": "",
          "type": "uint256"
        }
      ],
      "payable": false,
      "stateMutability": "view",
      "type": "function"
    },
    {
      "constant": true,
      "inputs": [],
      "name": "totalGameCount_",
      "outputs": [
        {
          "name": "",
          "type": "uint256"
        }
      ],
      "payable": false,
      "stateMutability": "view",
      "type": "function"
    },
    {
      "constant": true,
      "inputs": [],
      "name": "snapshotWinnerFee_",
      "outputs": [
        {
          "name": "",
          "type": "uint256"
        }
      ],
      "payable": false,
      "stateMutability": "view",
      "type": "function"
    },
    {
      "constant": true,
      "inputs": [],
      "name": "keyRevealFee_",
      "outputs": [
        {
          "name": "",
          "type": "uint256"
        }
      ],
      "payable": false,
      "stateMutability": "view",
      "type": "function"
    },
    {
      "constant": true,
      "inputs": [
        {
          "name": "",
          "type": "uint256"
        }
      ],
      "name": "games_",
      "outputs": [
        {
          "name": "bankerAddress",
          "type": "address"
        },
        {
          "name": "totalAmount",
          "type": "uint256"
        },
        {
          "name": "gameTotalTime",
          "type": "uint256"
        },
        {
          "name": "startTime",
          "type": "uint256"
        },
        {
          "name": "endTime",
          "type": "uint256"
        },
        {
          "name": "winnerName",
          "type": "bytes32"
        },
        {
          "name": "winnerAddress",
          "type": "address"
        },
        {
          "name": "winnerNumber",
          "type": "uint256"
        },
        {
          "name": "winnerTimestamp",
          "type": "uint256"
        }
      ],
      "payable": false,
      "stateMutability": "view",
      "type": "function"
    },
    {
      "constant": true,
      "inputs": [],
      "name": "gameActivationFee_",
      "outputs": [
        {
          "name": "",
          "type": "uint256"
        }
      ],
      "payable": false,
      "stateMutability": "view",
      "type": "function"
    },
    {
      "anonymous": false,
      "inputs": [
        {
          "indexed": true,
          "name": "playerAddress",
          "type": "address"
        },
        {
          "indexed": true,
          "name": "playerName",
          "type": "bytes32"
        },
        {
          "indexed": false,
          "name": "timeStamp",
          "type": "uint256"
        },
        {
          "indexed": false,
          "name": "winningAmount",
          "type": "uint256"
        }
      ],
      "name": "onLotteryWin",
      "type": "event"
    },
    {
      "anonymous": false,
      "inputs": [
        {
          "indexed": true,
          "name": "bankerAddress",
          "type": "address"
        },
        {
          "indexed": true,
          "name": "bankerName",
          "type": "bytes32"
        },
        {
          "indexed": false,
          "name": "timeStamp",
          "type": "uint256"
        },
        {
          "indexed": false,
          "name": "initialAmount",
          "type": "uint256"
        },
        {
          "indexed": false,
          "name": "round",
          "type": "uint256"
        }
      ],
      "name": "onGameStart",
      "type": "event"
    },
    {
      "constant": true,
      "inputs": [
        {
          "name": "_gameRound",
          "type": "uint256"
        }
      ],
      "name": "getCurrentFinishGameReward",
      "outputs": [
        {
          "name": "",
          "type": "uint256"
        }
      ],
      "payable": false,
      "stateMutability": "view",
      "type": "function"
    },
    {
      "constant": true,
      "inputs": [
        {
          "name": "_gameRound",
          "type": "uint256"
        },
        {
          "name": "_key",
          "type": "uint256"
        }
      ],
      "name": "getKeysSnapshotCount",
      "outputs": [
        {
          "name": "",
          "type": "uint256"
        },
        {
          "name": "",
          "type": "uint256"
        }
      ],
      "payable": false,
      "stateMutability": "view",
      "type": "function"
    },
    {
      "constant": true,
      "inputs": [
        {
          "name": "_gameRound",
          "type": "uint256"
        }
      ],
      "name": "getSnapshotWinner",
      "outputs": [
        {
          "name": "",
          "type": "uint256"
        },
        {
          "name": "",
          "type": "bytes32"
        },
        {
          "name": "",
          "type": "uint256"
        }
      ],
      "payable": false,
      "stateMutability": "view",
      "type": "function"
    },
    {
      "constant": false,
      "inputs": [
        {
          "name": "_gameRound",
          "type": "uint256"
        }
      ],
      "name": "finishGame",
      "outputs": [],
      "payable": true,
      "stateMutability": "payable",
      "type": "function"
    },
    {
      "constant": false,
      "inputs": [],
      "name": "startGame",
      "outputs": [],
      "payable": true,
      "stateMutability": "payable",
      "type": "function"
    },
    {
      "constant": false,
      "inputs": [
        {
          "name": "_gameRound",
          "type": "uint256"
        },
        {
          "name": "_keys",
          "type": "uint256[]"
        }
      ],
      "name": "snapshotKeys",
      "outputs": [],
      "payable": true,
      "stateMutability": "payable",
      "type": "function"
    },
    {
      "constant": false,
      "inputs": [
        {
          "name": "_gameRound",
          "type": "uint256"
        },
        {
          "name": "_keys",
          "type": "uint256[]"
        }
      ],
      "name": "buyKeys",
      "outputs": [],
      "payable": true,
      "stateMutability": "payable",
      "type": "function"
    },
    {
      "constant": false,
      "inputs": [
        {
          "name": "_gameRound",
          "type": "uint256"
        }
      ],
      "name": "snapshotWinner",
      "outputs": [],
      "payable": true,
      "stateMutability": "payable",
      "type": "function"
    }
  ],
  "bytecode": "0x60806040526706f05b59d3b20000600055670de0b6b3a7640000600155600060025560006003556702c68af0bb140000600455674563918244f4000060055534801561004a57600080fd5b506122368061005a6000396000f3006080604052600436106100db576000357c0100000000000000000000000000000000000000000000000000000000900463ffffffff16806328078143146100e05780633a610fec14610143578063426c08221461016e578063581cf073146101995780636b973f55146101f0578063736aab161461021b57806391a7a5271461026d578063c2bdf8e114610298578063c3b4657e146102d9578063c74004b0146102f9578063cfe186b214610324578063d524127914610344578063d65ab5f21461041d578063e8cd7bac14610427578063ff3483e514610452575b600080fd5b61014160048036038101908080359060200190929190803590602001908201803590602001908080602002602001604051908101604052809392919081815260200183836020028082843782019150505050505091929192905050506104b5565b005b34801561014f57600080fd5b50610158610880565b6040518082815260200191505060405180910390f35b34801561017a57600080fd5b50610183610886565b6040518082815260200191505060405180910390f35b3480156101a557600080fd5b506101c46004803603810190808035906020019092919050505061088c565b604051808481526020018360001916600019168152602001828152602001935050505060405180910390f35b3480156101fc57600080fd5b506102056108c4565b6040518082815260200191505060405180910390f35b34801561022757600080fd5b5061025060048036038101908080359060200190929190803590602001909291905050506108ca565b604051808381526020018281526020019250505060405180910390f35b34801561027957600080fd5b5061028261092e565b6040518082815260200191505060405180910390f35b3480156102a457600080fd5b506102c360048036038101908080359060200190929190505050610934565b6040518082815260200191505060405180910390f35b6102f760048036038101908080359060200190929190505050610ad6565b005b34801561030557600080fd5b5061030e610d5d565b6040518082815260200191505060405180910390f35b61034260048036038101908080359060200190929190505050610d63565b005b34801561035057600080fd5b5061036f6004803603810190808035906020019092919050505061116c565b604051808a73ffffffffffffffffffffffffffffffffffffffff1673ffffffffffffffffffffffffffffffffffffffff16815260200189815260200188815260200187815260200186815260200185600019166000191681526020018473ffffffffffffffffffffffffffffffffffffffff1673ffffffffffffffffffffffffffffffffffffffff168152602001838152602001828152602001995050505050505050505060405180910390f35b6104256111fa565b005b34801561043357600080fd5b5061043c611647565b6040518082815260200191505060405180910390f35b6104b3600480360381019080803590602001909291908035906020019082018035906020019080806020026020016040519081016040528093929190818152602001838360200280828437820191505050505050919291929050505061164d565b005b600080600080731b7bac0740e11e38f95d08c0be3cd979ce20a0c873ffffffffffffffffffffffffffffffffffffffff1663e18d38ce336040518263ffffffff167c0100000000000000000000000000000000000000000000000000000000028152600401808273ffffffffffffffffffffffffffffffffffffffff1673ffffffffffffffffffffffffffffffffffffffff168152602001915050602060405180830381600087803b15801561056a57600080fd5b505af115801561057e573d6000803e3d6000fd5b505050506040513d602081101561059457600080fd5b810190808051906020019092919050505090507f3000000000000000000000000000000000000000000000000000000000000000816000191614151515610643576040517f08c379a00000000000000000000000000000000000000000000000000000000081526004018080602001828103825260138152602001807f7573657220646f6573206e6f742065786973740000000000000000000000000081525060200191505060405180910390fd5b8460005b81518110156106f157610670828281518110151561066157fe5b90602001906020020151611b79565b15156106e4576040517f08c379a00000000000000000000000000000000000000000000000000000000081526004018080602001828103825260168152602001807f6e756d626572206d75737420626520696e74656765720000000000000000000081525060200191505060405180910390fd5b8080600101915050610647565b6107078751600454611b9790919063ffffffff16565b80341015151561077f576040517f08c379a000000000000000000000000000000000000000000000000000000000815260040180806020018281038252601d8152602001807f66656520646f6573206e6f74206d65657420726571756972656d656e7400000081525060200191505060405180910390fd5b600660008a815260200190815260200160002096503495506107c689878960000160009054906101000a900473ffffffffffffffffffffffffffffffffffffffff16611bd5565b600094505b87518510156108755786600a01600089878151811015156107e857fe5b9060200190602002015181526020019081526020016000205487600b0160008a8881518110151561081557fe5b906020019060200201518152602001908152602001600020600101819055504287600b0160008a8881518110151561084957fe5b9060200190602002015181526020019081526020016000206000018190555084806001019550506107cb565b505050505050505050565b60005481565b60035481565b600080600080600660008681526020019081526020016000209050806008015481600501548260070154935093509350509193909250565b60025481565b60008060066000858152602001908152602001600020600b0160008481526020019081526020016000206000015460066000868152602001908152602001600020600b01600085815260200190815260200160002060010154915091509250929050565b60055481565b600061093e612187565b6006600084815260200190815260200160002061014060405190810160405290816000820160009054906101000a900473ffffffffffffffffffffffffffffffffffffffff1673ffffffffffffffffffffffffffffffffffffffff1673ffffffffffffffffffffffffffffffffffffffff168152602001600182015481526020016002820154815260200160038201548152602001600482015481526020016005820154600019166000191681526020016006820160009054906101000a900473ffffffffffffffffffffffffffffffffffffffff1673ffffffffffffffffffffffffffffffffffffffff1673ffffffffffffffffffffffffffffffffffffffff168152602001600782015481526020016008820154815260200160098201805480602002602001604051908101604052809291908181526020018280548015610aab57602002820191906000526020600020905b81546000191681526020019060010190808311610a93575b5050505050815250509050610ace600a8260200151611d7790919063ffffffff16565b915050919050565b6000806000806000731b7bac0740e11e38f95d08c0be3cd979ce20a0c873ffffffffffffffffffffffffffffffffffffffff1663e18d38ce336040518263ffffffff167c0100000000000000000000000000000000000000000000000000000000028152600401808273ffffffffffffffffffffffffffffffffffffffff1673ffffffffffffffffffffffffffffffffffffffff168152602001915050602060405180830381600087803b158015610b8d57600080fd5b505af1158015610ba1573d6000803e3d6000fd5b505050506040513d6020811015610bb757600080fd5b810190808051906020019092919050505090507f3000000000000000000000000000000000000000000000000000000000000000816000191614151515610c66576040517f08c379a00000000000000000000000000000000000000000000000000000000081526004018080602001828103825260138152602001807f7573657220646f6573206e6f742065786973740000000000000000000000000081525060200191505060405180910390fd5b600554803410151515610ce1576040517f08c379a000000000000000000000000000000000000000000000000000000000815260040180806020018281038252601d8152602001807f66656520646f6573206e6f74206d65657420726571756972656d656e7400000081525060200191505060405180910390fd5b600660008881526020019081526020016000209550349450610d2887868860000160009054906101000a900473ffffffffffffffffffffffffffffffffffffffff16611bd5565b610d3187611da1565b935093508386600501816000191690555082866007018190555042866008018190555050505050505050565b60045481565b600080600080731b7bac0740e11e38f95d08c0be3cd979ce20a0c873ffffffffffffffffffffffffffffffffffffffff1663e18d38ce336040518263ffffffff167c0100000000000000000000000000000000000000000000000000000000028152600401808273ffffffffffffffffffffffffffffffffffffffff1673ffffffffffffffffffffffffffffffffffffffff168152602001915050602060405180830381600087803b158015610e1857600080fd5b505af1158015610e2c573d6000803e3d6000fd5b505050506040513d6020811015610e4257600080fd5b810190808051906020019092919050505090507f3000000000000000000000000000000000000000000000000000000000000000816000191614151515610ef1576040517f08c379a00000000000000000000000000000000000000000000000000000000081526004018080602001828103825260138152602001807f7573657220646f6573206e6f742065786973740000000000000000000000000081525060200191505060405180910390fd5b60066000868152602001908152602001600020935042846004015411151515610f82576040517f08c379a00000000000000000000000000000000000000000000000000000000081526004018080602001828103825260178152602001807f47616d652079657420746f2062652066696e697368656400000000000000000081525060200191505060405180910390fd5b8273ffffffffffffffffffffffffffffffffffffffff168460060160009054906101000a900473ffffffffffffffffffffffffffffffffffffffff1673ffffffffffffffffffffffffffffffffffffffff161415151561104a576040517f08c379a00000000000000000000000000000000000000000000000000000000081526004018080602001828103825260178152602001807f57696e6e657220686173206265656e20636c61696d656400000000000000000081525060200191505060405180910390fd5b61105385610934565b9150731b7bac0740e11e38f95d08c0be3cd979ce20a0c873ffffffffffffffffffffffffffffffffffffffff1663f340fa01838660060160009054906101000a900473ffffffffffffffffffffffffffffffffffffffff166040518363ffffffff167c0100000000000000000000000000000000000000000000000000000000028152600401808273ffffffffffffffffffffffffffffffffffffffff1673ffffffffffffffffffffffffffffffffffffffff1681526020019150506020604051808303818588803b15801561112857600080fd5b505af115801561113c573d6000803e3d6000fd5b50505050506040513d602081101561115357600080fd5b8101908080519060200190929190505050505050505050565b60066020528060005260406000206000915090508060000160009054906101000a900473ffffffffffffffffffffffffffffffffffffffff16908060010154908060020154908060030154908060040154908060050154908060060160009054906101000a900473ffffffffffffffffffffffffffffffffffffffff16908060070154908060080154905089565b6000806000731b7bac0740e11e38f95d08c0be3cd979ce20a0c873ffffffffffffffffffffffffffffffffffffffff1663e18d38ce336040518263ffffffff167c0100000000000000000000000000000000000000000000000000000000028152600401808273ffffffffffffffffffffffffffffffffffffffff1673ffffffffffffffffffffffffffffffffffffffff168152602001915050602060405180830381600087803b1580156112ae57600080fd5b505af11580156112c2573d6000803e3d6000fd5b505050506040513d60208110156112d857600080fd5b810190808051906020019092919050505090507f3000000000000000000000000000000000000000000000000000000000000000816000191614151515611387576040517f08c379a00000000000000000000000000000000000000000000000000000000081526004018080602001828103825260138152602001807f7573657220646f6573206e6f742065786973740000000000000000000000000081525060200191505060405180910390fd5b600154803410151515611402576040517f08c379a000000000000000000000000000000000000000000000000000000000815260040180806020018281038252601d8152602001807f66656520646f6573206e6f74206d65657420726571756972656d656e7400000081525060200191505060405180910390fd5b3393503492506002600081548092919060010191905055508360066000600254815260200190815260200160002060000160006101000a81548173ffffffffffffffffffffffffffffffffffffffff021916908373ffffffffffffffffffffffffffffffffffffffff16021790555061147e6002548486611bd5565b61a8c060066000600254815260200190815260200160002060020181905550426006600060025481526020019081526020016000206003018190555061a8c0420160066000600254815260200190815260200160002060040181905550731b7bac0740e11e38f95d08c0be3cd979ce20a0c873ffffffffffffffffffffffffffffffffffffffff1663e18d38ce856040518263ffffffff167c0100000000000000000000000000000000000000000000000000000000028152600401808273ffffffffffffffffffffffffffffffffffffffff1673ffffffffffffffffffffffffffffffffffffffff168152602001915050602060405180830381600087803b15801561158a57600080fd5b505af115801561159e573d6000803e3d6000fd5b505050506040513d60208110156115b457600080fd5b8101908080519060200190929190505050600019168473ffffffffffffffffffffffffffffffffffffffff167fd2e3b044802ec7ace4d431ada5a537bceb8099d0b5c3c6d579a92365b5bf5766426006600060025481526020019081526020016000206001015460025460405180848152602001838152602001828152602001935050505060405180910390a350505050565b60015481565b600080600080600080731b7bac0740e11e38f95d08c0be3cd979ce20a0c873ffffffffffffffffffffffffffffffffffffffff1663e18d38ce336040518263ffffffff167c0100000000000000000000000000000000000000000000000000000000028152600401808273ffffffffffffffffffffffffffffffffffffffff1673ffffffffffffffffffffffffffffffffffffffff168152602001915050602060405180830381600087803b15801561170557600080fd5b505af1158015611719573d6000803e3d6000fd5b505050506040513d602081101561172f57600080fd5b810190808051906020019092919050505090507f30000000000000000000000000000000000000000000000000000000000000008160001916141515156117de576040517f08c379a00000000000000000000000000000000000000000000000000000000081526004018080602001828103825260138152602001807f7573657220646f6573206e6f742065786973740000000000000000000000000081525060200191505060405180910390fd5b8660005b815181101561188c5761180b82828151811015156117fc57fe5b90602001906020020151611b79565b151561187f576040517f08c379a00000000000000000000000000000000000000000000000000000000081526004018080602001828103825260168152602001807f6e756d626572206d75737420626520696e74656765720000000000000000000081525060200191505060405180910390fd5b80806001019150506117e2565b6118a28951600054611b9790919063ffffffff16565b80341015151561191a576040517f08c379a000000000000000000000000000000000000000000000000000000000815260040180806020018281038252601d8152602001807f66656520646f6573206e6f74206d65657420726571756972656d656e7400000081525060200191505060405180910390fd5b339850349750600660008c81526020019081526020016000209650731b7bac0740e11e38f95d08c0be3cd979ce20a0c873ffffffffffffffffffffffffffffffffffffffff1663e18d38ce8a6040518263ffffffff167c0100000000000000000000000000000000000000000000000000000000028152600401808273ffffffffffffffffffffffffffffffffffffffff1673ffffffffffffffffffffffffffffffffffffffff168152602001915050602060405180830381600087803b1580156119e457600080fd5b505af11580156119f8573d6000803e3d6000fd5b505050506040513d6020811015611a0e57600080fd5b81019080805190602001909291905050509550611a508b898960000160009054906101000a900473ffffffffffffffffffffffffffffffffffffffff16611bd5565b600087600c0160008860001916600019168152602001908152602001600020805490501415611aae57866009018690806001815401808255809150509060018203906000526020600020016000909192909190915090600019169055505b600094505b8951851015611b6c5786600c01600087600019166000191681526020019081526020016000208a86815181101515611ae757fe5b90602001906020020151908060018154018082558091505090600182039060005260206000200160009091929091909150555086600a0160008b87815181101515611b2e57fe5b90602001906020020151815260200190815260200160002060008154809291906001019190505550611b5e611f83565b508480600101955050611ab3565b5050505050505050505050565b60008082141515611b8d5760019050611b92565b600090505b919050565b6000806000841415611bac5760009150611bce565b8284029050828482811515611bbd57fe5b04141515611bca57600080fd5b8091505b5092915050565b6000806000806000869450611bf4600a86611d7790919063ffffffff16565b9350839250839150611c2182611c1385886120a490919063ffffffff16565b6120a490919063ffffffff16565b9050611c4c81600660008b8152602001908152602001600020600101546120c590919063ffffffff16565b600660008a815260200190815260200160002060010181905550611c7b826003546120c590919063ffffffff16565b600381905550731b7bac0740e11e38f95d08c0be3cd979ce20a0c873ffffffffffffffffffffffffffffffffffffffff1663f340fa0184886040518363ffffffff167c0100000000000000000000000000000000000000000000000000000000028152600401808273ffffffffffffffffffffffffffffffffffffffff1673ffffffffffffffffffffffffffffffffffffffff1681526020019150506020604051808303818588803b158015611d3057600080fd5b505af1158015611d44573d6000803e3d6000fd5b50505050506040513d6020811015611d5b57600080fd5b8101908080519060200190929190505050505050505050505050565b600080600083111515611d8957600080fd5b8284811515611d9457fe5b0490508091505092915050565b60008060008060006060600060606000806000600660008d8152602001908152602001600020965086600901805480602002602001604051908101604052809291908181526020018280548015611e1b57602002820191906000526020600020905b81546000191681526020019060010190808311611e03575b50505050509550600094505b8551851015611f6f5786600c0160008787815181101515611e4457fe5b9060200190602002015160001916600019168152602001908152602001600020805480602002602001604051908101604052809291908181526020018280548015611eae57602002820191906000526020600020905b815481526020019060010190808311611e9a575b50505050509350600092505b8351831015611f62578383815181101515611ed157fe5b906020019060200201519150600187600a01600084815260200190815260200160002054149050600088148015611f0c575060011515811515145b80611f325750600088148015611f26575060011515811515145b8015611f3157508782105b5b15611f55578197508585815181101515611f4857fe5b9060200190602002015198505b8280600101935050611eba565b8480600101955050611e27565b88889a509a50505050505050505050915091565b6000803390506032611f936120e6565b60ff16111561209b57731b7bac0740e11e38f95d08c0be3cd979ce20a0c873ffffffffffffffffffffffffffffffffffffffff1663f340fa01600354836040518363ffffffff167c0100000000000000000000000000000000000000000000000000000000028152600401808273ffffffffffffffffffffffffffffffffffffffff1673ffffffffffffffffffffffffffffffffffffffff1681526020019150506020604051808303818588803b15801561204d57600080fd5b505af1158015612061573d6000803e3d6000fd5b50505050506040513d602081101561207857600080fd5b8101908080519060200190929190505050506000600381905550600191506120a0565b600091505b5090565b6000808383111515156120b657600080fd5b82840390508091505092915050565b60008082840190508381101515156120dc57600080fd5b8091505092915050565b60006064424460405160200180838152602001828152602001925050506040516020818303038152906040526040518082805190602001908083835b6020831015156121475780518252602082019150602081019050602083039250612122565b6001836020036101000a03801982511681845116808217855250505050505090500191505060405180910390206001900481151561218157fe5b06905090565b61014060405190810160405280600073ffffffffffffffffffffffffffffffffffffffff1681526020016000815260200160008152602001600081526020016000815260200160008019168152602001600073ffffffffffffffffffffffffffffffffffffffff16815260200160008152602001600081526020016060815250905600a165627a7a72305820c3b3274d6fe7b54f549528e79ed794017b989e0d4c559d910943c008e5ec5fa70029",
  "source": "pragma solidity ^0.4.19;\n\nimport \"./SafeMath.sol\";\n\ninterface PlayerBookInterface {\n    function getPlayerName(address _addr) external view returns(bytes32);\n    function deposit(address _addr) external payable returns(bool);\n}\n\ncontract GameEvents {\n    event onLotteryWin\n    (\n        address indexed playerAddress,\n        bytes32 indexed playerName,\n        uint256 timeStamp,\n        uint256 winningAmount\n    );\n    event onGameStart\n    (\n        address indexed bankerAddress,\n        bytes32 indexed bankerName,\n        uint256 timeStamp,\n        uint256 initialAmount,\n        uint256 round\n    );\n}\n\n\ncontract NumberGame is GameEvents {\n    using SafeMath for uint256;\n    address constant playbookContractAddress_ = 0x1b7baC0740E11e38f95D08C0Be3cd979cE20a0C8;\n\n    PlayerBookInterface constant private PlayerBook = PlayerBookInterface(playbookContractAddress_);\n    \n    modifier isRegisteredUser\n    {\n        bytes32 userName = PlayerBook.getPlayerName(msg.sender);\n        require(userName != \"0\", \"user does not exist\");\n        _;\n    }\n\n    modifier meetDepositRequirement(uint256 _fee)\n    {\n        require(msg.value >= _fee, \"fee does not meet requirement\");\n        _;\n    }\n\n    modifier areIntegers(uint256[] _num)\n    {\n        for(uint256 i;i < _num.length;i++){\n            require(returnTrueIfIsInterger(_num[i]), \"number must be integer\");\n        }\n        _;\n    }\n\n    modifier isInteger(uint256 _num)\n    {\n        require(returnTrueIfIsInterger(_num), \"number must be integer\");\n        _;\n    }\n\n    uint256 public keyPrice_ = 0.5 ether;\n    uint256 public gameActivationFee_ = 1 ether;\n    uint256 public totalGameCount_ = 0;\n    uint256 public currentLotteryPot_ = 0;\n    uint256 public keyRevealFee_ = 0.2 ether;\n    uint256 public snapshotWinnerFee_ = 5 ether;\n\n    mapping (uint256 => Game) public games_;\n    \n    struct SnapshotKey {\n        uint256 timestamp;\n        uint256 count;\n    }\n    \n    struct Game {\n        address bankerAddress;\n        uint256 totalAmount;\n        uint gameTotalTime;\n        uint startTime;\n        uint endTime;\n        bytes32 winnerName;\n        address winnerAddress;\n        uint256 winnerNumber;\n        uint winnerTimestamp;\n        bytes32[] participantes;\n        mapping(uint256 => uint256) keys;\n        mapping(uint256 => SnapshotKey) snapshotKeys;\n        mapping(bytes32 => uint256[]) userKeys;\n    }\n    \n    // Internal Function\n\n    function returnTrueIfIsInterger(uint256 num)\n        internal\n        pure\n        returns (bool)\n    {\n        // Todo\n        if(num != 0) {\n            return (true);\n        }\n        return (false);\n    }\n\n    function min(uint256[] data)\n        internal\n        pure\n        returns (uint256) \n    {\n        if(data.length == 0) {\n            return 0;\n        }\n        uint256 minimal = data[0];\n        for(uint256 i;i < data.length;i++){\n            if(data[i] < minimal){\n                minimal = data[i];\n            }\n        }\n        return minimal;\n    }\n    \n    function playLottry()\n        internal\n        returns(bool)\n    {\n        address depositPerson = msg.sender;\n        if(random() > 50) {\n            PlayerBook.deposit.value(currentLotteryPot_)(depositPerson);\n            currentLotteryPot_ = 0;\n            return (true);\n            emit onLotteryWin(\n                depositPerson,\n                PlayerBook.getPlayerName(depositPerson),\n                block.timestamp,\n                currentLotteryPot_\n            );\n        }\n        return (false);\n    }\n    \n    function moneyDistribution(\n        uint256 _gameRound,\n        uint256 _amount,\n        address _personAddress\n    )\n        internal\n    {\n        uint256 depositAmount = _amount;\n        uint256 portionAmount = depositAmount.div(10);\n        \n        uint256 goOutAmount = portionAmount;\n        uint256 gameLotteryPotAmount = portionAmount;\n        uint256 gameWinningPotAmount = depositAmount.sub(goOutAmount).sub(gameLotteryPotAmount);\n        \n        games_[_gameRound].totalAmount = games_[_gameRound].totalAmount.add(gameWinningPotAmount);\n        currentLotteryPot_ = currentLotteryPot_.add(gameLotteryPotAmount);\n        PlayerBook.deposit.value(goOutAmount)(_personAddress);\n    }\n    \n    function currentWinner(uint256 _gameRound)\n        internal\n        view\n        returns (\n            bytes32,\n            uint256\n        )\n    {   \n        bytes32 tempWinner;\n        uint256 tempWinningNumber;\n        Game storage currentGame = games_[_gameRound];\n        bytes32[] memory participantes = currentGame.participantes;\n        for (uint i = 0; i < participantes.length; i++) {\n            uint256[] memory tempUserKeys = currentGame.userKeys[participantes[i]];\n            for(uint o = 0; o < tempUserKeys.length; o++) {\n                uint256 targetKey = tempUserKeys[o];\n                bool countIsOne = currentGame.keys[targetKey] == 1;\n                if(\n                    (tempWinningNumber == 0 && countIsOne == true) ||\n                    (tempWinningNumber == 0 && countIsOne == true && targetKey < tempWinningNumber)\n                ) {\n                    tempWinningNumber = targetKey;\n                    tempWinner = participantes[i];\n                }\n            }\n        }\n        return (\n            tempWinner,\n            tempWinningNumber\n        );\n    }\n    \n    function random() internal view returns (uint8) {\n        return uint8(uint256(keccak256(abi.encodePacked(block.timestamp, block.difficulty)))%100);\n    }\n    \n    // Read Only Function\n\n    function getCurrentFinishGameReward(uint256 _gameRound)\n        public\n        view\n        returns (\n            uint256\n        )\n    {\n        Game memory targetGame = games_[_gameRound];\n        \n        return (\n            targetGame.totalAmount.div(10)\n        );\n    }\n    \n    function getKeysSnapshotCount(uint256 _gameRound, uint256 _key)\n        public\n        view\n        returns(\n            uint256,\n            uint256\n        )\n    {\n        return (\n            games_[_gameRound].snapshotKeys[_key].timestamp,\n            games_[_gameRound].snapshotKeys[_key].count\n        );\n    }\n    \n    function getSnapshotWinner(uint256 _gameRound)\n        public\n        view\n        returns (\n            uint,\n            bytes32,\n            uint256\n        )\n    {\n        Game storage currentGame = games_[_gameRound];\n        return (\n            currentGame.winnerTimestamp,\n            currentGame.winnerName,\n            currentGame.winnerNumber    \n        );\n    }   \n    \n    // Payable Function\n\n    function finishGame(uint256 _gameRound)\n        public\n        isRegisteredUser\n        payable\n    {\n        Game storage targetGame = games_[_gameRound];\n        address defaultAddress;\n        require(targetGame.endTime <= block.timestamp, \"Game yet to be finished\");\n        require(targetGame.winnerAddress != defaultAddress, \"Winner has been claimed\");\n        (uint256 rewardAmount) = getCurrentFinishGameReward(_gameRound);\n        PlayerBook.deposit.value(rewardAmount)(targetGame.winnerAddress);\n    }\n\n    function startGame()\n      public\n      isRegisteredUser\n      meetDepositRequirement(gameActivationFee_)\n      payable\n    {\n        address bankerAddress = msg.sender;\n        uint256 depositAmount = msg.value;\n\n        totalGameCount_++;\n        games_[totalGameCount_].bankerAddress = bankerAddress;\n    \n        moneyDistribution(\n            totalGameCount_,\n            depositAmount,\n            bankerAddress\n        );\n        \n        games_[totalGameCount_].gameTotalTime = 12 hours;\n        games_[totalGameCount_].startTime = now;\n        games_[totalGameCount_].endTime = now + 12 hours;\n\n        emit onGameStart(\n            bankerAddress,\n            PlayerBook.getPlayerName(bankerAddress),\n            now,\n            games_[totalGameCount_].totalAmount,\n            totalGameCount_\n        );\n    }\n    \n    function snapshotKeys(uint256 _gameRound, uint256[] _keys)\n        public\n        isRegisteredUser\n        areIntegers(_keys)\n        meetDepositRequirement(keyRevealFee_.mul(_keys.length))\n        payable\n    {\n        Game storage currentGame = games_[_gameRound];\n        uint256 depositAmount = msg.value;\n        moneyDistribution(\n            _gameRound,\n            depositAmount,\n            currentGame.bankerAddress\n        );\n\n        for (uint i = 0; i < _keys.length; i++) {\n            currentGame.snapshotKeys[_keys[i]].count = currentGame.keys[_keys[i]];\n            currentGame.snapshotKeys[_keys[i]].timestamp = block.timestamp;\n        }\n    }\n    \n    function buyKeys(uint256 _gameRound, uint256[] _keys)\n      public\n      isRegisteredUser\n      areIntegers(_keys)\n      meetDepositRequirement(keyPrice_.mul(_keys.length))\n      payable\n    {\n        address playerAddress = msg.sender;\n        uint256 depositAmount = msg.value;\n\n        Game storage currentGame = games_[_gameRound];\n        bytes32 userName = PlayerBook.getPlayerName(playerAddress);\n        \n        moneyDistribution(\n            _gameRound,\n            depositAmount,\n            currentGame.bankerAddress\n        );\n        \n        if(currentGame.userKeys[userName].length == 0) {\n            currentGame.participantes.push(userName);\n        }\n        \n        for (uint i = 0; i < _keys.length; i++) {\n            currentGame.userKeys[userName].push(_keys[i]);\n            currentGame.keys[_keys[i]]++;\n            playLottry();\n        }\n    }\n    \n    function snapshotWinner(uint256 _gameRound)\n        public\n        isRegisteredUser\n        meetDepositRequirement(snapshotWinnerFee_)\n        payable\n    {\n        Game storage currentGame = games_[_gameRound];\n        uint256 depositAmount = msg.value;\n        moneyDistribution(\n            _gameRound,\n            depositAmount,\n            currentGame.bankerAddress\n        );\n        (bytes32 winnerName, uint256 winningNumber) = currentWinner(_gameRound);\n        currentGame.winnerName = winnerName;\n        currentGame.winnerNumber = winningNumber;\n        currentGame.winnerTimestamp = block.timestamp;\n    }\n    \n}\n",
  "sourcePath": "/Users/waynechiu/Desktop/dApp/contracts/NumberGame.sol",
  "compiler": {
    "name": "solc",
    "version": "0.4.24+commit.e67f0147.Emscripten.clang"
  },
  "schemaVersion": "2.0.1",
  "updatedAt": "2018-11-01T01:02:51.469Z"
}