{
  "contractName": "NumberGame",
  "abi": [
    {
      "constant": true,
      "inputs": [],
      "name": "keyPrice_",
      "outputs": [
        {
          "name": "",
          "type": "uint256"
        }
      ],
      "payable": false,
      "stateMutability": "view",
      "type": "function"
    },
    {
      "constant": true,
      "inputs": [],
      "name": "totalGameCount_",
      "outputs": [
        {
          "name": "",
          "type": "uint256"
        }
      ],
      "payable": false,
      "stateMutability": "view",
      "type": "function"
    },
    {
      "constant": true,
      "inputs": [],
      "name": "snapshotWinnerFee_",
      "outputs": [
        {
          "name": "",
          "type": "uint256"
        }
      ],
      "payable": false,
      "stateMutability": "view",
      "type": "function"
    },
    {
      "constant": true,
      "inputs": [],
      "name": "keyRevealFee_",
      "outputs": [
        {
          "name": "",
          "type": "uint256"
        }
      ],
      "payable": false,
      "stateMutability": "view",
      "type": "function"
    },
    {
      "constant": true,
      "inputs": [
        {
          "name": "",
          "type": "uint256"
        }
      ],
      "name": "games_",
      "outputs": [
        {
          "name": "bankerAddress",
          "type": "address"
        },
        {
          "name": "totalAmount",
          "type": "uint256"
        },
        {
          "name": "gameTotalTime",
          "type": "uint256"
        },
        {
          "name": "startTime",
          "type": "uint256"
        },
        {
          "name": "endTime",
          "type": "uint256"
        },
        {
          "components": [
            {
              "name": "timestamp",
              "type": "uint256"
            },
            {
              "name": "number",
              "type": "uint256"
            },
            {
              "name": "name",
              "type": "bytes32"
            }
          ],
          "name": "winner",
          "type": "tuple"
        }
      ],
      "payable": false,
      "stateMutability": "view",
      "type": "function"
    },
    {
      "constant": true,
      "inputs": [],
      "name": "gameActivationFee_",
      "outputs": [
        {
          "name": "",
          "type": "uint256"
        }
      ],
      "payable": false,
      "stateMutability": "view",
      "type": "function"
    },
    {
      "constant": true,
      "inputs": [],
      "name": "currentLottryPot_",
      "outputs": [
        {
          "name": "",
          "type": "uint256"
        }
      ],
      "payable": false,
      "stateMutability": "view",
      "type": "function"
    },
    {
      "anonymous": false,
      "inputs": [
        {
          "indexed": true,
          "name": "playerAddress",
          "type": "address"
        },
        {
          "indexed": true,
          "name": "playerName",
          "type": "bytes32"
        },
        {
          "indexed": false,
          "name": "timeStamp",
          "type": "uint256"
        },
        {
          "indexed": false,
          "name": "winningAmount",
          "type": "uint256"
        }
      ],
      "name": "onLotteryWin",
      "type": "event"
    },
    {
      "anonymous": false,
      "inputs": [
        {
          "indexed": true,
          "name": "bankerAddress",
          "type": "address"
        },
        {
          "indexed": true,
          "name": "bankerName",
          "type": "bytes32"
        },
        {
          "indexed": false,
          "name": "timeStamp",
          "type": "uint256"
        },
        {
          "indexed": false,
          "name": "initialAmount",
          "type": "uint256"
        },
        {
          "indexed": false,
          "name": "round",
          "type": "uint256"
        }
      ],
      "name": "onGameStart",
      "type": "event"
    },
    {
      "constant": false,
      "inputs": [],
      "name": "startGame",
      "outputs": [
        {
          "name": "",
          "type": "bool"
        }
      ],
      "payable": true,
      "stateMutability": "payable",
      "type": "function"
    },
    {
      "constant": true,
      "inputs": [
        {
          "name": "_gameRound",
          "type": "uint256"
        },
        {
          "name": "_key",
          "type": "uint256"
        }
      ],
      "name": "getKeysSnapshotCount",
      "outputs": [
        {
          "name": "",
          "type": "uint256"
        },
        {
          "name": "",
          "type": "uint256"
        }
      ],
      "payable": false,
      "stateMutability": "view",
      "type": "function"
    },
    {
      "constant": false,
      "inputs": [
        {
          "name": "_gameRound",
          "type": "uint256"
        },
        {
          "name": "_keys",
          "type": "uint256[]"
        }
      ],
      "name": "snapshotKeys",
      "outputs": [],
      "payable": true,
      "stateMutability": "payable",
      "type": "function"
    },
    {
      "constant": false,
      "inputs": [
        {
          "name": "_gameRound",
          "type": "uint256"
        }
      ],
      "name": "snapshotWinner",
      "outputs": [],
      "payable": true,
      "stateMutability": "payable",
      "type": "function"
    },
    {
      "constant": false,
      "inputs": [
        {
          "name": "_gameRound",
          "type": "uint256"
        },
        {
          "name": "_keys",
          "type": "uint256[]"
        }
      ],
      "name": "buyKeys",
      "outputs": [],
      "payable": true,
      "stateMutability": "payable",
      "type": "function"
    },
    {
      "constant": true,
      "inputs": [],
      "name": "random",
      "outputs": [
        {
          "name": "",
          "type": "uint8"
        }
      ],
      "payable": false,
      "stateMutability": "view",
      "type": "function"
    }
  ],
  "bytecode": "0x60806040526706f05b59d3b20000600055670de0b6b3a7640000600155600060025560006003556702c68af0bb140000600455674563918244f4000060055534801561004a57600080fd5b506116e68061005a6000396000f3006080604052600436106100c5576000357c0100000000000000000000000000000000000000000000000000000000900463ffffffff16806328078143146100ca5780633a610fec1461012d5780635ec01e4d146101585780636b973f5514610189578063736aab16146101b457806391a7a52714610206578063c3b4657e14610231578063c74004b014610251578063d52412791461027c578063d65ab5f21461030c578063e8cd7bac1461032e578063ed2ec05014610359578063ff3483e514610384575b600080fd5b61012b60048036038101908080359060200190929190803590602001908201803590602001908080602002602001604051908101604052809392919081815260200183836020028082843782019150505050505091929192905050506103e7565b005b34801561013957600080fd5b506101426106b9565b6040518082815260200191505060405180910390f35b34801561016457600080fd5b5061016d6106bf565b604051808260ff1660ff16815260200191505060405180910390f35b34801561019557600080fd5b5061019e610760565b6040518082815260200191505060405180910390f35b3480156101c057600080fd5b506101e96004803603810190808035906020019092919080359060200190929190505050610766565b604051808381526020018281526020019250505060405180910390f35b34801561021257600080fd5b5061021b6107ca565b6040518082815260200191505060405180910390f35b61024f600480360381019080803590602001909291905050506107d0565b005b34801561025d57600080fd5b50610266610a29565b6040518082815260200191505060405180910390f35b34801561028857600080fd5b506102a760048036038101908080359060200190929190505050610a2f565b604051808773ffffffffffffffffffffffffffffffffffffffff1673ffffffffffffffffffffffffffffffffffffffff168152602001868152602001858152602001848152602001838152602001828152602001965050505050505060405180910390f35b610314610abc565b604051808215151515815260200191505060405180910390f35b34801561033a57600080fd5b50610343610ee0565b6040518082815260200191505060405180910390f35b34801561036557600080fd5b5061036e610ee6565b6040518082815260200191505060405180910390f35b6103e56004803603810190808035906020019092919080359060200190820180359060200190808060200260200160405190810160405280939291908181526020018383602002808284378201915050505050509192919290505050610eec565b005b6000806000738a9a728f64e58db7e790f099bddb3416ccc2eb7773ffffffffffffffffffffffffffffffffffffffff1663e18d38ce336040518263ffffffff167c0100000000000000000000000000000000000000000000000000000000028152600401808273ffffffffffffffffffffffffffffffffffffffff1673ffffffffffffffffffffffffffffffffffffffff168152602001915050602060405180830381600087803b15801561049b57600080fd5b505af11580156104af573d6000803e3d6000fd5b505050506040513d60208110156104c557600080fd5b810190808051906020019092919050505092507f3000000000000000000000000000000000000000000000000000000000000000836000191614151515610574576040517f08c379a00000000000000000000000000000000000000000000000000000000081526004018080602001828103825260138152602001807f7573657220646f6573206e6f742065786973740000000000000000000000000081525060200191505060405180910390fd5b60045434101515156105ee576040517f08c379a00000000000000000000000000000000000000000000000000000000081526004018080602001828103825260108152602001807f4e6f7420656e6f756768206d6f6e65790000000000000000000000000000000081525060200191505060405180910390fd5b600660008681526020019081526020016000209150600090505b83518110156106b257816009016000858381518110151561062557fe5b9060200190602002015181526020019081526020016000205482600a016000868481518110151561065257fe5b906020019060200201518152602001908152602001600020600101819055504282600a016000868481518110151561068657fe5b906020019060200201518152602001908152602001600020600001819055508080600101915050610608565b5050505050565b60005481565b60006064424460405160200180838152602001828152602001925050506040516020818303038152906040526040518082805190602001908083835b60208310151561072057805182526020820191506020810190506020830392506106fb565b6001836020036101000a03801982511681845116808217855250505050505090500191505060405180910390206001900481151561075a57fe5b06905090565b60025481565b60008060066000858152602001908152602001600020600a0160008481526020019081526020016000206000015460066000868152602001908152602001600020600a01600085815260200190815260200160002060010154915091509250929050565b60055481565b600080600080738a9a728f64e58db7e790f099bddb3416ccc2eb7773ffffffffffffffffffffffffffffffffffffffff1663e18d38ce336040518263ffffffff167c0100000000000000000000000000000000000000000000000000000000028152600401808273ffffffffffffffffffffffffffffffffffffffff1673ffffffffffffffffffffffffffffffffffffffff168152602001915050602060405180830381600087803b15801561088557600080fd5b505af1158015610899573d6000803e3d6000fd5b505050506040513d60208110156108af57600080fd5b810190808051906020019092919050505093507f300000000000000000000000000000000000000000000000000000000000000084600019161415151561095e576040517f08c379a00000000000000000000000000000000000000000000000000000000081526004018080602001828103825260138152602001807f7573657220646f6573206e6f742065786973740000000000000000000000000081525060200191505060405180910390fd5b60055434101515156109d8576040517f08c379a00000000000000000000000000000000000000000000000000000000081526004018080602001828103825260108152602001807f4e6f7420656e6f756768206d6f6e65790000000000000000000000000000000081525060200191505060405180910390fd5b6006600086815260200190815260200160002092506109f685611362565b91509150818360050160020181600019169055508083600501600101819055504283600501600001819055505050505050565b60045481565b60066020528060005260406000206000915090508060000160009054906101000a900473ffffffffffffffffffffffffffffffffffffffff1690806001015490806002015490806003015490806004015490806005016060604051908101604052908160008201548152602001600182015481526020016002820154600019166000191681525050905086565b6000806000803392503491506001548210151515610b68576040517f08c379a00000000000000000000000000000000000000000000000000000000081526004018080602001828103825260268152602001807f756d6d2e2e2e2e2e2020796f75206861766520746f2070617920746865206e6181526020017f6d6520666565000000000000000000000000000000000000000000000000000081525060400191505060405180910390fd5b6002600081548092919060010191905055508260066000600254815260200190815260200160002060000160006101000a81548173ffffffffffffffffffffffffffffffffffffffff021916908373ffffffffffffffffffffffffffffffffffffffff160217905550610be5600a8361152b90919063ffffffff16565b600381905550610bff600a8361152b90919063ffffffff16565b9050738a9a728f64e58db7e790f099bddb3416ccc2eb7773ffffffffffffffffffffffffffffffffffffffff1663d0e30db0826040518263ffffffff167c01000000000000000000000000000000000000000000000000000000000281526004016020604051808303818588803b158015610c7957600080fd5b505af1158015610c8d573d6000803e3d6000fd5b50505050506040513d6020811015610ca457600080fd5b810190808051906020019092919050505050610cdd6008610ccf600a8561152b90919063ffffffff16565b61154c90919063ffffffff16565b60066000600254815260200190815260200160002060010154016006600060025481526020019081526020016000206001018190555061a8c060066000600254815260200190815260200160002060020181905550426006600060025481526020019081526020016000206003018190555061a8c0420160066000600254815260200190815260200160002060040181905550738a9a728f64e58db7e790f099bddb3416ccc2eb7773ffffffffffffffffffffffffffffffffffffffff1663e18d38ce846040518263ffffffff167c0100000000000000000000000000000000000000000000000000000000028152600401808273ffffffffffffffffffffffffffffffffffffffff1673ffffffffffffffffffffffffffffffffffffffff168152602001915050602060405180830381600087803b158015610e1f57600080fd5b505af1158015610e33573d6000803e3d6000fd5b505050506040513d6020811015610e4957600080fd5b8101908080519060200190929190505050600019168373ffffffffffffffffffffffffffffffffffffffff167fd2e3b044802ec7ace4d431ada5a537bceb8099d0b5c3c6d579a92365b5bf5766426006600060025481526020019081526020016000206001015460025460405180848152602001838152602001828152602001935050505060405180910390a36001935050505090565b60015481565b60035481565b6000806000806000806000806000339850600660008c81526020019081526020016000209750738a9a728f64e58db7e790f099bddb3416ccc2eb7773ffffffffffffffffffffffffffffffffffffffff1663e18d38ce8a6040518263ffffffff167c0100000000000000000000000000000000000000000000000000000000028152600401808273ffffffffffffffffffffffffffffffffffffffff1673ffffffffffffffffffffffffffffffffffffffff168152602001915050602060405180830381600087803b158015610fc157600080fd5b505af1158015610fd5573d6000803e3d6000fd5b505050506040513d6020811015610feb57600080fd5b810190808051906020019092919050505096506110148a5160005461154c90919063ffffffff16565b9550853411151561108d576040517f08c379a00000000000000000000000000000000000000000000000000000000081526004018080602001828103825260108152602001807f4e6f7420656e6f756768206d6f6e65790000000000000000000000000000000081525060200191505060405180910390fd5b6110a1600a3461158a90919063ffffffff16565b94506110ca60086110bc600a3461158a90919063ffffffff16565b61154c90919063ffffffff16565b93506110e0600a3461158a90919063ffffffff16565b9250738a9a728f64e58db7e790f099bddb3416ccc2eb7773ffffffffffffffffffffffffffffffffffffffff1663d0e30db0846040518263ffffffff167c01000000000000000000000000000000000000000000000000000000000281526004016020604051808303818588803b15801561115a57600080fd5b505af115801561116e573d6000803e3d6000fd5b50505050506040513d602081101561118557600080fd5b8101908080519060200190929190505050506111ac856003546115b490919063ffffffff16565b6003819055506111c98489600101546115b490919063ffffffff16565b8860010181905550600088600b016000896000191660001916815260200190815260200160002080549050141561122f57876008018790806001815401808255809150509060018203906000526020600020016000909192909190915090600019169055505b600091505b89518210156113555787600b01600088600019166000191681526020019081526020016000208a8381518110151561126857fe5b9060200190602002015190806001815401808255809150509060018203906000526020600020016000909192909190915055508760090160008b848151811015156112af57fe5b906020019060200201518152602001908152602001600020549050600081141561130a5760018860090160008c858151811015156112e957fe5b9060200190602002015181526020019081526020016000208190555061133f565b600181018860090160008c8581518110151561132257fe5b906020019060200201518152602001908152602001600020819055505b6113476115d5565b508180600101925050611234565b5050505050505050505050565b60008060008060006060600060606000600660008b81526020019081526020016000209450846008018054806020026020016040519081016040528092919081815260200182805480156113d957602002820191906000526020600020905b815460001916815260200190600101908083116113c1575b50505050509350600092505b83518310156115195784600b016000858581518110151561140257fe5b906020019060200201516000191660001916815260200190815260200160002080548060200260200160405190810160405280929190818152602001828054801561146c57602002820191906000526020600020905b815481526020019060010190808311611458575b50505050509150600090505b815181101561150c5785828281518110151561149057fe5b9060200190602002015111156114ff5781818151811015156114ae57fe5b90602001906020020151955083838151811015156114c857fe5b90602001906020020151965060018560090160008881526020019081526020016000205411156114fe5760009550600060010296505b5b8080600101915050611478565b82806001019350506113e5565b86869850985050505050505050915091565b60008083831115151561153d57600080fd5b82840390508091505092915050565b60008060008414156115615760009150611583565b828402905082848281151561157257fe5b0414151561157f57600080fd5b8091505b5092915050565b60008060008311151561159c57600080fd5b82848115156115a757fe5b0490508091505092915050565b60008082840190508381101515156115cb57600080fd5b8091505092915050565b600060326115e16106bf565b60ff1611156116b257738a9a728f64e58db7e790f099bddb3416ccc2eb7773ffffffffffffffffffffffffffffffffffffffff1663d0e30db06003546040518263ffffffff167c01000000000000000000000000000000000000000000000000000000000281526004016020604051808303818588803b15801561166457600080fd5b505af1158015611678573d6000803e3d6000fd5b50505050506040513d602081101561168f57600080fd5b8101908080519060200190929190505050506000600381905550600190506116b7565b600090505b905600a165627a7a72305820c466c462c78d616d047b3688862aacf1bdf2220092df23948a12d4187ecb50020029",
  "source": "pragma solidity ^0.4.19;\n\n/**\n * @title SafeMath\n * @dev Math operations with safety checks that revert on error\n */\nlibrary SafeMath {\n\n  /**\n  * @dev Multiplies two numbers, reverts on overflow.\n  */\n    function mul(uint256 a, uint256 b) internal pure returns (uint256) {\n      // Gas optimization: this is cheaper than requiring 'a' not being zero, but the\n      // benefit is lost if 'b' is also tested.\n      // See: https://github.com/OpenZeppelin/openzeppelin-solidity/pull/522\n        if (a == 0) {\n            return 0;\n        }\n\n        uint256 c = a * b;\n        require(c / a == b);\n\n        return c;\n    }\n\n  /**\n  * @dev Integer division of two numbers truncating the quotient, reverts on division by zero.\n  */\n    function div(uint256 a, uint256 b) internal pure returns (uint256) {\n        require(b > 0); // Solidity only automatically asserts when dividing by 0\n        uint256 c = a / b;\n      // assert(a == b * c + a % b); // There is no case in which this doesn't hold\n\n        return c;\n    }\n\n  /**\n  * @dev Subtracts two numbers, reverts on overflow (i.e. if subtrahend is greater than minuend).\n  */\n    function sub(uint256 a, uint256 b) internal pure returns (uint256) {\n        require(b <= a);\n        uint256 c = a - b;\n\n        return c;\n    }\n\n  /**\n  * @dev Adds two numbers, reverts on overflow.\n  */\n    function add(uint256 a, uint256 b) internal pure returns (uint256) {\n        uint256 c = a + b;\n        require(c >= a);\n\n        return c;\n    }\n\n  /**\n  * @dev Divides two numbers and returns the remainder (unsigned integer modulo),\n  * reverts when dividing by zero.\n  */\n    function mod(uint256 a, uint256 b) internal pure returns (uint256) {\n        require(b != 0);\n        return a % b;\n    }\n}\n\n\ninterface PlayerBookInterface {\n    function getPlayerName(address _addr) external view returns(bytes32);\n    function deposit() external payable returns(bool);\n}\n\ncontract GameEvents {\n    event onLotteryWin\n    (\n        address indexed playerAddress,\n        bytes32 indexed playerName,\n        uint256 timeStamp,\n        uint256 winningAmount\n    );\n    event onGameStart\n    (\n        address indexed bankerAddress,\n        bytes32 indexed bankerName,\n        uint256 timeStamp,\n        uint256 initialAmount,\n        uint256 round\n    );\n}\n\n\ncontract NumberGame is GameEvents {\n    using SafeMath for uint256;\n    address constant playbookContractAddress_ = 0x8a9a728f64e58db7e790f099bddb3416ccc2eb77;\n\n    PlayerBookInterface constant private PlayerBook = PlayerBookInterface(playbookContractAddress_);\n\n    uint256 public keyPrice_ = 0.5 ether;\n    uint256 public gameActivationFee_ = 1 ether;\n    uint256 public totalGameCount_ = 0;\n    uint256 public currentLottryPot_ = 0;\n    uint256 public keyRevealFee_ = 0.2 ether;\n    uint256 public snapshotWinnerFee_ = 5 ether;\n\n    mapping (uint256 => Game) public games_;\n    \n    struct SnapshotKey {\n        uint256 timestamp;\n        uint256 count;\n    }\n    \n    struct Winner {\n        uint256 timestamp;\n        uint256 number;\n        bytes32 name;\n    }\n\n    struct Game {\n        address bankerAddress;\n        uint256 totalAmount;\n        uint gameTotalTime;\n        uint startTime;\n        uint endTime;\n        Winner winner;\n        bytes32[] participantes;\n        mapping(uint256 => uint256) keys;\n        mapping(uint256 => SnapshotKey) snapshotKeys;\n        mapping(bytes32 => uint256[]) userKeys;\n    }\n\n    function startGame()\n      public\n      payable\n      returns (bool)\n    {\n        address bankerAddress = msg.sender;\n        uint256 depositAmount = msg.value;\n        require (depositAmount >= gameActivationFee_, \"umm.....  you have to pay the name fee\");\n        totalGameCount_++;\n        games_[totalGameCount_].bankerAddress = bankerAddress;\n\n\n        currentLottryPot_ = depositAmount.sub(10);\n        uint256 goOutAmount = depositAmount.sub(10);\n        PlayerBook.deposit.value(goOutAmount)();\n\n        games_[totalGameCount_].totalAmount = games_[totalGameCount_].totalAmount + depositAmount.sub(10).mul(8);\n        \n        games_[totalGameCount_].gameTotalTime = 12 hours;\n        games_[totalGameCount_].startTime = now;\n        games_[totalGameCount_].endTime = now + 12 hours;\n\n        emit onGameStart(\n            bankerAddress,\n            PlayerBook.getPlayerName(bankerAddress),\n            now,\n            games_[totalGameCount_].totalAmount,\n            totalGameCount_\n        );\n        return (true);\n    }\n    \n    function getKeysSnapshotCount(uint256 _gameRound, uint256 _key)\n        public\n        view\n        returns(\n            uint256,\n            uint256\n        )\n    {\n        return (\n            games_[_gameRound].snapshotKeys[_key].timestamp,\n            games_[_gameRound].snapshotKeys[_key].count\n        );\n    }\n\n    function snapshotKeys(uint256 _gameRound ,uint256[] _keys)\n        public\n        payable\n    {\n        bytes32 userName = PlayerBook.getPlayerName(msg.sender);\n        require(userName != \"0\", \"user does not exist\");\n        require(msg.value >= keyRevealFee_, \"Not enough money\");\n        Game storage currentGame = games_[_gameRound];\n        for (uint i = 0; i < _keys.length; i++) {\n            currentGame.snapshotKeys[_keys[i]].count = currentGame.keys[_keys[i]];\n            currentGame.snapshotKeys[_keys[i]].timestamp = block.timestamp;\n        }\n    }\n    \n    function currentWinner(uint256 _gameRound)\n        internal\n        view\n        returns (\n            bytes32,\n            uint256\n        )\n    {   \n        bytes32 tempWinner;\n        uint256 tempWinningNumber;\n        Game storage currentGame = games_[_gameRound];\n        bytes32[] memory participantes = currentGame.participantes;\n        for (uint i = 0; i < participantes.length; i++) {\n            uint256[] memory tempUserKeys = currentGame.userKeys[participantes[i]];\n            for(uint o = 0; o < tempUserKeys.length; o++) {\n                if(tempUserKeys[o] > tempWinningNumber) {\n                    tempWinningNumber = tempUserKeys[o];\n                    tempWinner = participantes[i];\n                    if(currentGame.keys[tempWinningNumber] > 1) {\n                        tempWinningNumber = 0;\n                        tempWinner = 0x0000000000000000000000000000000000000000000000000000000000000000;\n                    }\n                }\n            }\n        }\n        return (\n            tempWinner,\n            tempWinningNumber\n        );\n    }\n    \n    function snapshotWinner(uint256 _gameRound)\n        public\n        payable\n    {\n        bytes32 userName = PlayerBook.getPlayerName(msg.sender);\n        require(userName != \"0\", \"user does not exist\");\n        require(msg.value >= snapshotWinnerFee_, \"Not enough money\");\n\n        Game storage currentGame = games_[_gameRound];\n        \n        (bytes32 winnerName, uint256 winningNumber) = currentWinner(_gameRound);\n        \n        currentGame.winner.name = winnerName;\n        currentGame.winner.number = winningNumber;\n        currentGame.winner.timestamp = block.timestamp;\n    }\n    \n    \n    \n\n    function buyKeys(uint256 _gameRound, uint256[] _keys)\n      public\n      payable\n    {\n        address playerAddress = msg.sender;\n        Game storage currentGame = games_[_gameRound];\n        bytes32 userName = PlayerBook.getPlayerName(playerAddress);\n        uint256 costTotalKeys = keyPrice_.mul(_keys.length);\n\n        require(msg.value > costTotalKeys, \"Not enough money\");\n        \n        uint256 lotteryMoney = msg.value.div(10);\n        uint256 winningAmount = msg.value.div(10).mul(8);\n        uint256 potPassingIncomeAmount = msg.value.div(10);\n        PlayerBook.deposit.value(potPassingIncomeAmount)();\n        currentLottryPot_ = currentLottryPot_.add(lotteryMoney);\n        currentGame.totalAmount = currentGame.totalAmount.add(winningAmount);\n        \n        \n        if(currentGame.userKeys[userName].length == 0) {\n            currentGame.participantes.push(userName);\n        }\n        \n        for (uint i = 0; i < _keys.length; i++) {\n            currentGame.userKeys[userName].push(_keys[i]);\n            uint256 keyCount = currentGame.keys[_keys[i]];\n\n            \n            if(keyCount == 0) {\n                // Create Key if is not exist\n                currentGame.keys[_keys[i]] = 1;\n            } else {\n                // Add Count if key exist\n                currentGame.keys[_keys[i]] = keyCount + 1;\n            }\n            \n            playLottry();\n        }\n    }\n\n    function random() public view returns (uint8) {\n        return uint8(uint256(keccak256(abi.encodePacked(block.timestamp, block.difficulty)))%100);\n    }\n    \n    function playLottry()\n        internal\n        returns(bool)\n    {\n        if(random() > 50) {\n            PlayerBook.deposit.value(currentLottryPot_)();\n            currentLottryPot_ = 0;\n            return (true);\n            emit onLotteryWin(\n                msg.sender,\n                PlayerBook.getPlayerName(msg.sender),\n                now,\n                currentLottryPot_\n            );\n        }\n        return (false);\n    }\n}\n",
  "sourcePath": "/Users/waynechiu/Desktop/dApp/contracts/Game.sol",
  "compiler": {
    "name": "solc",
    "version": "0.4.24+commit.e67f0147.Emscripten.clang"
  },
  "schemaVersion": "2.0.1",
  "updatedAt": "2018-10-24T20:58:22.002Z"
}