{
  "contractName": "NumberGame",
  "abi": [
    {
      "constant": true,
      "inputs": [],
      "name": "keyPrice_",
      "outputs": [
        {
          "name": "",
          "type": "uint256"
        }
      ],
      "payable": false,
      "stateMutability": "view",
      "type": "function"
    },
    {
      "constant": true,
      "inputs": [],
      "name": "currentLotteryPot_",
      "outputs": [
        {
          "name": "",
          "type": "uint256"
        }
      ],
      "payable": false,
      "stateMutability": "view",
      "type": "function"
    },
    {
      "constant": true,
      "inputs": [],
      "name": "totalGameCount_",
      "outputs": [
        {
          "name": "",
          "type": "uint256"
        }
      ],
      "payable": false,
      "stateMutability": "view",
      "type": "function"
    },
    {
      "constant": true,
      "inputs": [],
      "name": "snapshotWinnerFee_",
      "outputs": [
        {
          "name": "",
          "type": "uint256"
        }
      ],
      "payable": false,
      "stateMutability": "view",
      "type": "function"
    },
    {
      "constant": true,
      "inputs": [],
      "name": "keyRevealFee_",
      "outputs": [
        {
          "name": "",
          "type": "uint256"
        }
      ],
      "payable": false,
      "stateMutability": "view",
      "type": "function"
    },
    {
      "constant": true,
      "inputs": [
        {
          "name": "",
          "type": "uint256"
        }
      ],
      "name": "games_",
      "outputs": [
        {
          "name": "bankerAddress",
          "type": "address"
        },
        {
          "name": "totalAmount",
          "type": "uint256"
        },
        {
          "name": "gameTotalTime",
          "type": "uint256"
        },
        {
          "name": "startTime",
          "type": "uint256"
        },
        {
          "name": "endTime",
          "type": "uint256"
        },
        {
          "name": "winnerName",
          "type": "bytes32"
        },
        {
          "name": "winnerAddress",
          "type": "address"
        },
        {
          "name": "winnerNumber",
          "type": "uint256"
        },
        {
          "name": "winnerTimestamp",
          "type": "uint256"
        }
      ],
      "payable": false,
      "stateMutability": "view",
      "type": "function"
    },
    {
      "constant": true,
      "inputs": [],
      "name": "gameActivationFee_",
      "outputs": [
        {
          "name": "",
          "type": "uint256"
        }
      ],
      "payable": false,
      "stateMutability": "view",
      "type": "function"
    },
    {
      "anonymous": false,
      "inputs": [
        {
          "indexed": true,
          "name": "playerAddress",
          "type": "address"
        },
        {
          "indexed": true,
          "name": "playerName",
          "type": "bytes32"
        },
        {
          "indexed": false,
          "name": "timeStamp",
          "type": "uint256"
        },
        {
          "indexed": false,
          "name": "winningAmount",
          "type": "uint256"
        }
      ],
      "name": "onLotteryWin",
      "type": "event"
    },
    {
      "anonymous": false,
      "inputs": [
        {
          "indexed": true,
          "name": "bankerAddress",
          "type": "address"
        },
        {
          "indexed": true,
          "name": "bankerName",
          "type": "bytes32"
        },
        {
          "indexed": false,
          "name": "timeStamp",
          "type": "uint256"
        },
        {
          "indexed": false,
          "name": "initialAmount",
          "type": "uint256"
        },
        {
          "indexed": false,
          "name": "round",
          "type": "uint256"
        }
      ],
      "name": "onGameStart",
      "type": "event"
    },
    {
      "constant": true,
      "inputs": [
        {
          "name": "_gameRound",
          "type": "uint256"
        }
      ],
      "name": "getCurrentFinishGameReward",
      "outputs": [
        {
          "name": "",
          "type": "uint256"
        }
      ],
      "payable": false,
      "stateMutability": "view",
      "type": "function"
    },
    {
      "constant": true,
      "inputs": [
        {
          "name": "_gameRound",
          "type": "uint256"
        },
        {
          "name": "_key",
          "type": "uint256"
        }
      ],
      "name": "getKeysSnapshotCount",
      "outputs": [
        {
          "name": "",
          "type": "uint256"
        },
        {
          "name": "",
          "type": "uint256"
        }
      ],
      "payable": false,
      "stateMutability": "view",
      "type": "function"
    },
    {
      "constant": true,
      "inputs": [
        {
          "name": "_gameRound",
          "type": "uint256"
        }
      ],
      "name": "getSnapshotWinner",
      "outputs": [
        {
          "name": "",
          "type": "uint256"
        },
        {
          "name": "",
          "type": "bytes32"
        },
        {
          "name": "",
          "type": "uint256"
        },
        {
          "name": "",
          "type": "address"
        }
      ],
      "payable": false,
      "stateMutability": "view",
      "type": "function"
    },
    {
      "constant": false,
      "inputs": [
        {
          "name": "_gameRound",
          "type": "uint256"
        }
      ],
      "name": "finishGame",
      "outputs": [],
      "payable": true,
      "stateMutability": "payable",
      "type": "function"
    },
    {
      "constant": false,
      "inputs": [],
      "name": "startGame",
      "outputs": [],
      "payable": true,
      "stateMutability": "payable",
      "type": "function"
    },
    {
      "constant": false,
      "inputs": [
        {
          "name": "_gameRound",
          "type": "uint256"
        },
        {
          "name": "_keys",
          "type": "uint256[]"
        }
      ],
      "name": "snapshotKeys",
      "outputs": [],
      "payable": true,
      "stateMutability": "payable",
      "type": "function"
    },
    {
      "constant": false,
      "inputs": [
        {
          "name": "_gameRound",
          "type": "uint256"
        },
        {
          "name": "_keys",
          "type": "uint256[]"
        }
      ],
      "name": "buyKeys",
      "outputs": [],
      "payable": true,
      "stateMutability": "payable",
      "type": "function"
    },
    {
      "constant": false,
      "inputs": [
        {
          "name": "_gameRound",
          "type": "uint256"
        }
      ],
      "name": "snapshotWinner",
      "outputs": [],
      "payable": true,
      "stateMutability": "payable",
      "type": "function"
    }
  ],
  "bytecode": "0x60806040526706f05b59d3b20000600055670de0b6b3a7640000600155600060025560006003556702c68af0bb140000600455674563918244f4000060055534801561004a57600080fd5b5061241d8061005a6000396000f3006080604052600436106100db576000357c0100000000000000000000000000000000000000000000000000000000900463ffffffff16806328078143146100e05780633a610fec14610143578063426c08221461016e578063581cf073146101995780636b973f5514610223578063736aab161461024e57806391a7a527146102a0578063c2bdf8e1146102cb578063c3b4657e1461030c578063c74004b01461032c578063cfe186b214610357578063d524127914610377578063d65ab5f214610450578063e8cd7bac1461045a578063ff3483e514610485575b600080fd5b61014160048036038101908080359060200190929190803590602001908201803590602001908080602002602001604051908101604052809392919081815260200183836020028082843782019150505050505091929192905050506104e8565b005b34801561014f57600080fd5b506101586108b3565b6040518082815260200191505060405180910390f35b34801561017a57600080fd5b506101836108b9565b6040518082815260200191505060405180910390f35b3480156101a557600080fd5b506101c4600480360381019080803590602001909291905050506108bf565b6040518085815260200184600019166000191681526020018381526020018273ffffffffffffffffffffffffffffffffffffffff1673ffffffffffffffffffffffffffffffffffffffff16815260200194505050505060405180910390f35b34801561022f57600080fd5b50610238610920565b6040518082815260200191505060405180910390f35b34801561025a57600080fd5b506102836004803603810190808035906020019092919080359060200190929190505050610926565b604051808381526020018281526020019250505060405180910390f35b3480156102ac57600080fd5b506102b561098a565b6040518082815260200191505060405180910390f35b3480156102d757600080fd5b506102f660048036038101908080359060200190929190505050610990565b6040518082815260200191505060405180910390f35b61032a60048036038101908080359060200190929190505050610bc0565b005b34801561033857600080fd5b50610341610e8e565b6040518082815260200191505060405180910390f35b61037560048036038101908080359060200190929190505050610e94565b005b34801561038357600080fd5b506103a26004803603810190808035906020019092919050505061129d565b604051808a73ffffffffffffffffffffffffffffffffffffffff1673ffffffffffffffffffffffffffffffffffffffff16815260200189815260200188815260200187815260200186815260200185600019166000191681526020018473ffffffffffffffffffffffffffffffffffffffff1673ffffffffffffffffffffffffffffffffffffffff168152602001838152602001828152602001995050505050505050505060405180910390f35b61045861132b565b005b34801561046657600080fd5b5061046f611778565b6040518082815260200191505060405180910390f35b6104e6600480360381019080803590602001909291908035906020019082018035906020019080806020026020016040519081016040528093929190818152602001838360200280828437820191505050505050919291929050505061177e565b005b600080600080733bf4ad2241b63ea2d18237ff27868770608aea4e73ffffffffffffffffffffffffffffffffffffffff1663e18d38ce336040518263ffffffff167c0100000000000000000000000000000000000000000000000000000000028152600401808273ffffffffffffffffffffffffffffffffffffffff1673ffffffffffffffffffffffffffffffffffffffff168152602001915050602060405180830381600087803b15801561059d57600080fd5b505af11580156105b1573d6000803e3d6000fd5b505050506040513d60208110156105c757600080fd5b810190808051906020019092919050505090507f3000000000000000000000000000000000000000000000000000000000000000816000191614151515610676576040517f08c379a00000000000000000000000000000000000000000000000000000000081526004018080602001828103825260138152602001807f7573657220646f6573206e6f742065786973740000000000000000000000000081525060200191505060405180910390fd5b8460005b8151811015610724576106a3828281518110151561069457fe5b90602001906020020151611d12565b1515610717576040517f08c379a00000000000000000000000000000000000000000000000000000000081526004018080602001828103825260168152602001807f6e756d626572206d75737420626520696e74656765720000000000000000000081525060200191505060405180910390fd5b808060010191505061067a565b61073a8751600454611d3090919063ffffffff16565b8034101515156107b2576040517f08c379a000000000000000000000000000000000000000000000000000000000815260040180806020018281038252601d8152602001807f66656520646f6573206e6f74206d65657420726571756972656d656e7400000081525060200191505060405180910390fd5b600660008a815260200190815260200160002096503495506107f989878960000160009054906101000a900473ffffffffffffffffffffffffffffffffffffffff16611d6e565b600094505b87518510156108a85786600b016000898781518110151561081b57fe5b9060200190602002015181526020019081526020016000205487600c0160008a8881518110151561084857fe5b906020019060200201518152602001908152602001600020600101819055504287600c0160008a8881518110151561087c57fe5b9060200190602002015181526020019081526020016000206000018190555084806001019550506107fe565b505050505050505050565b60005481565b60035481565b60008060008060006006600087815260200190815260200160002090508060080154816005015482600701548360060160009054906101000a900473ffffffffffffffffffffffffffffffffffffffff169450945094509450509193509193565b60025481565b60008060066000858152602001908152602001600020600c0160008481526020019081526020016000206000015460066000868152602001908152602001600020600c01600085815260200190815260200160002060010154915091509250929050565b60055481565b600061099a612367565b6006600084815260200190815260200160002061016060405190810160405290816000820160009054906101000a900473ffffffffffffffffffffffffffffffffffffffff1673ffffffffffffffffffffffffffffffffffffffff1673ffffffffffffffffffffffffffffffffffffffff168152602001600182015481526020016002820154815260200160038201548152602001600482015481526020016005820154600019166000191681526020016006820160009054906101000a900473ffffffffffffffffffffffffffffffffffffffff1673ffffffffffffffffffffffffffffffffffffffff1673ffffffffffffffffffffffffffffffffffffffff168152602001600782015481526020016008820154815260200160098201805480602002602001604051908101604052809291908181526020018280548015610b0757602002820191906000526020600020905b81546000191681526020019060010190808311610aef575b50505050508152602001600a8201805480602002602001604051908101604052809291908181526020018280548015610b9557602002820191906000526020600020905b8160009054906101000a900473ffffffffffffffffffffffffffffffffffffffff1673ffffffffffffffffffffffffffffffffffffffff1681526020019060010190808311610b4b575b5050505050815250509050610bb8600a8260200151611f1090919063ffffffff16565b915050919050565b600080600080600080733bf4ad2241b63ea2d18237ff27868770608aea4e73ffffffffffffffffffffffffffffffffffffffff1663e18d38ce336040518263ffffffff167c0100000000000000000000000000000000000000000000000000000000028152600401808273ffffffffffffffffffffffffffffffffffffffff1673ffffffffffffffffffffffffffffffffffffffff168152602001915050602060405180830381600087803b158015610c7857600080fd5b505af1158015610c8c573d6000803e3d6000fd5b505050506040513d6020811015610ca257600080fd5b810190808051906020019092919050505090507f3000000000000000000000000000000000000000000000000000000000000000816000191614151515610d51576040517f08c379a00000000000000000000000000000000000000000000000000000000081526004018080602001828103825260138152602001807f7573657220646f6573206e6f742065786973740000000000000000000000000081525060200191505060405180910390fd5b600554803410151515610dcc576040517f08c379a000000000000000000000000000000000000000000000000000000000815260040180806020018281038252601d8152602001807f66656520646f6573206e6f74206d65657420726571756972656d656e7400000081525060200191505060405180910390fd5b600660008981526020019081526020016000209650349550610e1388878960000160009054906101000a900473ffffffffffffffffffffffffffffffffffffffff16611d6e565b610e1c88611f3a565b94509450945084876005018160001916905550828760060160006101000a81548173ffffffffffffffffffffffffffffffffffffffff021916908373ffffffffffffffffffffffffffffffffffffffff1602179055508387600701819055504287600801819055505050505050505050565b60045481565b600080600080733bf4ad2241b63ea2d18237ff27868770608aea4e73ffffffffffffffffffffffffffffffffffffffff1663e18d38ce336040518263ffffffff167c0100000000000000000000000000000000000000000000000000000000028152600401808273ffffffffffffffffffffffffffffffffffffffff1673ffffffffffffffffffffffffffffffffffffffff168152602001915050602060405180830381600087803b158015610f4957600080fd5b505af1158015610f5d573d6000803e3d6000fd5b505050506040513d6020811015610f7357600080fd5b810190808051906020019092919050505090507f3000000000000000000000000000000000000000000000000000000000000000816000191614151515611022576040517f08c379a00000000000000000000000000000000000000000000000000000000081526004018080602001828103825260138152602001807f7573657220646f6573206e6f742065786973740000000000000000000000000081525060200191505060405180910390fd5b600660008681526020019081526020016000209350428460040154111515156110b3576040517f08c379a00000000000000000000000000000000000000000000000000000000081526004018080602001828103825260178152602001807f47616d652079657420746f2062652066696e697368656400000000000000000081525060200191505060405180910390fd5b8273ffffffffffffffffffffffffffffffffffffffff168460060160009054906101000a900473ffffffffffffffffffffffffffffffffffffffff1673ffffffffffffffffffffffffffffffffffffffff161415151561117b576040517f08c379a00000000000000000000000000000000000000000000000000000000081526004018080602001828103825260178152602001807f57696e6e657220686173206265656e20636c61696d656400000000000000000081525060200191505060405180910390fd5b61118485610990565b9150733bf4ad2241b63ea2d18237ff27868770608aea4e73ffffffffffffffffffffffffffffffffffffffff1663f340fa01838660060160009054906101000a900473ffffffffffffffffffffffffffffffffffffffff166040518363ffffffff167c0100000000000000000000000000000000000000000000000000000000028152600401808273ffffffffffffffffffffffffffffffffffffffff1673ffffffffffffffffffffffffffffffffffffffff1681526020019150506020604051808303818588803b15801561125957600080fd5b505af115801561126d573d6000803e3d6000fd5b50505050506040513d602081101561128457600080fd5b8101908080519060200190929190505050505050505050565b60066020528060005260406000206000915090508060000160009054906101000a900473ffffffffffffffffffffffffffffffffffffffff16908060010154908060020154908060030154908060040154908060050154908060060160009054906101000a900473ffffffffffffffffffffffffffffffffffffffff16908060070154908060080154905089565b6000806000733bf4ad2241b63ea2d18237ff27868770608aea4e73ffffffffffffffffffffffffffffffffffffffff1663e18d38ce336040518263ffffffff167c0100000000000000000000000000000000000000000000000000000000028152600401808273ffffffffffffffffffffffffffffffffffffffff1673ffffffffffffffffffffffffffffffffffffffff168152602001915050602060405180830381600087803b1580156113df57600080fd5b505af11580156113f3573d6000803e3d6000fd5b505050506040513d602081101561140957600080fd5b810190808051906020019092919050505090507f30000000000000000000000000000000000000000000000000000000000000008160001916141515156114b8576040517f08c379a00000000000000000000000000000000000000000000000000000000081526004018080602001828103825260138152602001807f7573657220646f6573206e6f742065786973740000000000000000000000000081525060200191505060405180910390fd5b600154803410151515611533576040517f08c379a000000000000000000000000000000000000000000000000000000000815260040180806020018281038252601d8152602001807f66656520646f6573206e6f74206d65657420726571756972656d656e7400000081525060200191505060405180910390fd5b3393503492506002600081548092919060010191905055508360066000600254815260200190815260200160002060000160006101000a81548173ffffffffffffffffffffffffffffffffffffffff021916908373ffffffffffffffffffffffffffffffffffffffff1602179055506115af6002548486611d6e565b61a8c060066000600254815260200190815260200160002060020181905550426006600060025481526020019081526020016000206003018190555061a8c0420160066000600254815260200190815260200160002060040181905550733bf4ad2241b63ea2d18237ff27868770608aea4e73ffffffffffffffffffffffffffffffffffffffff1663e18d38ce856040518263ffffffff167c0100000000000000000000000000000000000000000000000000000000028152600401808273ffffffffffffffffffffffffffffffffffffffff1673ffffffffffffffffffffffffffffffffffffffff168152602001915050602060405180830381600087803b1580156116bb57600080fd5b505af11580156116cf573d6000803e3d6000fd5b505050506040513d60208110156116e557600080fd5b8101908080519060200190929190505050600019168473ffffffffffffffffffffffffffffffffffffffff167fd2e3b044802ec7ace4d431ada5a537bceb8099d0b5c3c6d579a92365b5bf5766426006600060025481526020019081526020016000206001015460025460405180848152602001838152602001828152602001935050505060405180910390a350505050565b60015481565b600080600080600080733bf4ad2241b63ea2d18237ff27868770608aea4e73ffffffffffffffffffffffffffffffffffffffff1663e18d38ce336040518263ffffffff167c0100000000000000000000000000000000000000000000000000000000028152600401808273ffffffffffffffffffffffffffffffffffffffff1673ffffffffffffffffffffffffffffffffffffffff168152602001915050602060405180830381600087803b15801561183657600080fd5b505af115801561184a573d6000803e3d6000fd5b505050506040513d602081101561186057600080fd5b810190808051906020019092919050505090507f300000000000000000000000000000000000000000000000000000000000000081600019161415151561190f576040517f08c379a00000000000000000000000000000000000000000000000000000000081526004018080602001828103825260138152602001807f7573657220646f6573206e6f742065786973740000000000000000000000000081525060200191505060405180910390fd5b8660005b81518110156119bd5761193c828281518110151561192d57fe5b90602001906020020151611d12565b15156119b0576040517f08c379a00000000000000000000000000000000000000000000000000000000081526004018080602001828103825260168152602001807f6e756d626572206d75737420626520696e74656765720000000000000000000081525060200191505060405180910390fd5b8080600101915050611913565b6119d38951600054611d3090919063ffffffff16565b803410151515611a4b576040517f08c379a000000000000000000000000000000000000000000000000000000000815260040180806020018281038252601d8152602001807f66656520646f6573206e6f74206d65657420726571756972656d656e7400000081525060200191505060405180910390fd5b339850349750600660008c81526020019081526020016000209650733bf4ad2241b63ea2d18237ff27868770608aea4e73ffffffffffffffffffffffffffffffffffffffff1663e18d38ce8a6040518263ffffffff167c0100000000000000000000000000000000000000000000000000000000028152600401808273ffffffffffffffffffffffffffffffffffffffff1673ffffffffffffffffffffffffffffffffffffffff168152602001915050602060405180830381600087803b158015611b1557600080fd5b505af1158015611b29573d6000803e3d6000fd5b505050506040513d6020811015611b3f57600080fd5b81019080805190602001909291905050509550611b818b898960000160009054906101000a900473ffffffffffffffffffffffffffffffffffffffff16611d6e565b600087600d0160008860001916600019168152602001908152602001600020805490501415611c47578660090186908060018154018082558091505090600182039060005260206000200160009091929091909150906000191690555086600a018990806001815401808255809150509060018203906000526020600020016000909192909190916101000a81548173ffffffffffffffffffffffffffffffffffffffff021916908373ffffffffffffffffffffffffffffffffffffffff160217905550505b600094505b8951851015611d055786600d01600087600019166000191681526020019081526020016000208a86815181101515611c8057fe5b90602001906020020151908060018154018082558091505090600182039060005260206000200160009091929091909150555086600b0160008b87815181101515611cc757fe5b90602001906020020151815260200190815260200160002060008154809291906001019190505550611cf7612163565b508480600101955050611c4c565b5050505050505050505050565b60008082141515611d265760019050611d2b565b600090505b919050565b6000806000841415611d455760009150611d67565b8284029050828482811515611d5657fe5b04141515611d6357600080fd5b8091505b5092915050565b6000806000806000869450611d8d600a86611f1090919063ffffffff16565b9350839250839150611dba82611dac858861228490919063ffffffff16565b61228490919063ffffffff16565b9050611de581600660008b8152602001908152602001600020600101546122a590919063ffffffff16565b600660008a815260200190815260200160002060010181905550611e14826003546122a590919063ffffffff16565b600381905550733bf4ad2241b63ea2d18237ff27868770608aea4e73ffffffffffffffffffffffffffffffffffffffff1663f340fa0184886040518363ffffffff167c0100000000000000000000000000000000000000000000000000000000028152600401808273ffffffffffffffffffffffffffffffffffffffff1673ffffffffffffffffffffffffffffffffffffffff1681526020019150506020604051808303818588803b158015611ec957600080fd5b505af1158015611edd573d6000803e3d6000fd5b50505050506040513d6020811015611ef457600080fd5b8101908080519060200190929190505050505050505050505050565b600080600083111515611f2257600080fd5b8284811515611f2d57fe5b0490508091505092915050565b60008060008060008060006060600060606000806000600660008f8152602001908152602001600020965086600901805480602002602001604051908101604052809291908181526020018280548015611fb757602002820191906000526020600020905b81546000191681526020019060010190808311611f9f575b50505050509550600094505b85518510156121495786600d0160008787815181101515611fe057fe5b906020019060200201516000191660001916815260200190815260200160002080548060200260200160405190810160405280929190818152602001828054801561204a57602002820191906000526020600020905b815481526020019060010190808311612036575b50505050509350600092505b835183101561213c57838381518110151561206d57fe5b906020019060200201519150600187600b016000848152602001908152602001600020541490506000891480156120a8575060011515811515145b806120ce57506000891480156120c2575060011515811515145b80156120cd57508882105b5b1561212f5781985085858151811015156120e457fe5b90602001906020020151995086600a018581548110151561210157fe5b9060005260206000200160009054906101000a900473ffffffffffffffffffffffffffffffffffffffff1697505b8280600101935050612056565b8480600101955050611fc3565b8989899c509c509c50505050505050505050509193909250565b60008033905060326121736122c6565b60ff16111561227b57733bf4ad2241b63ea2d18237ff27868770608aea4e73ffffffffffffffffffffffffffffffffffffffff1663f340fa01600354836040518363ffffffff167c0100000000000000000000000000000000000000000000000000000000028152600401808273ffffffffffffffffffffffffffffffffffffffff1673ffffffffffffffffffffffffffffffffffffffff1681526020019150506020604051808303818588803b15801561222d57600080fd5b505af1158015612241573d6000803e3d6000fd5b50505050506040513d602081101561225857600080fd5b810190808051906020019092919050505050600060038190555060019150612280565b600091505b5090565b60008083831115151561229657600080fd5b82840390508091505092915050565b60008082840190508381101515156122bc57600080fd5b8091505092915050565b60006064424460405160200180838152602001828152602001925050506040516020818303038152906040526040518082805190602001908083835b6020831015156123275780518252602082019150602081019050602083039250612302565b6001836020036101000a03801982511681845116808217855250505050505090500191505060405180910390206001900481151561236157fe5b06905090565b61016060405190810160405280600073ffffffffffffffffffffffffffffffffffffffff1681526020016000815260200160008152602001600081526020016000815260200160008019168152602001600073ffffffffffffffffffffffffffffffffffffffff1681526020016000815260200160008152602001606081526020016060815250905600a165627a7a72305820ceca6fd37eea8415363ee508f666fd1636b08c6640c1b4514db1978089e182b80029",
  "source": "pragma solidity ^0.4.23;\n\nimport \"./SafeMath.sol\";\n\ninterface PlayerBookInterface {\n    function getPlayerName(address _addr) external view returns(bytes32);\n    function deposit(address _addr) external payable returns(bool);\n}\n\ncontract GameEvents {\n    event onLotteryWin\n    (\n        address indexed playerAddress,\n        bytes32 indexed playerName,\n        uint256 timeStamp,\n        uint256 winningAmount\n    );\n    event onGameStart\n    (\n        address indexed bankerAddress,\n        bytes32 indexed bankerName,\n        uint256 timeStamp,\n        uint256 initialAmount,\n        uint256 round\n    );\n}\n\n\ncontract NumberGame is GameEvents {\n    using SafeMath for uint256;\n    address constant playbookContractAddress_ = 0x3bF4Ad2241B63EA2D18237FF27868770608AeA4E;\n\n    PlayerBookInterface constant private PlayerBook = PlayerBookInterface(playbookContractAddress_);\n    \n    modifier isRegisteredUser\n    {\n        bytes32 userName = PlayerBook.getPlayerName(msg.sender);\n        require(userName != \"0\", \"user does not exist\");\n        _;\n    }\n\n    modifier meetDepositRequirement(uint256 _fee)\n    {\n        require(msg.value >= _fee, \"fee does not meet requirement\");\n        _;\n    }\n\n    modifier areIntegers(uint256[] _num)\n    {\n        for(uint256 i;i < _num.length;i++){\n            require(returnTrueIfIsInterger(_num[i]), \"number must be integer\");\n        }\n        _;\n    }\n\n    modifier isInteger(uint256 _num)\n    {\n        require(returnTrueIfIsInterger(_num), \"number must be integer\");\n        _;\n    }\n\n    uint256 public keyPrice_ = 0.5 ether;\n    uint256 public gameActivationFee_ = 1 ether;\n    uint256 public totalGameCount_ = 0;\n    uint256 public currentLotteryPot_ = 0;\n    uint256 public keyRevealFee_ = 0.2 ether;\n    uint256 public snapshotWinnerFee_ = 5 ether;\n\n    mapping (uint256 => Game) public games_;\n    \n    struct SnapshotKey {\n        uint256 timestamp;\n        uint256 count;\n    }\n    \n    struct Game {\n        address bankerAddress;\n        uint256 totalAmount;\n        uint gameTotalTime;\n        uint startTime;\n        uint endTime;\n        bytes32 winnerName;\n        address winnerAddress;\n        uint256 winnerNumber;\n        uint winnerTimestamp;\n        bytes32[] participantes;\n        address[] participantesAddress;\n        mapping(uint256 => uint256) keys;\n        mapping(uint256 => SnapshotKey) snapshotKeys;\n        mapping(bytes32 => uint256[]) userKeys;\n    }\n\n    // Internal Function\n\n    function returnTrueIfIsInterger(uint256 num)\n        internal\n        pure\n        returns (bool)\n    {\n        // Todo\n        if(num != 0) {\n            return (true);\n        }\n        return (false);\n    }\n\n    function min(uint256[] data)\n        internal\n        pure\n        returns (uint256) \n    {\n        if(data.length == 0) {\n            return 0;\n        }\n        uint256 minimal = data[0];\n        for(uint256 i;i < data.length;i++){\n            if(data[i] < minimal){\n                minimal = data[i];\n            }\n        }\n        return minimal;\n    }\n    \n    function playLottry()\n        internal\n        returns(bool)\n    {\n        address depositPerson = msg.sender;\n        if(random() > 50) {\n            PlayerBook.deposit.value(currentLotteryPot_)(depositPerson);\n            currentLotteryPot_ = 0;\n            return (true);\n            emit onLotteryWin(\n                depositPerson,\n                PlayerBook.getPlayerName(depositPerson),\n                block.timestamp,\n                currentLotteryPot_\n            );\n        }\n        return (false);\n    }\n    \n    function moneyDistribution(\n        uint256 _gameRound,\n        uint256 _amount,\n        address _personAddress\n    )\n        internal\n    {\n        uint256 depositAmount = _amount;\n        uint256 portionAmount = depositAmount.div(10);\n        \n        uint256 goOutAmount = portionAmount;\n        uint256 gameLotteryPotAmount = portionAmount;\n        uint256 gameWinningPotAmount = depositAmount.sub(goOutAmount).sub(gameLotteryPotAmount);\n        \n        games_[_gameRound].totalAmount = games_[_gameRound].totalAmount.add(gameWinningPotAmount);\n        currentLotteryPot_ = currentLotteryPot_.add(gameLotteryPotAmount);\n        PlayerBook.deposit.value(goOutAmount)(_personAddress);\n    }\n    \n    function currentWinner(uint256 _gameRound)\n        internal\n        view\n        returns (\n            bytes32,\n            uint256,\n            address\n        )\n    {   \n        bytes32 tempWinner;\n        uint256 tempWinningNumber;\n        address tempWinnerAddress;\n        Game storage currentGame = games_[_gameRound];\n        bytes32[] memory participantes = currentGame.participantes;\n        for (uint i = 0; i < participantes.length; i++) {\n            uint256[] memory tempUserKeys = currentGame.userKeys[participantes[i]];\n            for(uint o = 0; o < tempUserKeys.length; o++) {\n                uint256 targetKey = tempUserKeys[o];\n                bool countIsOne = currentGame.keys[targetKey] == 1;\n                if(\n                    (tempWinningNumber == 0 && countIsOne == true) ||\n                    (tempWinningNumber == 0 && countIsOne == true && targetKey < tempWinningNumber)\n                ) {\n                    tempWinningNumber = targetKey;\n                    tempWinner = participantes[i];\n                    tempWinnerAddress = currentGame.participantesAddress[i];\n                }\n            }\n        }\n        return (\n            tempWinner,\n            tempWinningNumber,\n            tempWinnerAddress\n        );\n    }\n    \n    function random() internal view returns (uint8) {\n        return uint8(uint256(keccak256(abi.encodePacked(block.timestamp, block.difficulty)))%100);\n    }\n    \n    // Read Only Function\n\n    function getCurrentFinishGameReward(uint256 _gameRound)\n        public\n        view\n        returns (\n            uint256\n        )\n    {\n        Game memory targetGame = games_[_gameRound];\n        \n        return (\n            targetGame.totalAmount.div(10)\n        );\n    }\n    \n    function getKeysSnapshotCount(uint256 _gameRound, uint256 _key)\n        public\n        view\n        returns(\n            uint256,\n            uint256\n        )\n    {\n        return (\n            games_[_gameRound].snapshotKeys[_key].timestamp,\n            games_[_gameRound].snapshotKeys[_key].count\n        );\n    }\n    \n    function getSnapshotWinner(uint256 _gameRound)\n        public\n        view\n        returns (\n            uint,\n            bytes32,\n            uint256,\n            address\n        )\n    {\n        Game storage currentGame = games_[_gameRound];\n        return (\n            currentGame.winnerTimestamp,\n            currentGame.winnerName,\n            currentGame.winnerNumber,\n            currentGame.winnerAddress\n        );\n    }   \n    \n    // Payable Function\n\n    function finishGame(uint256 _gameRound)\n        public\n        isRegisteredUser\n        payable\n    {\n        Game storage targetGame = games_[_gameRound];\n        address defaultAddress;\n        require(targetGame.endTime <= block.timestamp, \"Game yet to be finished\");\n        require(targetGame.winnerAddress != defaultAddress, \"Winner has been claimed\");\n        (uint256 rewardAmount) = getCurrentFinishGameReward(_gameRound);\n        PlayerBook.deposit.value(rewardAmount)(targetGame.winnerAddress);\n    }\n\n    function startGame()\n      public\n      isRegisteredUser\n      meetDepositRequirement(gameActivationFee_)\n      payable\n    {\n        address bankerAddress = msg.sender;\n        uint256 depositAmount = msg.value;\n\n        totalGameCount_++;\n        games_[totalGameCount_].bankerAddress = bankerAddress;\n    \n        moneyDistribution(\n            totalGameCount_,\n            depositAmount,\n            bankerAddress\n        );\n        \n        games_[totalGameCount_].gameTotalTime = 12 hours;\n        games_[totalGameCount_].startTime = now;\n        games_[totalGameCount_].endTime = now + 12 hours;\n\n        emit onGameStart(\n            bankerAddress,\n            PlayerBook.getPlayerName(bankerAddress),\n            now,\n            games_[totalGameCount_].totalAmount,\n            totalGameCount_\n        );\n    }\n    \n    function snapshotKeys(uint256 _gameRound, uint256[] _keys)\n        public\n        isRegisteredUser\n        areIntegers(_keys)\n        meetDepositRequirement(keyRevealFee_.mul(_keys.length))\n        payable\n    {\n        Game storage currentGame = games_[_gameRound];\n        uint256 depositAmount = msg.value;\n        moneyDistribution(\n            _gameRound,\n            depositAmount,\n            currentGame.bankerAddress\n        );\n\n        for (uint i = 0; i < _keys.length; i++) {\n            currentGame.snapshotKeys[_keys[i]].count = currentGame.keys[_keys[i]];\n            currentGame.snapshotKeys[_keys[i]].timestamp = block.timestamp;\n        }\n    }\n    \n    function buyKeys(uint256 _gameRound, uint256[] _keys)\n      public\n      isRegisteredUser\n      areIntegers(_keys)\n      meetDepositRequirement(keyPrice_.mul(_keys.length))\n      payable\n    {\n        address playerAddress = msg.sender;\n        uint256 depositAmount = msg.value;\n\n        Game storage currentGame = games_[_gameRound];\n        bytes32 userName = PlayerBook.getPlayerName(playerAddress);\n        \n        moneyDistribution(\n            _gameRound,\n            depositAmount,\n            currentGame.bankerAddress\n        );\n        \n        if(currentGame.userKeys[userName].length == 0) {\n            currentGame.participantes.push(userName);\n            currentGame.participantesAddress.push(playerAddress);\n        }\n        \n        for (uint i = 0; i < _keys.length; i++) {\n            currentGame.userKeys[userName].push(_keys[i]);\n            currentGame.keys[_keys[i]]++;\n            playLottry();\n        }\n    }\n    \n    function snapshotWinner(uint256 _gameRound)\n        public\n        isRegisteredUser\n        meetDepositRequirement(snapshotWinnerFee_)\n        payable\n    {\n        Game storage currentGame = games_[_gameRound];\n        uint256 depositAmount = msg.value;\n        moneyDistribution(\n            _gameRound,\n            depositAmount,\n            currentGame.bankerAddress\n        );\n        (bytes32 winnerName, uint256 winningNumber, address winnerAddress) = currentWinner(_gameRound);\n        currentGame.winnerName = winnerName;\n        currentGame.winnerAddress = winnerAddress;\n        currentGame.winnerNumber = winningNumber;\n        currentGame.winnerTimestamp = block.timestamp;\n    }\n    \n}\n",
  "sourcePath": "/Users/waynechiu/Desktop/dApp/contracts/NumberGame.sol",
  "compiler": {
    "name": "solc",
    "version": "0.4.24+commit.e67f0147.Emscripten.clang"
  },
  "schemaVersion": "2.0.1",
  "updatedAt": "2018-11-07T00:23:01.383Z"
}