{
  "contractName": "PlayerBook",
  "abi": [
    {
      "constant": true,
      "inputs": [
        {
          "name": "",
          "type": "address"
        }
      ],
      "name": "pIDxAddr_",
      "outputs": [
        {
          "name": "",
          "type": "uint256"
        }
      ],
      "payable": false,
      "stateMutability": "view",
      "type": "function"
    },
    {
      "constant": true,
      "inputs": [],
      "name": "registrationFee_",
      "outputs": [
        {
          "name": "",
          "type": "uint256"
        }
      ],
      "payable": false,
      "stateMutability": "view",
      "type": "function"
    },
    {
      "constant": true,
      "inputs": [],
      "name": "totalPlayerCount",
      "outputs": [
        {
          "name": "",
          "type": "uint256"
        }
      ],
      "payable": false,
      "stateMutability": "view",
      "type": "function"
    },
    {
      "constant": true,
      "inputs": [
        {
          "name": "",
          "type": "bytes32"
        }
      ],
      "name": "pIDxName_",
      "outputs": [
        {
          "name": "",
          "type": "uint256"
        }
      ],
      "payable": false,
      "stateMutability": "view",
      "type": "function"
    },
    {
      "constant": true,
      "inputs": [
        {
          "name": "",
          "type": "uint256"
        }
      ],
      "name": "plyr_",
      "outputs": [
        {
          "name": "addr",
          "type": "address"
        },
        {
          "name": "name",
          "type": "bytes32"
        },
        {
          "name": "laff",
          "type": "uint256"
        },
        {
          "name": "claimable",
          "type": "uint256"
        }
      ],
      "payable": false,
      "stateMutability": "view",
      "type": "function"
    },
    {
      "inputs": [],
      "payable": false,
      "stateMutability": "nonpayable",
      "type": "constructor"
    },
    {
      "anonymous": false,
      "inputs": [
        {
          "indexed": true,
          "name": "UserAddress",
          "type": "address"
        },
        {
          "indexed": true,
          "name": "userName",
          "type": "bytes32"
        }
      ],
      "name": "onNewUser",
      "type": "event"
    },
    {
      "constant": true,
      "inputs": [
        {
          "name": "_addr",
          "type": "address"
        }
      ],
      "name": "getPlayerName",
      "outputs": [
        {
          "name": "",
          "type": "bytes32"
        }
      ],
      "payable": false,
      "stateMutability": "view",
      "type": "function"
    },
    {
      "constant": false,
      "inputs": [
        {
          "name": "_nameString",
          "type": "bytes32"
        },
        {
          "name": "_affCode",
          "type": "uint256"
        }
      ],
      "name": "registerPlayer",
      "outputs": [
        {
          "name": "",
          "type": "bool"
        }
      ],
      "payable": true,
      "stateMutability": "payable",
      "type": "function"
    },
    {
      "constant": false,
      "inputs": [],
      "name": "deposit",
      "outputs": [
        {
          "name": "",
          "type": "bool"
        }
      ],
      "payable": true,
      "stateMutability": "payable",
      "type": "function"
    },
    {
      "constant": false,
      "inputs": [],
      "name": "claimMoney",
      "outputs": [],
      "payable": false,
      "stateMutability": "nonpayable",
      "type": "function"
    }
  ],
  "bytecode": "0x608060405260008055662386f26fc1000060015534801561001f57600080fd5b50336004600080815260200190815260200160002060000160006101000a81548173ffffffffffffffffffffffffffffffffffffffff021916908373ffffffffffffffffffffffffffffffffffffffff1602179055507f7761796e650000000000000000000000000000000000000000000000000000006004600080815260200190815260200160002060010181600019169055506000600260003373ffffffffffffffffffffffffffffffffffffffff1673ffffffffffffffffffffffffffffffffffffffff168152602001908152602001600020819055506000600360007f7761796e6500000000000000000000000000000000000000000000000000000060001916815260200190815260200160002081905550610934806101456000396000f300608060405260043610610099576000357c0100000000000000000000000000000000000000000000000000000000900463ffffffff16806310f01eba1461009e578063180603eb146100f557806326d541b0146101205780632e19ebdc1461014b5780636658e52b14610190578063d0e30db0146101a7578063d939e6e5146101c9578063de7874f31461020f578063e18d38ce14610299575b600080fd5b3480156100aa57600080fd5b506100df600480360381019080803573ffffffffffffffffffffffffffffffffffffffff1690602001909291905050506102f8565b6040518082815260200191505060405180910390f35b34801561010157600080fd5b5061010a610310565b6040518082815260200191505060405180910390f35b34801561012c57600080fd5b50610135610316565b6040518082815260200191505060405180910390f35b34801561015757600080fd5b5061017a600480360381019080803560001916906020019092919050505061031c565b6040518082815260200191505060405180910390f35b34801561019c57600080fd5b506101a5610334565b005b6101af610464565b604051808215151515815260200191505060405180910390f35b6101f56004803603810190808035600019169060200190929190803590602001909291905050506105c2565b604051808215151515815260200191505060405180910390f35b34801561021b57600080fd5b5061023a60048036038101908080359060200190929190505050610859565b604051808573ffffffffffffffffffffffffffffffffffffffff1673ffffffffffffffffffffffffffffffffffffffff168152602001846000191660001916815260200183815260200182815260200194505050505060405180910390f35b3480156102a557600080fd5b506102da600480360381019080803573ffffffffffffffffffffffffffffffffffffffff1690602001909291905050506108a9565b60405180826000191660001916815260200191505060405180910390f35b60026020528060005260406000206000915090505481565b60015481565b60005481565b60036020528060005260406000206000915090505481565b60008033915060046000600260008573ffffffffffffffffffffffffffffffffffffffff1673ffffffffffffffffffffffffffffffffffffffff1681526020019081526020016000205481526020019081526020016000209050600081600301541415151561040b576040517f08c379a000000000000000000000000000000000000000000000000000000000815260040180806020018281038252601d8152602001807f796f7520646f6e27742068617665206d6f6e657920746f20636c61696d00000081525060200191505060405180910390fd5b600081600301819055508173ffffffffffffffffffffffffffffffffffffffff166108fc82600301549081150290604051600060405180830381858888f1935050505015801561045f573d6000803e3d6000fd5b505050565b600080600080600080341115156104e3576040517f08c379a000000000000000000000000000000000000000000000000000000000815260040180806020018281038252600a8152602001807f6e656564206d6f6e65790000000000000000000000000000000000000000000081525060200191505060405180910390fd5b600a348115156104ef57fe5b049350339250600260008473ffffffffffffffffffffffffffffffffffffffff1673ffffffffffffffffffffffffffffffffffffffff1681526020019081526020016000205491506004600083815260200190815260200160002060020154905060008214151561059b578360046000838152602001908152602001600020600301819055508334036004600084815260200190815260200160002060030181905550600194506105bb565b346004600080815260200190815260200160002060030181905550600094505b5050505090565b6000806001543410151515610665576040517f08c379a00000000000000000000000000000000000000000000000000000000081526004018080602001828103825260268152602001807f756d6d2e2e2e2e2e2020796f75206861766520746f2070617920746865206e6181526020017f6d6520666565000000000000000000000000000000000000000000000000000081525060400191505060405180910390fd5b6000600360008660001916600019168152602001908152602001600020541415156106f8576040517f08c379a000000000000000000000000000000000000000000000000000000000815260040180806020018281038252601e8152602001807f736f7272792074686174206e616d657320616c72656164792074616b656e000081525060200191505060405180910390fd5b339050600080815480929190600101919050555080600460008054815260200190815260200160002060000160006101000a81548173ffffffffffffffffffffffffffffffffffffffff021916908373ffffffffffffffffffffffffffffffffffffffff1602179055508360046000805481526020019081526020016000206001018160001916905550600054600260008373ffffffffffffffffffffffffffffffffffffffff1673ffffffffffffffffffffffffffffffffffffffff16815260200190815260200160002081905550600054600360008660001916600019168152602001908152602001600020819055508260046000805481526020019081526020016000206002018190555083600019168173ffffffffffffffffffffffffffffffffffffffff167fc755c287bcb55f0ff9b7f1987e5b9fcf8e5b8c6e6fae7a664b5c5f589cb6283760405160405180910390a3600191505092915050565b60046020528060005260406000206000915090508060000160009054906101000a900473ffffffffffffffffffffffffffffffffffffffff16908060010154908060020154908060030154905084565b600060046000600260008573ffffffffffffffffffffffffffffffffffffffff1673ffffffffffffffffffffffffffffffffffffffff1681526020019081526020016000205481526020019081526020016000206001015490509190505600a165627a7a72305820ddd69338188fe495fba698ceb4566dd0a450f4a05a25bb726db00dadecaaeeae0029",
  "source": "pragma solidity ^0.4.19;\n\ncontract PlayerBookEvents {\n    event onNewUser\n    (\n        address indexed UserAddress,\n        bytes32 indexed userName\n    );\n}\n\ncontract PlayerBook is PlayerBookEvents {\n    uint256 public totalPlayerCount = 0;                    // total players\n    uint256 public registrationFee_ = 10 finney;            // price to register a name\n    mapping (address => uint256) public pIDxAddr_;          // (addr => pID) returns player id by address\n    mapping (bytes32 => uint256) public pIDxName_;          // (name => pID) returns player id by name\n    mapping (uint256 => Player) public plyr_;               // (pID => data) player data\n    \n    struct Player {\n        address addr;\n        bytes32 name;\n        uint256 laff;\n        uint256 claimable;\n    }\n    \n    constructor()\n        public\n    {\n        plyr_[0].addr = msg.sender;\n        plyr_[0].name = \"wayne\";\n        pIDxAddr_[msg.sender] = 0;\n        pIDxName_[\"wayne\"] = 0;\n    }\n\n    function getPlayerName(address _addr)\n        public\n        view\n        returns(bytes32)\n    {\n        return plyr_[pIDxAddr_[_addr]].name;\n    }\n    \n    function registerPlayer(bytes32 _nameString, uint256 _affCode)\n        public\n        payable\n        returns (bool)\n    {\n        // make sure name fees paid\n        require (msg.value >= registrationFee_, \"umm.....  you have to pay the name fee\");\n        \n        // make sure the name has not been used\n        require(pIDxName_[_nameString] == 0, \"sorry that names already taken\");\n        \n        // set up config\n        address _addr = msg.sender;\n        totalPlayerCount ++;\n        \n        plyr_[totalPlayerCount].addr = _addr;\n        plyr_[totalPlayerCount].name = _nameString;\n        pIDxAddr_[_addr] = totalPlayerCount;\n        pIDxName_[_nameString] = totalPlayerCount;\n        plyr_[totalPlayerCount].laff = _affCode;\n\n        emit onNewUser(\n            _addr,\n            _nameString\n        );\n\n        return (true);\n        \n    }\n    \n    function deposit()\n        public\n        payable\n        returns (bool)\n    {\n        require(msg.value > 0, \"need money\");\n        uint256 affiliationAmount = msg.value / 10;\n        address _addr = msg.sender;\n        uint256 _playerId = pIDxAddr_[_addr];\n        uint256 _affiliatePlayerId = plyr_[_playerId].laff;\n        // if the person who send money has registered\n        if(_playerId != 0) {\n            plyr_[_affiliatePlayerId].claimable = affiliationAmount;\n            plyr_[_playerId].claimable = msg.value - affiliationAmount;\n            return true;\n        }\n        plyr_[0].claimable = msg.value;\n        return false;\n    }\n    \n    function claimMoney()\n        public\n    {\n        address _addr = msg.sender;\n        Player storage player = plyr_[pIDxAddr_[_addr]];\n        require(player.claimable != 0, \"you don't have money to claim\");\n        player.claimable = 0;\n        _addr.transfer(player.claimable);\n    }\n}\n",
  "sourcePath": "/Users/waynechiu/Desktop/dApp/contracts/PlayerBook.sol",
  "compiler": {
    "name": "solc",
    "version": "0.4.24+commit.e67f0147.Emscripten.clang"
  },
  "schemaVersion": "2.0.1",
  "updatedAt": "2018-10-24T12:49:00.359Z"
}