{
  "contractName": "PlayerBook",
  "abi": [
    {
      "constant": true,
      "inputs": [
        {
          "name": "",
          "type": "address"
        }
      ],
      "name": "pIDxAddr_",
      "outputs": [
        {
          "name": "",
          "type": "uint256"
        }
      ],
      "payable": false,
      "stateMutability": "view",
      "type": "function"
    },
    {
      "constant": true,
      "inputs": [],
      "name": "registrationFee_",
      "outputs": [
        {
          "name": "",
          "type": "uint256"
        }
      ],
      "payable": false,
      "stateMutability": "view",
      "type": "function"
    },
    {
      "constant": true,
      "inputs": [],
      "name": "totalPlayerCount",
      "outputs": [
        {
          "name": "",
          "type": "uint256"
        }
      ],
      "payable": false,
      "stateMutability": "view",
      "type": "function"
    },
    {
      "constant": true,
      "inputs": [
        {
          "name": "",
          "type": "bytes32"
        }
      ],
      "name": "pIDxName_",
      "outputs": [
        {
          "name": "",
          "type": "uint256"
        }
      ],
      "payable": false,
      "stateMutability": "view",
      "type": "function"
    },
    {
      "constant": true,
      "inputs": [
        {
          "name": "",
          "type": "uint256"
        }
      ],
      "name": "plyr_",
      "outputs": [
        {
          "name": "addr",
          "type": "address"
        },
        {
          "name": "name",
          "type": "bytes32"
        },
        {
          "name": "laff",
          "type": "uint256"
        },
        {
          "name": "claimable",
          "type": "uint256"
        }
      ],
      "payable": false,
      "stateMutability": "view",
      "type": "function"
    },
    {
      "inputs": [],
      "payable": false,
      "stateMutability": "nonpayable",
      "type": "constructor"
    },
    {
      "anonymous": false,
      "inputs": [
        {
          "indexed": true,
          "name": "UserAddress",
          "type": "address"
        },
        {
          "indexed": true,
          "name": "userName",
          "type": "bytes32"
        }
      ],
      "name": "onNewUser",
      "type": "event"
    },
    {
      "constant": true,
      "inputs": [
        {
          "name": "_addr",
          "type": "address"
        }
      ],
      "name": "getPlayerName",
      "outputs": [
        {
          "name": "",
          "type": "bytes32"
        }
      ],
      "payable": false,
      "stateMutability": "view",
      "type": "function"
    },
    {
      "constant": false,
      "inputs": [
        {
          "name": "_nameString",
          "type": "bytes32"
        },
        {
          "name": "_affCode",
          "type": "uint256"
        }
      ],
      "name": "registerPlayer",
      "outputs": [],
      "payable": true,
      "stateMutability": "payable",
      "type": "function"
    },
    {
      "constant": false,
      "inputs": [],
      "name": "deposit",
      "outputs": [
        {
          "name": "",
          "type": "bool"
        }
      ],
      "payable": true,
      "stateMutability": "payable",
      "type": "function"
    },
    {
      "constant": false,
      "inputs": [],
      "name": "claimMoney",
      "outputs": [],
      "payable": false,
      "stateMutability": "nonpayable",
      "type": "function"
    }
  ],
  "bytecode": "0x608060405260008055662386f26fc1000060015534801561001f57600080fd5b50336004600080815260200190815260200160002060000160006101000a81548173ffffffffffffffffffffffffffffffffffffffff021916908373ffffffffffffffffffffffffffffffffffffffff1602179055507f7761796e650000000000000000000000000000000000000000000000000000006004600080815260200190815260200160002060010181600019169055506000600260003373ffffffffffffffffffffffffffffffffffffffff1673ffffffffffffffffffffffffffffffffffffffff168152602001908152602001600020819055506000600360007f7761796e65000000000000000000000000000000000000000000000000000000600019168152602001908152602001600020819055506108f7806101456000396000f300608060405260043610610099576000357c0100000000000000000000000000000000000000000000000000000000900463ffffffff16806310f01eba1461009e578063180603eb146100f557806326d541b0146101205780632e19ebdc1461014b5780636658e52b14610190578063d0e30db0146101a7578063d939e6e5146101c9578063de7874f3146101f7578063e18d38ce14610281575b600080fd5b3480156100aa57600080fd5b506100df600480360381019080803573ffffffffffffffffffffffffffffffffffffffff1690602001909291905050506102e0565b6040518082815260200191505060405180910390f35b34801561010157600080fd5b5061010a6102f8565b6040518082815260200191505060405180910390f35b34801561012c57600080fd5b506101356102fe565b6040518082815260200191505060405180910390f35b34801561015757600080fd5b5061017a6004803603810190808035600019169060200190929190505050610304565b6040518082815260200191505060405180910390f35b34801561019c57600080fd5b506101a561031c565b005b6101af61044c565b604051808215151515815260200191505060405180910390f35b6101f5600480360381019080803560001916906020019092919080359060200190929190505050610544565b005b34801561020357600080fd5b50610222600480360381019080803590602001909291905050506107b0565b604051808573ffffffffffffffffffffffffffffffffffffffff1673ffffffffffffffffffffffffffffffffffffffff168152602001846000191660001916815260200183815260200182815260200194505050505060405180910390f35b34801561028d57600080fd5b506102c2600480360381019080803573ffffffffffffffffffffffffffffffffffffffff169060200190929190505050610800565b60405180826000191660001916815260200191505060405180910390f35b60026020528060005260406000206000915090505481565b60015481565b60005481565b60036020528060005260406000206000915090505481565b60008033915060046000600260008573ffffffffffffffffffffffffffffffffffffffff1673ffffffffffffffffffffffffffffffffffffffff168152602001908152602001600020548152602001908152602001600020905060008160030154141515156103f3576040517f08c379a000000000000000000000000000000000000000000000000000000000815260040180806020018281038252601d8152602001807f796f7520646f6e27742068617665206d6f6e657920746f20636c61696d00000081525060200191505060405180910390fd5b8173ffffffffffffffffffffffffffffffffffffffff166108fc82600301549081150290604051600060405180830381858888f1935050505015801561043d573d6000803e3d6000fd5b50600081600301819055505050565b60008060008060008034945033935061046f600a8661085f90919063ffffffff16565b9250600260008573ffffffffffffffffffffffffffffffffffffffff1673ffffffffffffffffffffffffffffffffffffffff168152602001908152602001600020549150600460008381526020019081526020016000206002015490506104f583600460008481526020019081526020016000206003015461088990919063ffffffff16565b600460008381526020019081526020016000206003018190555061052283866108aa90919063ffffffff16565b6004600084815260200190815260200160002060030181905550505050505090565b60006001548034101515156105c1576040517f08c379a000000000000000000000000000000000000000000000000000000000815260040180806020018281038252601d8152602001807f66656520646f6573206e6f74206d65657420726571756972656d656e7400000081525060200191505060405180910390fd5b600060036000866000191660001916815260200190815260200160002054141515610654576040517f08c379a000000000000000000000000000000000000000000000000000000000815260040180806020018281038252601e8152602001807f736f7272792074686174206e616d657320616c72656164792074616b656e000081525060200191505060405180910390fd5b339150600080815480929190600101919050555081600460008054815260200190815260200160002060000160006101000a81548173ffffffffffffffffffffffffffffffffffffffff021916908373ffffffffffffffffffffffffffffffffffffffff1602179055508360046000805481526020019081526020016000206001018160001916905550600054600260008473ffffffffffffffffffffffffffffffffffffffff1673ffffffffffffffffffffffffffffffffffffffff16815260200190815260200160002081905550600054600360008660001916600019168152602001908152602001600020819055508260046000805481526020019081526020016000206002018190555083600019168273ffffffffffffffffffffffffffffffffffffffff167fc755c287bcb55f0ff9b7f1987e5b9fcf8e5b8c6e6fae7a664b5c5f589cb6283760405160405180910390a350505050565b60046020528060005260406000206000915090508060000160009054906101000a900473ffffffffffffffffffffffffffffffffffffffff16908060010154908060020154908060030154905084565b600060046000600260008573ffffffffffffffffffffffffffffffffffffffff1673ffffffffffffffffffffffffffffffffffffffff168152602001908152602001600020548152602001908152602001600020600101549050919050565b60008060008311151561087157600080fd5b828481151561087c57fe5b0490508091505092915050565b60008082840190508381101515156108a057600080fd5b8091505092915050565b6000808383111515156108bc57600080fd5b828403905080915050929150505600a165627a7a72305820e29e87f25e40c591936ef1fcf0635c74d00c4aad72672e269a9fd778fea901dd0029",
  "source": "pragma solidity ^0.4.19;\n\nimport \"./SafeMath.sol\";\n\ncontract PlayerBookEvents {\n    event onNewUser\n    (\n        address indexed UserAddress,\n        bytes32 indexed userName\n    );\n}\n\ncontract PlayerBook is PlayerBookEvents {\n    using SafeMath for uint256;\n\n    uint256 public totalPlayerCount = 0;                    // total players\n    uint256 public registrationFee_ = 10 finney;            // price to register a name\n    mapping (address => uint256) public pIDxAddr_;          // (addr => pID) returns player id by address\n    mapping (bytes32 => uint256) public pIDxName_;          // (name => pID) returns player id by name\n    mapping (uint256 => Player) public plyr_;               // (pID => data) player data\n    \n    struct Player {\n        address addr;\n        bytes32 name;\n        uint256 laff;\n        uint256 claimable;\n    }\n\n    modifier meetDepositRequirement(uint256 _fee)\n    {\n        require(msg.value >= _fee, \"fee does not meet requirement\");\n        _;\n    }\n    \n    constructor()\n        public\n    {\n        plyr_[0].addr = msg.sender;\n        plyr_[0].name = \"wayne\";\n        pIDxAddr_[msg.sender] = 0;\n        pIDxName_[\"wayne\"] = 0;\n    }\n\n    function getPlayerName(address _addr)\n        public\n        view\n        returns(bytes32)\n    {\n        return plyr_[pIDxAddr_[_addr]].name;\n    }\n    \n    function registerPlayer(bytes32 _nameString, uint256 _affCode)\n        public\n        meetDepositRequirement(registrationFee_)\n        payable\n    {\n        // make sure the name has not been used\n        require(pIDxName_[_nameString] == 0, \"sorry that names already taken\");\n\n        // set up config\n        address _addr = msg.sender;\n        totalPlayerCount ++;\n        \n        plyr_[totalPlayerCount].addr = _addr;\n        plyr_[totalPlayerCount].name = _nameString;\n        pIDxAddr_[_addr] = totalPlayerCount;\n        pIDxName_[_nameString] = totalPlayerCount;\n        plyr_[totalPlayerCount].laff = _affCode;\n\n        emit onNewUser(\n            _addr,\n            _nameString\n        );\n    }\n    \n    function deposit()\n        public\n        payable\n        returns (bool)\n    {\n        uint256 depositAmount = msg.value;\n        address depositUserAddress = msg.sender;\n\n        uint256 affiliationAmount = depositAmount.div(10);\n        \n        uint256 playerId = pIDxAddr_[depositUserAddress];\n        uint256 affiliatePlayerId = plyr_[playerId].laff;\n\n        plyr_[affiliatePlayerId].claimable = plyr_[affiliatePlayerId].claimable.add(affiliationAmount);\n        plyr_[playerId].claimable = depositAmount.sub(affiliationAmount);\n    }\n    \n    function claimMoney()\n        public\n    {\n        address user = msg.sender;\n        Player storage player = plyr_[pIDxAddr_[user]];\n        require(player.claimable != 0, \"you don't have money to claim\");\n        user.transfer(player.claimable);\n        player.claimable = 0;\n    }\n}\n",
  "sourcePath": "/Users/waynechiu/Desktop/dApp/contracts/PlayerBook.sol",
  "compiler": {
    "name": "solc",
    "version": "0.4.24+commit.e67f0147.Emscripten.clang"
  },
  "schemaVersion": "2.0.1",
  "updatedAt": "2018-10-30T01:57:36.386Z"
}