{
  "contractName": "QuickSort",
  "abi": [
    {
      "constant": true,
      "inputs": [
        {
          "name": "data",
          "type": "uint256[]"
        }
      ],
      "name": "sort",
      "outputs": [
        {
          "name": "",
          "type": "uint256[]"
        }
      ],
      "payable": false,
      "stateMutability": "view",
      "type": "function"
    }
  ],
  "bytecode": "0x6102b9610030600b82828239805160001a6073146000811461002057610022565bfe5b5030600052607381538281f3007300000000000000000000000000000000000000003014608060405260043610610058576000357c0100000000000000000000000000000000000000000000000000000000900463ffffffff1680639ec8b0261461005d575b600080fd5b6100b46004803603810190808035906020019082018035906020019080806020026020016040519081016040528093929190818152602001838360200280828437820191505050505050919291929050505061010b565b6040518080602001828103825283818151815260200191508051906020019060200280838360005b838110156100f75780820151818401526020810190506100dc565b505050509050019250505060405180910390f35b606061011d8260006001855103610125565b819050919050565b60008060008492508391508183141561013d57610285565b85600286860381151561014c57fe5b05860181518110151561015b57fe5b9060200190602002015190505b8183131515610254575b80868481518110151561018157fe5b90602001906020020151101561019e578280600101935050610172565b5b85828151811015156101ad57fe5b906020019060200201518110156101cc5781806001900392505061019f565b818313151561024f5785828151811015156101e357fe5b9060200190602002015186848151811015156101fb57fe5b90602001906020020151878581518110151561021357fe5b906020019060200201888581518110151561022a57fe5b9060200190602002018281525082815250505082806001019350508180600190039250505b610168565b8185121561026c57610267868684610125565b610285565b838312156102845761027f868486610125565b610285565b5b5050505050505600a165627a7a72305820296122a70edcd7a33aef19e478df8b72f599e8eff0b5831534c6668559932bea0029",
  "source": "pragma solidity ^0.4.19;\n\n/**\n * @title SafeMath\n * @dev Math operations with safety checks that revert on error\n */\nlibrary SafeMath {\n\n  /**\n  * @dev Multiplies two numbers, reverts on overflow.\n  */\n    function mul(uint256 a, uint256 b) internal pure returns (uint256) {\n      // Gas optimization: this is cheaper than requiring 'a' not being zero, but the\n      // benefit is lost if 'b' is also tested.\n      // See: https://github.com/OpenZeppelin/openzeppelin-solidity/pull/522\n        if (a == 0) {\n            return 0;\n        }\n\n        uint256 c = a * b;\n        require(c / a == b);\n\n        return c;\n    }\n\n  /**\n  * @dev Integer division of two numbers truncating the quotient, reverts on division by zero.\n  */\n    function div(uint256 a, uint256 b) internal pure returns (uint256) {\n        require(b > 0); // Solidity only automatically asserts when dividing by 0\n        uint256 c = a / b;\n      // assert(a == b * c + a % b); // There is no case in which this doesn't hold\n\n        return c;\n    }\n\n  /**\n  * @dev Subtracts two numbers, reverts on overflow (i.e. if subtrahend is greater than minuend).\n  */\n    function sub(uint256 a, uint256 b) internal pure returns (uint256) {\n        require(b <= a);\n        uint256 c = a - b;\n\n        return c;\n    }\n\n  /**\n  * @dev Adds two numbers, reverts on overflow.\n  */\n    function add(uint256 a, uint256 b) internal pure returns (uint256) {\n        uint256 c = a + b;\n        require(c >= a);\n\n        return c;\n    }\n\n  /**\n  * @dev Divides two numbers and returns the remainder (unsigned integer modulo),\n  * reverts when dividing by zero.\n  */\n    function mod(uint256 a, uint256 b) internal pure returns (uint256) {\n        require(b != 0);\n        return a % b;\n    }\n}\n\nlibrary QuickSort {\n    \n    function sort(uint[] data) public view returns(uint[]) {\n        quickSort(data, int(0), int(data.length - 1));\n        return data;\n    }\n    \n    function quickSort(uint[] memory arr, int left, int right) internal {\n        int i = left;\n        int j = right;\n        if(i==j) return;\n        uint pivot = arr[uint(left + (right - left) / 2)];\n        while (i <= j) {\n            while (arr[uint(i)] < pivot) i++;\n            while (pivot < arr[uint(j)]) j--;\n            if (i <= j) {\n                (arr[uint(i)], arr[uint(j)]) = (arr[uint(j)], arr[uint(i)]);\n                i++;\n                j--;\n            }\n        }\n        if (left < j) {\n            return quickSort(arr, left, j);\n        }\n            \n        if (i < right) {\n            return quickSort(arr, i, right);\n        }\n    }\n}\n\n\ninterface PlayerBookInterface {\n    function getPlayerName(address _addr) external view returns(bytes32);\n    function deposit() external payable returns(bool);\n}\n\ncontract GameEvents {\n    event onLotteryWin\n    (\n        address indexed playerAddress,\n        bytes32 indexed playerName,\n        uint256 timeStamp,\n        uint256 winningAmount\n    );\n    event onGameStart\n    (\n        address indexed bankerAddress,\n        bytes32 indexed bankerName,\n        uint256 timeStamp,\n        uint256 initialAmount,\n        uint256 round\n    );\n}\n\n\ncontract NumberGame is GameEvents {\n    using SafeMath for uint256;\n    address constant playbookContractAddress_ = 0xC6694f0CE510519D1ce454D7F77d10Ac866d4fEd;\n\n    PlayerBookInterface constant private PlayerBook = PlayerBookInterface(playbookContractAddress_);\n    \n    modifier isRegisteredUser\n    {\n        bytes32 userName = PlayerBook.getPlayerName(msg.sender);\n        require(userName != \"0\", \"user does not exist\");\n        _;\n    }\n\n    modifier meetDepositRequirement(uint256 _fee)\n    {\n        require(msg.value >= _fee, \"fee does not meet requirement\");\n        _;\n    }\n\n    uint256 public keyPrice_ = 0.5 ether;\n    uint256 public gameActivationFee_ = 1 ether;\n    uint256 public totalGameCount_ = 0;\n    uint256 public currentLottryPot_ = 0;\n    uint256 public keyRevealFee_ = 0.2 ether;\n    uint256 public snapshotWinnerFee_ = 5 ether;\n\n    mapping (uint256 => Game) public games_;\n    \n    struct SnapshotKey {\n        uint256 timestamp;\n        uint256 count;\n    }\n    \n    struct Game {\n        address bankerAddress;\n        uint256 totalAmount;\n        uint gameTotalTime;\n        uint startTime;\n        uint endTime;\n        bytes32 winnerName;\n        address winnerAddress;\n        uint256 winnerNumber;\n        uint winnerTimestamp;\n        bytes32[] participantes;\n        mapping(uint256 => uint256) keys;\n        mapping(uint256 => SnapshotKey) snapshotKeys;\n        mapping(bytes32 => uint256[]) userKeys;\n    }\n    \n    // Internal Function\n    \n    function playLottry()\n        internal\n        returns(bool)\n    {\n        if(random() > 50) {\n            PlayerBook.deposit.value(currentLottryPot_)();\n            currentLottryPot_ = 0;\n            return (true);\n            emit onLotteryWin(\n                msg.sender,\n                PlayerBook.getPlayerName(msg.sender),\n                now,\n                currentLottryPot_\n            );\n        }\n        return (false);\n    }\n    \n    function moneyDistribution(\n        uint256 _gameRound,\n        uint256 _amount\n    )\n        internal\n    {\n        uint256 depositAmount = _amount;\n        uint256 portionAmount = depositAmount.div(10);\n        \n        uint256 goOutAmount = portionAmount;\n        uint256 gameLotteryPotAmount = portionAmount;\n        uint256 gameWinningPotAmount = depositAmount.sub(portionAmount).sub(goOutAmount).sub(gameLotteryPotAmount);\n        \n        games_[_gameRound].totalAmount = games_[_gameRound].totalAmount + gameWinningPotAmount;\n        currentLottryPot_ = currentLottryPot_ + gameLotteryPotAmount;\n        PlayerBook.deposit.value(goOutAmount)();\n    }\n    \n    function currentWinner(uint256 _gameRound)\n        internal\n        view\n        returns (\n            bytes32,\n            uint256\n        )\n    {   \n        bytes32 tempWinner;\n        uint256 tempWinningNumber;\n        Game storage currentGame = games_[_gameRound];\n        bytes32[] memory participantes = currentGame.participantes;\n        for (uint i = 0; i < participantes.length; i++) {\n            uint256[] memory tempUserKeys = currentGame.userKeys[participantes[i]];\n            for(uint o = 0; o < tempUserKeys.length; o++) {\n                if(tempUserKeys[o] > tempWinningNumber) {\n                    tempWinningNumber = tempUserKeys[o];\n                    tempWinner = participantes[i];\n                    if(currentGame.keys[tempWinningNumber] > 1) {\n                        tempWinningNumber = 0;\n                        tempWinner = 0x0000000000000000000000000000000000000000000000000000000000000000;\n                    }\n                }\n            }\n        }\n        return (\n            tempWinner,\n            tempWinningNumber\n        );\n    }\n    \n    function random() internal view returns (uint8) {\n        return uint8(uint256(keccak256(abi.encodePacked(block.timestamp, block.difficulty)))%100);\n    }\n    \n    // Read Only Function\n\n    function getCurrentFinishGameReward(uint256 _gameRound)\n        public\n        view\n        returns (\n            uint256\n        )\n    {\n        Game memory targetGame = games_[_gameRound];\n        \n        return (\n            targetGame.totalAmount.div(10)\n        );\n    }\n    \n    function getKeysSnapshotCount(uint256 _gameRound, uint256 _key)\n        public\n        view\n        returns(\n            uint256,\n            uint256\n        )\n    {\n        return (\n            games_[_gameRound].snapshotKeys[_key].timestamp,\n            games_[_gameRound].snapshotKeys[_key].count\n        );\n    }\n    \n    function getSnapshotWinner(uint256 _gameRound)\n        public\n        view\n        returns (\n            uint,\n            bytes32,\n            uint256\n        )\n    {\n        Game storage currentGame = games_[_gameRound];\n        return (\n            currentGame.winnerTimestamp,\n            currentGame.winnerName,\n            currentGame.winnerNumber    \n        );\n    }   \n    \n    // Payable Function\n\n    function finishGame(uint256 _gameRound)\n        public\n        isRegisteredUser\n        payable\n    {\n        Game storage targetGame = games_[_gameRound];\n        address defaultAddress;\n        require(targetGame.endTime <= block.timestamp, \"Game yet to be finished\");\n        require(targetGame.winnerAddress != defaultAddress, \"Winner has been claimed\");\n        (uint256 rewardAmount) = getCurrentFinishGameReward(_gameRound);\n        PlayerBook.deposit.value(rewardAmount)();\n    }\n\n    function startGame()\n      public\n      isRegisteredUser\n      meetDepositRequirement(gameActivationFee_)\n      payable\n    {\n        address bankerAddress = msg.sender;\n        uint256 depositAmount = msg.value;\n\n        totalGameCount_++;\n        games_[totalGameCount_].bankerAddress = bankerAddress;\n    \n        moneyDistribution(totalGameCount_, depositAmount);\n        \n        games_[totalGameCount_].gameTotalTime = 12 hours;\n        games_[totalGameCount_].startTime = now;\n        games_[totalGameCount_].endTime = now + 12 hours;\n\n        emit onGameStart(\n            bankerAddress,\n            PlayerBook.getPlayerName(bankerAddress),\n            now,\n            games_[totalGameCount_].totalAmount,\n            totalGameCount_\n        );\n    }\n    \n    function snapshotKeys(uint256 _gameRound ,uint256[] _keys)\n        public\n        isRegisteredUser\n        meetDepositRequirement(keyRevealFee_.mul(_keys.length))\n        payable\n    {\n        Game storage currentGame = games_[_gameRound];\n        uint256 depositAmount = msg.value;\n        moneyDistribution(_gameRound, depositAmount);\n\n        for (uint i = 0; i < _keys.length; i++) {\n            currentGame.snapshotKeys[_keys[i]].count = currentGame.keys[_keys[i]];\n            currentGame.snapshotKeys[_keys[i]].timestamp = block.timestamp;\n        }\n    }\n    \n    function buyKeys(uint256 _gameRound, uint256[] _keys)\n      public\n      isRegisteredUser\n      meetDepositRequirement(keyPrice_.mul(_keys.length))\n      payable\n    {\n        address playerAddress = msg.sender;\n        Game storage currentGame = games_[_gameRound];\n        bytes32 userName = PlayerBook.getPlayerName(playerAddress);\n        \n        uint256 lotteryMoney = msg.value.div(10);\n        uint256 winningAmount = msg.value.div(10).mul(8);\n        uint256 potPassingIncomeAmount = msg.value.div(10);\n        PlayerBook.deposit.value(potPassingIncomeAmount)();\n        currentLottryPot_ = currentLottryPot_.add(lotteryMoney);\n        currentGame.totalAmount = currentGame.totalAmount.add(winningAmount);\n        \n        \n        if(currentGame.userKeys[userName].length == 0) {\n            currentGame.participantes.push(userName);\n        }\n        \n        for (uint i = 0; i < _keys.length; i++) {\n            currentGame.userKeys[userName].push(_keys[i]);\n            uint256 keyCount = currentGame.keys[_keys[i]];\n\n            \n            if(keyCount == 0) {\n                // Create Key if is not exist\n                currentGame.keys[_keys[i]] = 1;\n            } else {\n                // Add Count if key exist\n                currentGame.keys[_keys[i]] = keyCount + 1;\n            }\n            \n            playLottry();\n        }\n    }\n    \n    function snapshotWinner(uint256 _gameRound)\n        public\n        isRegisteredUser\n        meetDepositRequirement(snapshotWinnerFee_)\n        payable\n    {\n        Game storage currentGame = games_[_gameRound];\n        uint256 depositAmount = msg.value;\n        moneyDistribution(_gameRound, depositAmount);\n\n        (bytes32 winnerName, uint256 winningNumber) = currentWinner(_gameRound);\n\n        currentGame.winnerName = winnerName;\n        currentGame.winnerNumber = winningNumber;\n        currentGame.winnerTimestamp = block.timestamp;\n    }\n    \n}\n",
  "sourcePath": "/Users/waynechiu/Desktop/dApp/contracts/NumberGame.sol",
  "compiler": {
    "name": "solc",
    "version": "0.4.24+commit.e67f0147.Emscripten.clang"
  },
  "schemaVersion": "2.0.1",
  "updatedAt": "2018-10-25T03:34:46.845Z"
}