{
  "contractName": "TestContract",
  "abi": [
    {
      "constant": false,
      "inputs": [
        {
          "name": "_gameRound",
          "type": "uint256"
        },
        {
          "name": "_keys",
          "type": "uint256[]"
        }
      ],
      "name": "snapshotKeys",
      "outputs": [],
      "payable": true,
      "stateMutability": "payable",
      "type": "function"
    },
    {
      "constant": true,
      "inputs": [],
      "name": "keyPrice_",
      "outputs": [
        {
          "name": "",
          "type": "uint256"
        }
      ],
      "payable": false,
      "stateMutability": "view",
      "type": "function"
    },
    {
      "constant": true,
      "inputs": [
        {
          "name": "_gameRound",
          "type": "uint256"
        }
      ],
      "name": "getSnapshotWinner",
      "outputs": [
        {
          "name": "",
          "type": "uint256"
        },
        {
          "name": "",
          "type": "bytes32"
        },
        {
          "name": "",
          "type": "uint256"
        }
      ],
      "payable": false,
      "stateMutability": "view",
      "type": "function"
    },
    {
      "constant": true,
      "inputs": [],
      "name": "totalGameCount_",
      "outputs": [
        {
          "name": "",
          "type": "uint256"
        }
      ],
      "payable": false,
      "stateMutability": "view",
      "type": "function"
    },
    {
      "constant": true,
      "inputs": [
        {
          "name": "_gameRound",
          "type": "uint256"
        },
        {
          "name": "_key",
          "type": "uint256"
        }
      ],
      "name": "getKeysSnapshotCount",
      "outputs": [
        {
          "name": "",
          "type": "uint256"
        },
        {
          "name": "",
          "type": "uint256"
        }
      ],
      "payable": false,
      "stateMutability": "view",
      "type": "function"
    },
    {
      "constant": true,
      "inputs": [],
      "name": "snapshotWinnerFee_",
      "outputs": [
        {
          "name": "",
          "type": "uint256"
        }
      ],
      "payable": false,
      "stateMutability": "view",
      "type": "function"
    },
    {
      "constant": true,
      "inputs": [
        {
          "name": "_gameRound",
          "type": "uint256"
        }
      ],
      "name": "getCurrentFinishGameReward",
      "outputs": [
        {
          "name": "",
          "type": "uint256"
        }
      ],
      "payable": false,
      "stateMutability": "view",
      "type": "function"
    },
    {
      "constant": false,
      "inputs": [
        {
          "name": "_gameRound",
          "type": "uint256"
        }
      ],
      "name": "snapshotWinner",
      "outputs": [],
      "payable": true,
      "stateMutability": "payable",
      "type": "function"
    },
    {
      "constant": true,
      "inputs": [],
      "name": "keyRevealFee_",
      "outputs": [
        {
          "name": "",
          "type": "uint256"
        }
      ],
      "payable": false,
      "stateMutability": "view",
      "type": "function"
    },
    {
      "constant": false,
      "inputs": [
        {
          "name": "_gameRound",
          "type": "uint256"
        }
      ],
      "name": "finishGame",
      "outputs": [],
      "payable": true,
      "stateMutability": "payable",
      "type": "function"
    },
    {
      "constant": true,
      "inputs": [
        {
          "name": "",
          "type": "uint256"
        }
      ],
      "name": "games_",
      "outputs": [
        {
          "name": "bankerAddress",
          "type": "address"
        },
        {
          "name": "totalAmount",
          "type": "uint256"
        },
        {
          "name": "gameTotalTime",
          "type": "uint256"
        },
        {
          "name": "startTime",
          "type": "uint256"
        },
        {
          "name": "endTime",
          "type": "uint256"
        },
        {
          "name": "winnerName",
          "type": "bytes32"
        },
        {
          "name": "winnerAddress",
          "type": "address"
        },
        {
          "name": "winnerNumber",
          "type": "uint256"
        },
        {
          "name": "winnerTimestamp",
          "type": "uint256"
        }
      ],
      "payable": false,
      "stateMutability": "view",
      "type": "function"
    },
    {
      "constant": false,
      "inputs": [],
      "name": "startGame",
      "outputs": [],
      "payable": true,
      "stateMutability": "payable",
      "type": "function"
    },
    {
      "constant": true,
      "inputs": [],
      "name": "gameActivationFee_",
      "outputs": [
        {
          "name": "",
          "type": "uint256"
        }
      ],
      "payable": false,
      "stateMutability": "view",
      "type": "function"
    },
    {
      "constant": true,
      "inputs": [],
      "name": "currentLottryPot_",
      "outputs": [
        {
          "name": "",
          "type": "uint256"
        }
      ],
      "payable": false,
      "stateMutability": "view",
      "type": "function"
    },
    {
      "constant": false,
      "inputs": [
        {
          "name": "_gameRound",
          "type": "uint256"
        },
        {
          "name": "_keys",
          "type": "uint256[]"
        }
      ],
      "name": "buyKeys",
      "outputs": [],
      "payable": true,
      "stateMutability": "payable",
      "type": "function"
    },
    {
      "anonymous": false,
      "inputs": [
        {
          "indexed": true,
          "name": "playerAddress",
          "type": "address"
        },
        {
          "indexed": true,
          "name": "playerName",
          "type": "bytes32"
        },
        {
          "indexed": false,
          "name": "timeStamp",
          "type": "uint256"
        },
        {
          "indexed": false,
          "name": "winningAmount",
          "type": "uint256"
        }
      ],
      "name": "onLotteryWin",
      "type": "event"
    },
    {
      "anonymous": false,
      "inputs": [
        {
          "indexed": true,
          "name": "bankerAddress",
          "type": "address"
        },
        {
          "indexed": true,
          "name": "bankerName",
          "type": "bytes32"
        },
        {
          "indexed": false,
          "name": "timeStamp",
          "type": "uint256"
        },
        {
          "indexed": false,
          "name": "initialAmount",
          "type": "uint256"
        },
        {
          "indexed": false,
          "name": "round",
          "type": "uint256"
        }
      ],
      "name": "onGameStart",
      "type": "event"
    },
    {
      "constant": true,
      "inputs": [
        {
          "name": "nums",
          "type": "uint256[]"
        }
      ],
      "name": "testMin",
      "outputs": [
        {
          "name": "",
          "type": "uint256"
        }
      ],
      "payable": false,
      "stateMutability": "pure",
      "type": "function"
    }
  ],
  "bytecode": "0x60806040526706f05b59d3b20000600055670de0b6b3a7640000600155600060025560006003556702c68af0bb140000600455674563918244f4000060055534801561004a57600080fd5b5061234a8061005a6000396000f3006080604052600436106100e6576000357c0100000000000000000000000000000000000000000000000000000000900463ffffffff1680631936fb20146100eb57806328078143146101655780633a610fec146101c8578063581cf073146101f35780636b973f551461024a578063736aab161461027557806391a7a527146102c7578063c2bdf8e1146102f2578063c3b4657e14610333578063c74004b014610353578063cfe186b21461037e578063d52412791461039e578063d65ab5f214610477578063e8cd7bac14610481578063ed2ec050146104ac578063ff3483e5146104d7575b600080fd5b3480156100f757600080fd5b5061014f6004803603810190808035906020019082018035906020019080806020026020016040519081016040528093929190818152602001838360200280828437820191505050505050919291929050505061053a565b6040518082815260200191505060405180910390f35b6101c6600480360381019080803590602001909291908035906020019082018035906020019080806020026020016040519081016040528093929190818152602001838360200280828437820191505050505050919291929050505061054c565b005b3480156101d457600080fd5b506101dd6108f2565b6040518082815260200191505060405180910390f35b3480156101ff57600080fd5b5061021e600480360381019080803590602001909291905050506108f8565b604051808481526020018360001916600019168152602001828152602001935050505060405180910390f35b34801561025657600080fd5b5061025f610930565b6040518082815260200191505060405180910390f35b34801561028157600080fd5b506102aa6004803603810190808035906020019092919080359060200190929190505050610936565b604051808381526020018281526020019250505060405180910390f35b3480156102d357600080fd5b506102dc61099a565b6040518082815260200191505060405180910390f35b3480156102fe57600080fd5b5061031d600480360381019080803590602001909291905050506109a0565b6040518082815260200191505060405180910390f35b61035160048036038101908080359060200190929190505050610b42565b005b34801561035f57600080fd5b50610368610da4565b6040518082815260200191505060405180910390f35b61039c60048036038101908080359060200190929190505050610daa565b005b3480156103aa57600080fd5b506103c960048036038101908080359060200190929190505050611158565b604051808a73ffffffffffffffffffffffffffffffffffffffff1673ffffffffffffffffffffffffffffffffffffffff16815260200189815260200188815260200187815260200186815260200185600019166000191681526020018473ffffffffffffffffffffffffffffffffffffffff1673ffffffffffffffffffffffffffffffffffffffff168152602001838152602001828152602001995050505050505050505060405180910390f35b61047f6111e6565b005b34801561048d57600080fd5b50610496611632565b6040518082815260200191505060405180910390f35b3480156104b857600080fd5b506104c1611638565b6040518082815260200191505060405180910390f35b610538600480360381019080803590602001909291908035906020019082018035906020019080806020026020016040519081016040528093929190818152602001838360200280828437820191505050505050919291929050505061163e565b005b600061054582611c81565b9050919050565b600080600080732d68da5862cdd36f72647f8565477c190b0a62e573ffffffffffffffffffffffffffffffffffffffff1663e18d38ce336040518263ffffffff167c0100000000000000000000000000000000000000000000000000000000028152600401808273ffffffffffffffffffffffffffffffffffffffff1673ffffffffffffffffffffffffffffffffffffffff168152602001915050602060405180830381600087803b15801561060157600080fd5b505af1158015610615573d6000803e3d6000fd5b505050506040513d602081101561062b57600080fd5b810190808051906020019092919050505090507f30000000000000000000000000000000000000000000000000000000000000008160001916141515156106da576040517f08c379a00000000000000000000000000000000000000000000000000000000081526004018080602001828103825260138152602001807f7573657220646f6573206e6f742065786973740000000000000000000000000081525060200191505060405180910390fd5b8460005b81518110156107885761070782828151811015156106f857fe5b90602001906020020151611d0f565b151561077b576040517f08c379a00000000000000000000000000000000000000000000000000000000081526004018080602001828103825260168152602001807f6e756d626572206d75737420626520696e74656765720000000000000000000081525060200191505060405180910390fd5b80806001019150506106de565b61079e8751600454611d2d90919063ffffffff16565b803410151515610816576040517f08c379a000000000000000000000000000000000000000000000000000000000815260040180806020018281038252601d8152602001807f66656520646f6573206e6f74206d65657420726571756972656d656e7400000081525060200191505060405180910390fd5b600660008a815260200190815260200160002096503495506108388987611d6b565b600094505b87518510156108e75786600a016000898781518110151561085a57fe5b9060200190602002015181526020019081526020016000205487600b0160008a8881518110151561088757fe5b906020019060200201518152602001908152602001600020600101819055504287600b0160008a888151811015156108bb57fe5b90602001906020020151815260200190815260200160002060000181905550848060010195505061083d565b505050505050505050565b60005481565b600080600080600660008681526020019081526020016000209050806008015481600501548260070154935093509350509193909250565b60025481565b60008060066000858152602001908152602001600020600b0160008481526020019081526020016000206000015460066000868152602001908152602001600020600b01600085815260200190815260200160002060010154915091509250929050565b60055481565b60006109aa61229b565b6006600084815260200190815260200160002061014060405190810160405290816000820160009054906101000a900473ffffffffffffffffffffffffffffffffffffffff1673ffffffffffffffffffffffffffffffffffffffff1673ffffffffffffffffffffffffffffffffffffffff168152602001600182015481526020016002820154815260200160038201548152602001600482015481526020016005820154600019166000191681526020016006820160009054906101000a900473ffffffffffffffffffffffffffffffffffffffff1673ffffffffffffffffffffffffffffffffffffffff1673ffffffffffffffffffffffffffffffffffffffff168152602001600782015481526020016008820154815260200160098201805480602002602001604051908101604052809291908181526020018280548015610b1757602002820191906000526020600020905b81546000191681526020019060010190808311610aff575b5050505050815250509050610b3a600a8260200151611ec790919063ffffffff16565b915050919050565b6000806000806000732d68da5862cdd36f72647f8565477c190b0a62e573ffffffffffffffffffffffffffffffffffffffff1663e18d38ce336040518263ffffffff167c0100000000000000000000000000000000000000000000000000000000028152600401808273ffffffffffffffffffffffffffffffffffffffff1673ffffffffffffffffffffffffffffffffffffffff168152602001915050602060405180830381600087803b158015610bf957600080fd5b505af1158015610c0d573d6000803e3d6000fd5b505050506040513d6020811015610c2357600080fd5b810190808051906020019092919050505090507f3000000000000000000000000000000000000000000000000000000000000000816000191614151515610cd2576040517f08c379a00000000000000000000000000000000000000000000000000000000081526004018080602001828103825260138152602001807f7573657220646f6573206e6f742065786973740000000000000000000000000081525060200191505060405180910390fd5b600554803410151515610d4d576040517f08c379a000000000000000000000000000000000000000000000000000000000815260040180806020018281038252601d8152602001807f66656520646f6573206e6f74206d65657420726571756972656d656e7400000081525060200191505060405180910390fd5b600660008881526020019081526020016000209550349450610d6f8786611d6b565b610d7887611ef1565b935093508386600501816000191690555082866007018190555042866008018190555050505050505050565b60045481565b600080600080732d68da5862cdd36f72647f8565477c190b0a62e573ffffffffffffffffffffffffffffffffffffffff1663e18d38ce336040518263ffffffff167c0100000000000000000000000000000000000000000000000000000000028152600401808273ffffffffffffffffffffffffffffffffffffffff1673ffffffffffffffffffffffffffffffffffffffff168152602001915050602060405180830381600087803b158015610e5f57600080fd5b505af1158015610e73573d6000803e3d6000fd5b505050506040513d6020811015610e8957600080fd5b810190808051906020019092919050505090507f3000000000000000000000000000000000000000000000000000000000000000816000191614151515610f38576040517f08c379a00000000000000000000000000000000000000000000000000000000081526004018080602001828103825260138152602001807f7573657220646f6573206e6f742065786973740000000000000000000000000081525060200191505060405180910390fd5b60066000868152602001908152602001600020935042846004015411151515610fc9576040517f08c379a00000000000000000000000000000000000000000000000000000000081526004018080602001828103825260178152602001807f47616d652079657420746f2062652066696e697368656400000000000000000081525060200191505060405180910390fd5b8273ffffffffffffffffffffffffffffffffffffffff168460060160009054906101000a900473ffffffffffffffffffffffffffffffffffffffff1673ffffffffffffffffffffffffffffffffffffffff1614151515611091576040517f08c379a00000000000000000000000000000000000000000000000000000000081526004018080602001828103825260178152602001807f57696e6e657220686173206265656e20636c61696d656400000000000000000081525060200191505060405180910390fd5b61109a856109a0565b9150732d68da5862cdd36f72647f8565477c190b0a62e573ffffffffffffffffffffffffffffffffffffffff1663d0e30db0836040518263ffffffff167c01000000000000000000000000000000000000000000000000000000000281526004016020604051808303818588803b15801561111457600080fd5b505af1158015611128573d6000803e3d6000fd5b50505050506040513d602081101561113f57600080fd5b8101908080519060200190929190505050505050505050565b60066020528060005260406000206000915090508060000160009054906101000a900473ffffffffffffffffffffffffffffffffffffffff16908060010154908060020154908060030154908060040154908060050154908060060160009054906101000a900473ffffffffffffffffffffffffffffffffffffffff16908060070154908060080154905089565b6000806000732d68da5862cdd36f72647f8565477c190b0a62e573ffffffffffffffffffffffffffffffffffffffff1663e18d38ce336040518263ffffffff167c0100000000000000000000000000000000000000000000000000000000028152600401808273ffffffffffffffffffffffffffffffffffffffff1673ffffffffffffffffffffffffffffffffffffffff168152602001915050602060405180830381600087803b15801561129a57600080fd5b505af11580156112ae573d6000803e3d6000fd5b505050506040513d60208110156112c457600080fd5b810190808051906020019092919050505090507f3000000000000000000000000000000000000000000000000000000000000000816000191614151515611373576040517f08c379a00000000000000000000000000000000000000000000000000000000081526004018080602001828103825260138152602001807f7573657220646f6573206e6f742065786973740000000000000000000000000081525060200191505060405180910390fd5b6001548034101515156113ee576040517f08c379a000000000000000000000000000000000000000000000000000000000815260040180806020018281038252601d8152602001807f66656520646f6573206e6f74206d65657420726571756972656d656e7400000081525060200191505060405180910390fd5b3393503492506002600081548092919060010191905055508360066000600254815260200190815260200160002060000160006101000a81548173ffffffffffffffffffffffffffffffffffffffff021916908373ffffffffffffffffffffffffffffffffffffffff16021790555061146960025484611d6b565b61a8c060066000600254815260200190815260200160002060020181905550426006600060025481526020019081526020016000206003018190555061a8c0420160066000600254815260200190815260200160002060040181905550732d68da5862cdd36f72647f8565477c190b0a62e573ffffffffffffffffffffffffffffffffffffffff1663e18d38ce856040518263ffffffff167c0100000000000000000000000000000000000000000000000000000000028152600401808273ffffffffffffffffffffffffffffffffffffffff1673ffffffffffffffffffffffffffffffffffffffff168152602001915050602060405180830381600087803b15801561157557600080fd5b505af1158015611589573d6000803e3d6000fd5b505050506040513d602081101561159f57600080fd5b8101908080519060200190929190505050600019168473ffffffffffffffffffffffffffffffffffffffff167fd2e3b044802ec7ace4d431ada5a537bceb8099d0b5c3c6d579a92365b5bf5766426006600060025481526020019081526020016000206001015460025460405180848152602001838152602001828152602001935050505060405180910390a350505050565b60015481565b60035481565b600080600080600080600080732d68da5862cdd36f72647f8565477c190b0a62e573ffffffffffffffffffffffffffffffffffffffff1663e18d38ce336040518263ffffffff167c0100000000000000000000000000000000000000000000000000000000028152600401808273ffffffffffffffffffffffffffffffffffffffff1673ffffffffffffffffffffffffffffffffffffffff168152602001915050602060405180830381600087803b1580156116f957600080fd5b505af115801561170d573d6000803e3d6000fd5b505050506040513d602081101561172357600080fd5b810190808051906020019092919050505090507f30000000000000000000000000000000000000000000000000000000000000008160001916141515156117d2576040517f08c379a00000000000000000000000000000000000000000000000000000000081526004018080602001828103825260138152602001807f7573657220646f6573206e6f742065786973740000000000000000000000000081525060200191505060405180910390fd5b8860005b8151811015611880576117ff82828151811015156117f057fe5b90602001906020020151611d0f565b1515611873576040517f08c379a00000000000000000000000000000000000000000000000000000000081526004018080602001828103825260168152602001807f6e756d626572206d75737420626520696e74656765720000000000000000000081525060200191505060405180910390fd5b80806001019150506117d6565b6118968b51600054611d2d90919063ffffffff16565b80341015151561190e576040517f08c379a000000000000000000000000000000000000000000000000000000000815260040180806020018281038252601d8152602001807f66656520646f6573206e6f74206d65657420726571756972656d656e7400000081525060200191505060405180910390fd5b339a50600660008e81526020019081526020016000209950732d68da5862cdd36f72647f8565477c190b0a62e573ffffffffffffffffffffffffffffffffffffffff1663e18d38ce8c6040518263ffffffff167c0100000000000000000000000000000000000000000000000000000000028152600401808273ffffffffffffffffffffffffffffffffffffffff1673ffffffffffffffffffffffffffffffffffffffff168152602001915050602060405180830381600087803b1580156119d557600080fd5b505af11580156119e9573d6000803e3d6000fd5b505050506040513d60208110156119ff57600080fd5b81019080805190602001909291905050509850611a26600a34611ec790919063ffffffff16565b9750611a4f6008611a41600a34611ec790919063ffffffff16565b611d2d90919063ffffffff16565b9650611a65600a34611ec790919063ffffffff16565b9550732d68da5862cdd36f72647f8565477c190b0a62e573ffffffffffffffffffffffffffffffffffffffff1663d0e30db0876040518263ffffffff167c01000000000000000000000000000000000000000000000000000000000281526004016020604051808303818588803b158015611adf57600080fd5b505af1158015611af3573d6000803e3d6000fd5b50505050506040513d6020811015611b0a57600080fd5b810190808051906020019092919050505050611b31886003546120d390919063ffffffff16565b600381905550611b4e878b600101546120d390919063ffffffff16565b8a6001018190555060008a600c0160008b60001916600019168152602001908152602001600020805490501415611bb457896009018990806001815401808255809150509060018203906000526020600020016000909192909190915090600019169055505b600094505b8b51851015611c725789600c0160008a600019166000191681526020019081526020016000208c86815181101515611bed57fe5b90602001906020020151908060018154018082558091505090600182039060005260206000200160009091929091909150555089600a0160008d87815181101515611c3457fe5b90602001906020020151815260200190815260200160002060008154809291906001019190505550611c646120f4565b508480600101955050611bb9565b50505050505050505050505050565b60008060008084511415611c985760009250611d08565b836000815181101515611ca757fe5b9060200190602002015191505b8351811015611d0457818482815181101515611ccc57fe5b906020019060200201511015611cf7578381815181101515611cea57fe5b9060200190602002015191505b8080600101915050611cb4565b8192505b5050919050565b60008082141515611d235760019050611d28565b600090505b919050565b6000806000841415611d425760009150611d64565b8284029050828482811515611d5357fe5b04141515611d6057600080fd5b8091505b5092915050565b6000806000806000859450611d8a600a86611ec790919063ffffffff16565b9350839250839150611dc982611dbb85611dad888a6121d990919063ffffffff16565b6121d990919063ffffffff16565b6121d990919063ffffffff16565b90508060066000898152602001908152602001600020600101540160066000898152602001908152602001600020600101819055508160035401600381905550732d68da5862cdd36f72647f8565477c190b0a62e573ffffffffffffffffffffffffffffffffffffffff1663d0e30db0846040518263ffffffff167c01000000000000000000000000000000000000000000000000000000000281526004016020604051808303818588803b158015611e8157600080fd5b505af1158015611e95573d6000803e3d6000fd5b50505050506040513d6020811015611eac57600080fd5b81019080805190602001909291905050505050505050505050565b600080600083111515611ed957600080fd5b8284811515611ee457fe5b0490508091505092915050565b60008060008060006060600060606000806000600660008d8152602001908152602001600020965086600901805480602002602001604051908101604052809291908181526020018280548015611f6b57602002820191906000526020600020905b81546000191681526020019060010190808311611f53575b50505050509550600094505b85518510156120bf5786600c0160008787815181101515611f9457fe5b9060200190602002015160001916600019168152602001908152602001600020805480602002602001604051908101604052809291908181526020018280548015611ffe57602002820191906000526020600020905b815481526020019060010190808311611fea575b50505050509350600092505b83518310156120b257838381518110151561202157fe5b906020019060200201519150600187600a0160008481526020019081526020016000205414905060008814801561205c575060011515811515145b806120825750600088148015612076575060011515811515145b801561208157508782105b5b156120a557819750858581518110151561209857fe5b9060200190602002015198505b828060010193505061200a565b8480600101955050611f77565b88889a509a50505050505050505050915091565b60008082840190508381101515156120ea57600080fd5b8091505092915050565b600060326121006121fa565b60ff1611156121d157732d68da5862cdd36f72647f8565477c190b0a62e573ffffffffffffffffffffffffffffffffffffffff1663d0e30db06003546040518263ffffffff167c01000000000000000000000000000000000000000000000000000000000281526004016020604051808303818588803b15801561218357600080fd5b505af1158015612197573d6000803e3d6000fd5b50505050506040513d60208110156121ae57600080fd5b8101908080519060200190929190505050506000600381905550600190506121d6565b600090505b90565b6000808383111515156121eb57600080fd5b82840390508091505092915050565b60006064424460405160200180838152602001828152602001925050506040516020818303038152906040526040518082805190602001908083835b60208310151561225b5780518252602082019150602081019050602083039250612236565b6001836020036101000a03801982511681845116808217855250505050505090500191505060405180910390206001900481151561229557fe5b06905090565b61014060405190810160405280600073ffffffffffffffffffffffffffffffffffffffff1681526020016000815260200160008152602001600081526020016000815260200160008019168152602001600073ffffffffffffffffffffffffffffffffffffffff16815260200160008152602001600081526020016060815250905600a165627a7a723058208801bec409d2a2b26fc71339862cc5d65330da65ed1d6120853e7c2485594f610029",
  "source": "pragma solidity ^0.4.19;\n\nimport \"./NumberGame.sol\";\n\ncontract TestContract is NumberGame {\n\n    mapping(bytes32 => uint256[]) userKeys;\n\n    function testMin(uint256[] nums)\n      public\n      pure\n      returns (uint256)\n    {\n        return (min(nums));\n    }\n}\n",
  "sourcePath": "/Users/waynechiu/Desktop/dApp/contracts/TestContract.sol",
  "compiler": {
    "name": "solc",
    "version": "0.4.24+commit.e67f0147.Emscripten.clang"
  },
  "schemaVersion": "2.0.1",
  "updatedAt": "2018-10-30T01:32:42.269Z"
}