{
  "contractName": "TestContract",
  "abi": [
    {
      "constant": false,
      "inputs": [
        {
          "name": "_gameRound",
          "type": "uint256"
        },
        {
          "name": "_keys",
          "type": "uint256[]"
        }
      ],
      "name": "snapshotKeys",
      "outputs": [],
      "payable": true,
      "stateMutability": "payable",
      "type": "function"
    },
    {
      "constant": true,
      "inputs": [],
      "name": "keyPrice_",
      "outputs": [
        {
          "name": "",
          "type": "uint256"
        }
      ],
      "payable": false,
      "stateMutability": "view",
      "type": "function"
    },
    {
      "constant": true,
      "inputs": [],
      "name": "currentLotteryPot_",
      "outputs": [
        {
          "name": "",
          "type": "uint256"
        }
      ],
      "payable": false,
      "stateMutability": "view",
      "type": "function"
    },
    {
      "constant": true,
      "inputs": [
        {
          "name": "_gameRound",
          "type": "uint256"
        }
      ],
      "name": "getSnapshotWinner",
      "outputs": [
        {
          "name": "",
          "type": "uint256"
        },
        {
          "name": "",
          "type": "bytes32"
        },
        {
          "name": "",
          "type": "uint256"
        }
      ],
      "payable": false,
      "stateMutability": "view",
      "type": "function"
    },
    {
      "constant": true,
      "inputs": [],
      "name": "totalGameCount_",
      "outputs": [
        {
          "name": "",
          "type": "uint256"
        }
      ],
      "payable": false,
      "stateMutability": "view",
      "type": "function"
    },
    {
      "constant": true,
      "inputs": [
        {
          "name": "_gameRound",
          "type": "uint256"
        },
        {
          "name": "_key",
          "type": "uint256"
        }
      ],
      "name": "getKeysSnapshotCount",
      "outputs": [
        {
          "name": "",
          "type": "uint256"
        },
        {
          "name": "",
          "type": "uint256"
        }
      ],
      "payable": false,
      "stateMutability": "view",
      "type": "function"
    },
    {
      "constant": true,
      "inputs": [],
      "name": "snapshotWinnerFee_",
      "outputs": [
        {
          "name": "",
          "type": "uint256"
        }
      ],
      "payable": false,
      "stateMutability": "view",
      "type": "function"
    },
    {
      "constant": true,
      "inputs": [
        {
          "name": "_gameRound",
          "type": "uint256"
        }
      ],
      "name": "getCurrentFinishGameReward",
      "outputs": [
        {
          "name": "",
          "type": "uint256"
        }
      ],
      "payable": false,
      "stateMutability": "view",
      "type": "function"
    },
    {
      "constant": false,
      "inputs": [
        {
          "name": "_gameRound",
          "type": "uint256"
        }
      ],
      "name": "snapshotWinner",
      "outputs": [],
      "payable": true,
      "stateMutability": "payable",
      "type": "function"
    },
    {
      "constant": true,
      "inputs": [],
      "name": "keyRevealFee_",
      "outputs": [
        {
          "name": "",
          "type": "uint256"
        }
      ],
      "payable": false,
      "stateMutability": "view",
      "type": "function"
    },
    {
      "constant": false,
      "inputs": [
        {
          "name": "_gameRound",
          "type": "uint256"
        }
      ],
      "name": "finishGame",
      "outputs": [],
      "payable": true,
      "stateMutability": "payable",
      "type": "function"
    },
    {
      "constant": true,
      "inputs": [
        {
          "name": "",
          "type": "uint256"
        }
      ],
      "name": "games_",
      "outputs": [
        {
          "name": "bankerAddress",
          "type": "address"
        },
        {
          "name": "totalAmount",
          "type": "uint256"
        },
        {
          "name": "gameTotalTime",
          "type": "uint256"
        },
        {
          "name": "startTime",
          "type": "uint256"
        },
        {
          "name": "endTime",
          "type": "uint256"
        },
        {
          "name": "winnerName",
          "type": "bytes32"
        },
        {
          "name": "winnerAddress",
          "type": "address"
        },
        {
          "name": "winnerNumber",
          "type": "uint256"
        },
        {
          "name": "winnerTimestamp",
          "type": "uint256"
        }
      ],
      "payable": false,
      "stateMutability": "view",
      "type": "function"
    },
    {
      "constant": false,
      "inputs": [],
      "name": "startGame",
      "outputs": [],
      "payable": true,
      "stateMutability": "payable",
      "type": "function"
    },
    {
      "constant": true,
      "inputs": [],
      "name": "gameActivationFee_",
      "outputs": [
        {
          "name": "",
          "type": "uint256"
        }
      ],
      "payable": false,
      "stateMutability": "view",
      "type": "function"
    },
    {
      "constant": false,
      "inputs": [
        {
          "name": "_gameRound",
          "type": "uint256"
        },
        {
          "name": "_keys",
          "type": "uint256[]"
        }
      ],
      "name": "buyKeys",
      "outputs": [],
      "payable": true,
      "stateMutability": "payable",
      "type": "function"
    },
    {
      "anonymous": false,
      "inputs": [
        {
          "indexed": true,
          "name": "playerAddress",
          "type": "address"
        },
        {
          "indexed": true,
          "name": "playerName",
          "type": "bytes32"
        },
        {
          "indexed": false,
          "name": "timeStamp",
          "type": "uint256"
        },
        {
          "indexed": false,
          "name": "winningAmount",
          "type": "uint256"
        }
      ],
      "name": "onLotteryWin",
      "type": "event"
    },
    {
      "anonymous": false,
      "inputs": [
        {
          "indexed": true,
          "name": "bankerAddress",
          "type": "address"
        },
        {
          "indexed": true,
          "name": "bankerName",
          "type": "bytes32"
        },
        {
          "indexed": false,
          "name": "timeStamp",
          "type": "uint256"
        },
        {
          "indexed": false,
          "name": "initialAmount",
          "type": "uint256"
        },
        {
          "indexed": false,
          "name": "round",
          "type": "uint256"
        }
      ],
      "name": "onGameStart",
      "type": "event"
    },
    {
      "constant": true,
      "inputs": [
        {
          "name": "nums",
          "type": "uint256[]"
        }
      ],
      "name": "testMin",
      "outputs": [
        {
          "name": "",
          "type": "uint256"
        }
      ],
      "payable": false,
      "stateMutability": "pure",
      "type": "function"
    }
  ],
  "bytecode": "0x60806040526706f05b59d3b20000600055670de0b6b3a7640000600155600060025560006003556702c68af0bb140000600455674563918244f4000060055534801561004a57600080fd5b5061235b8061005a6000396000f3006080604052600436106100e6576000357c0100000000000000000000000000000000000000000000000000000000900463ffffffff1680631936fb20146100eb57806328078143146101655780633a610fec146101c8578063426c0822146101f3578063581cf0731461021e5780636b973f5514610275578063736aab16146102a057806391a7a527146102f2578063c2bdf8e11461031d578063c3b4657e1461035e578063c74004b01461037e578063cfe186b2146103a9578063d5241279146103c9578063d65ab5f2146104a2578063e8cd7bac146104ac578063ff3483e5146104d7575b600080fd5b3480156100f757600080fd5b5061014f6004803603810190808035906020019082018035906020019080806020026020016040519081016040528093929190818152602001838360200280828437820191505050505050919291929050505061053a565b6040518082815260200191505060405180910390f35b6101c6600480360381019080803590602001909291908035906020019082018035906020019080806020026020016040519081016040528093929190818152602001838360200280828437820191505050505050919291929050505061054c565b005b3480156101d457600080fd5b506101dd610917565b6040518082815260200191505060405180910390f35b3480156101ff57600080fd5b5061020861091d565b6040518082815260200191505060405180910390f35b34801561022a57600080fd5b5061024960048036038101908080359060200190929190505050610923565b604051808481526020018360001916600019168152602001828152602001935050505060405180910390f35b34801561028157600080fd5b5061028a61095b565b6040518082815260200191505060405180910390f35b3480156102ac57600080fd5b506102d56004803603810190808035906020019092919080359060200190929190505050610961565b604051808381526020018281526020019250505060405180910390f35b3480156102fe57600080fd5b506103076109c5565b6040518082815260200191505060405180910390f35b34801561032957600080fd5b50610348600480360381019080803590602001909291905050506109cb565b6040518082815260200191505060405180910390f35b61037c60048036038101908080359060200190929190505050610b6d565b005b34801561038a57600080fd5b50610393610df4565b6040518082815260200191505060405180910390f35b6103c760048036038101908080359060200190929190505050610dfa565b005b3480156103d557600080fd5b506103f460048036038101908080359060200190929190505050611203565b604051808a73ffffffffffffffffffffffffffffffffffffffff1673ffffffffffffffffffffffffffffffffffffffff16815260200189815260200188815260200187815260200186815260200185600019166000191681526020018473ffffffffffffffffffffffffffffffffffffffff1673ffffffffffffffffffffffffffffffffffffffff168152602001838152602001828152602001995050505050505050505060405180910390f35b6104aa611291565b005b3480156104b857600080fd5b506104c16116de565b6040518082815260200191505060405180910390f35b61053860048036038101908080359060200190929190803590602001908201803590602001908080602002602001604051908101604052809392919081815260200183836020028082843782019150505050505091929192905050506116e4565b005b600061054582611c10565b9050919050565b60008060008073f9729717dcfff49822b10da0139f98ce92dafad473ffffffffffffffffffffffffffffffffffffffff1663e18d38ce336040518263ffffffff167c0100000000000000000000000000000000000000000000000000000000028152600401808273ffffffffffffffffffffffffffffffffffffffff1673ffffffffffffffffffffffffffffffffffffffff168152602001915050602060405180830381600087803b15801561060157600080fd5b505af1158015610615573d6000803e3d6000fd5b505050506040513d602081101561062b57600080fd5b810190808051906020019092919050505090507f30000000000000000000000000000000000000000000000000000000000000008160001916141515156106da576040517f08c379a00000000000000000000000000000000000000000000000000000000081526004018080602001828103825260138152602001807f7573657220646f6573206e6f742065786973740000000000000000000000000081525060200191505060405180910390fd5b8460005b81518110156107885761070782828151811015156106f857fe5b90602001906020020151611c9e565b151561077b576040517f08c379a00000000000000000000000000000000000000000000000000000000081526004018080602001828103825260168152602001807f6e756d626572206d75737420626520696e74656765720000000000000000000081525060200191505060405180910390fd5b80806001019150506106de565b61079e8751600454611cbc90919063ffffffff16565b803410151515610816576040517f08c379a000000000000000000000000000000000000000000000000000000000815260040180806020018281038252601d8152602001807f66656520646f6573206e6f74206d65657420726571756972656d656e7400000081525060200191505060405180910390fd5b600660008a8152602001908152602001600020965034955061085d89878960000160009054906101000a900473ffffffffffffffffffffffffffffffffffffffff16611cfa565b600094505b875185101561090c5786600a016000898781518110151561087f57fe5b9060200190602002015181526020019081526020016000205487600b0160008a888151811015156108ac57fe5b906020019060200201518152602001908152602001600020600101819055504287600b0160008a888151811015156108e057fe5b906020019060200201518152602001908152602001600020600001819055508480600101955050610862565b505050505050505050565b60005481565b60035481565b600080600080600660008681526020019081526020016000209050806008015481600501548260070154935093509350509193909250565b60025481565b60008060066000858152602001908152602001600020600b0160008481526020019081526020016000206000015460066000868152602001908152602001600020600b01600085815260200190815260200160002060010154915091509250929050565b60055481565b60006109d56122ac565b6006600084815260200190815260200160002061014060405190810160405290816000820160009054906101000a900473ffffffffffffffffffffffffffffffffffffffff1673ffffffffffffffffffffffffffffffffffffffff1673ffffffffffffffffffffffffffffffffffffffff168152602001600182015481526020016002820154815260200160038201548152602001600482015481526020016005820154600019166000191681526020016006820160009054906101000a900473ffffffffffffffffffffffffffffffffffffffff1673ffffffffffffffffffffffffffffffffffffffff1673ffffffffffffffffffffffffffffffffffffffff168152602001600782015481526020016008820154815260200160098201805480602002602001604051908101604052809291908181526020018280548015610b4257602002820191906000526020600020905b81546000191681526020019060010190808311610b2a575b5050505050815250509050610b65600a8260200151611e9c90919063ffffffff16565b915050919050565b600080600080600073f9729717dcfff49822b10da0139f98ce92dafad473ffffffffffffffffffffffffffffffffffffffff1663e18d38ce336040518263ffffffff167c0100000000000000000000000000000000000000000000000000000000028152600401808273ffffffffffffffffffffffffffffffffffffffff1673ffffffffffffffffffffffffffffffffffffffff168152602001915050602060405180830381600087803b158015610c2457600080fd5b505af1158015610c38573d6000803e3d6000fd5b505050506040513d6020811015610c4e57600080fd5b810190808051906020019092919050505090507f3000000000000000000000000000000000000000000000000000000000000000816000191614151515610cfd576040517f08c379a00000000000000000000000000000000000000000000000000000000081526004018080602001828103825260138152602001807f7573657220646f6573206e6f742065786973740000000000000000000000000081525060200191505060405180910390fd5b600554803410151515610d78576040517f08c379a000000000000000000000000000000000000000000000000000000000815260040180806020018281038252601d8152602001807f66656520646f6573206e6f74206d65657420726571756972656d656e7400000081525060200191505060405180910390fd5b600660008881526020019081526020016000209550349450610dbf87868860000160009054906101000a900473ffffffffffffffffffffffffffffffffffffffff16611cfa565b610dc887611ec6565b935093508386600501816000191690555082866007018190555042866008018190555050505050505050565b60045481565b60008060008073f9729717dcfff49822b10da0139f98ce92dafad473ffffffffffffffffffffffffffffffffffffffff1663e18d38ce336040518263ffffffff167c0100000000000000000000000000000000000000000000000000000000028152600401808273ffffffffffffffffffffffffffffffffffffffff1673ffffffffffffffffffffffffffffffffffffffff168152602001915050602060405180830381600087803b158015610eaf57600080fd5b505af1158015610ec3573d6000803e3d6000fd5b505050506040513d6020811015610ed957600080fd5b810190808051906020019092919050505090507f3000000000000000000000000000000000000000000000000000000000000000816000191614151515610f88576040517f08c379a00000000000000000000000000000000000000000000000000000000081526004018080602001828103825260138152602001807f7573657220646f6573206e6f742065786973740000000000000000000000000081525060200191505060405180910390fd5b60066000868152602001908152602001600020935042846004015411151515611019576040517f08c379a00000000000000000000000000000000000000000000000000000000081526004018080602001828103825260178152602001807f47616d652079657420746f2062652066696e697368656400000000000000000081525060200191505060405180910390fd5b8273ffffffffffffffffffffffffffffffffffffffff168460060160009054906101000a900473ffffffffffffffffffffffffffffffffffffffff1673ffffffffffffffffffffffffffffffffffffffff16141515156110e1576040517f08c379a00000000000000000000000000000000000000000000000000000000081526004018080602001828103825260178152602001807f57696e6e657220686173206265656e20636c61696d656400000000000000000081525060200191505060405180910390fd5b6110ea856109cb565b915073f9729717dcfff49822b10da0139f98ce92dafad473ffffffffffffffffffffffffffffffffffffffff1663f340fa01838660060160009054906101000a900473ffffffffffffffffffffffffffffffffffffffff166040518363ffffffff167c0100000000000000000000000000000000000000000000000000000000028152600401808273ffffffffffffffffffffffffffffffffffffffff1673ffffffffffffffffffffffffffffffffffffffff1681526020019150506020604051808303818588803b1580156111bf57600080fd5b505af11580156111d3573d6000803e3d6000fd5b50505050506040513d60208110156111ea57600080fd5b8101908080519060200190929190505050505050505050565b60066020528060005260406000206000915090508060000160009054906101000a900473ffffffffffffffffffffffffffffffffffffffff16908060010154908060020154908060030154908060040154908060050154908060060160009054906101000a900473ffffffffffffffffffffffffffffffffffffffff16908060070154908060080154905089565b600080600073f9729717dcfff49822b10da0139f98ce92dafad473ffffffffffffffffffffffffffffffffffffffff1663e18d38ce336040518263ffffffff167c0100000000000000000000000000000000000000000000000000000000028152600401808273ffffffffffffffffffffffffffffffffffffffff1673ffffffffffffffffffffffffffffffffffffffff168152602001915050602060405180830381600087803b15801561134557600080fd5b505af1158015611359573d6000803e3d6000fd5b505050506040513d602081101561136f57600080fd5b810190808051906020019092919050505090507f300000000000000000000000000000000000000000000000000000000000000081600019161415151561141e576040517f08c379a00000000000000000000000000000000000000000000000000000000081526004018080602001828103825260138152602001807f7573657220646f6573206e6f742065786973740000000000000000000000000081525060200191505060405180910390fd5b600154803410151515611499576040517f08c379a000000000000000000000000000000000000000000000000000000000815260040180806020018281038252601d8152602001807f66656520646f6573206e6f74206d65657420726571756972656d656e7400000081525060200191505060405180910390fd5b3393503492506002600081548092919060010191905055508360066000600254815260200190815260200160002060000160006101000a81548173ffffffffffffffffffffffffffffffffffffffff021916908373ffffffffffffffffffffffffffffffffffffffff1602179055506115156002548486611cfa565b61a8c060066000600254815260200190815260200160002060020181905550426006600060025481526020019081526020016000206003018190555061a8c042016006600060025481526020019081526020016000206004018190555073f9729717dcfff49822b10da0139f98ce92dafad473ffffffffffffffffffffffffffffffffffffffff1663e18d38ce856040518263ffffffff167c0100000000000000000000000000000000000000000000000000000000028152600401808273ffffffffffffffffffffffffffffffffffffffff1673ffffffffffffffffffffffffffffffffffffffff168152602001915050602060405180830381600087803b15801561162157600080fd5b505af1158015611635573d6000803e3d6000fd5b505050506040513d602081101561164b57600080fd5b8101908080519060200190929190505050600019168473ffffffffffffffffffffffffffffffffffffffff167fd2e3b044802ec7ace4d431ada5a537bceb8099d0b5c3c6d579a92365b5bf5766426006600060025481526020019081526020016000206001015460025460405180848152602001838152602001828152602001935050505060405180910390a350505050565b60015481565b60008060008060008073f9729717dcfff49822b10da0139f98ce92dafad473ffffffffffffffffffffffffffffffffffffffff1663e18d38ce336040518263ffffffff167c0100000000000000000000000000000000000000000000000000000000028152600401808273ffffffffffffffffffffffffffffffffffffffff1673ffffffffffffffffffffffffffffffffffffffff168152602001915050602060405180830381600087803b15801561179c57600080fd5b505af11580156117b0573d6000803e3d6000fd5b505050506040513d60208110156117c657600080fd5b810190808051906020019092919050505090507f3000000000000000000000000000000000000000000000000000000000000000816000191614151515611875576040517f08c379a00000000000000000000000000000000000000000000000000000000081526004018080602001828103825260138152602001807f7573657220646f6573206e6f742065786973740000000000000000000000000081525060200191505060405180910390fd5b8660005b8151811015611923576118a2828281518110151561189357fe5b90602001906020020151611c9e565b1515611916576040517f08c379a00000000000000000000000000000000000000000000000000000000081526004018080602001828103825260168152602001807f6e756d626572206d75737420626520696e74656765720000000000000000000081525060200191505060405180910390fd5b8080600101915050611879565b6119398951600054611cbc90919063ffffffff16565b8034101515156119b1576040517f08c379a000000000000000000000000000000000000000000000000000000000815260040180806020018281038252601d8152602001807f66656520646f6573206e6f74206d65657420726571756972656d656e7400000081525060200191505060405180910390fd5b339850349750600660008c8152602001908152602001600020965073f9729717dcfff49822b10da0139f98ce92dafad473ffffffffffffffffffffffffffffffffffffffff1663e18d38ce8a6040518263ffffffff167c0100000000000000000000000000000000000000000000000000000000028152600401808273ffffffffffffffffffffffffffffffffffffffff1673ffffffffffffffffffffffffffffffffffffffff168152602001915050602060405180830381600087803b158015611a7b57600080fd5b505af1158015611a8f573d6000803e3d6000fd5b505050506040513d6020811015611aa557600080fd5b81019080805190602001909291905050509550611ae78b898960000160009054906101000a900473ffffffffffffffffffffffffffffffffffffffff16611cfa565b600087600c0160008860001916600019168152602001908152602001600020805490501415611b4557866009018690806001815401808255809150509060018203906000526020600020016000909192909190915090600019169055505b600094505b8951851015611c035786600c01600087600019166000191681526020019081526020016000208a86815181101515611b7e57fe5b90602001906020020151908060018154018082558091505090600182039060005260206000200160009091929091909150555086600a0160008b87815181101515611bc557fe5b90602001906020020151815260200190815260200160002060008154809291906001019190505550611bf56120a8565b508480600101955050611b4a565b5050505050505050505050565b60008060008084511415611c275760009250611c97565b836000815181101515611c3657fe5b9060200190602002015191505b8351811015611c9357818482815181101515611c5b57fe5b906020019060200201511015611c86578381815181101515611c7957fe5b9060200190602002015191505b8080600101915050611c43565b8192505b5050919050565b60008082141515611cb25760019050611cb7565b600090505b919050565b6000806000841415611cd15760009150611cf3565b8284029050828482811515611ce257fe5b04141515611cef57600080fd5b8091505b5092915050565b6000806000806000869450611d19600a86611e9c90919063ffffffff16565b9350839250839150611d4682611d3885886121c990919063ffffffff16565b6121c990919063ffffffff16565b9050611d7181600660008b8152602001908152602001600020600101546121ea90919063ffffffff16565b600660008a815260200190815260200160002060010181905550611da0826003546121ea90919063ffffffff16565b60038190555073f9729717dcfff49822b10da0139f98ce92dafad473ffffffffffffffffffffffffffffffffffffffff1663f340fa0184886040518363ffffffff167c0100000000000000000000000000000000000000000000000000000000028152600401808273ffffffffffffffffffffffffffffffffffffffff1673ffffffffffffffffffffffffffffffffffffffff1681526020019150506020604051808303818588803b158015611e5557600080fd5b505af1158015611e69573d6000803e3d6000fd5b50505050506040513d6020811015611e8057600080fd5b8101908080519060200190929190505050505050505050505050565b600080600083111515611eae57600080fd5b8284811515611eb957fe5b0490508091505092915050565b60008060008060006060600060606000806000600660008d8152602001908152602001600020965086600901805480602002602001604051908101604052809291908181526020018280548015611f4057602002820191906000526020600020905b81546000191681526020019060010190808311611f28575b50505050509550600094505b85518510156120945786600c0160008787815181101515611f6957fe5b9060200190602002015160001916600019168152602001908152602001600020805480602002602001604051908101604052809291908181526020018280548015611fd357602002820191906000526020600020905b815481526020019060010190808311611fbf575b50505050509350600092505b8351831015612087578383815181101515611ff657fe5b906020019060200201519150600187600a01600084815260200190815260200160002054149050600088148015612031575060011515811515145b80612057575060008814801561204b575060011515811515145b801561205657508782105b5b1561207a57819750858581518110151561206d57fe5b9060200190602002015198505b8280600101935050611fdf565b8480600101955050611f4c565b88889a509a50505050505050505050915091565b60008033905060326120b861220b565b60ff1611156121c05773f9729717dcfff49822b10da0139f98ce92dafad473ffffffffffffffffffffffffffffffffffffffff1663f340fa01600354836040518363ffffffff167c0100000000000000000000000000000000000000000000000000000000028152600401808273ffffffffffffffffffffffffffffffffffffffff1673ffffffffffffffffffffffffffffffffffffffff1681526020019150506020604051808303818588803b15801561217257600080fd5b505af1158015612186573d6000803e3d6000fd5b50505050506040513d602081101561219d57600080fd5b8101908080519060200190929190505050506000600381905550600191506121c5565b600091505b5090565b6000808383111515156121db57600080fd5b82840390508091505092915050565b600080828401905083811015151561220157600080fd5b8091505092915050565b60006064424460405160200180838152602001828152602001925050506040516020818303038152906040526040518082805190602001908083835b60208310151561226c5780518252602082019150602081019050602083039250612247565b6001836020036101000a0380198251168184511680821785525050505050509050019150506040518091039020600190048115156122a657fe5b06905090565b61014060405190810160405280600073ffffffffffffffffffffffffffffffffffffffff1681526020016000815260200160008152602001600081526020016000815260200160008019168152602001600073ffffffffffffffffffffffffffffffffffffffff16815260200160008152602001600081526020016060815250905600a165627a7a72305820601a51ab3e55047886b0c73c86b2c4b4e9f6d92b9d1b375817595e4994a9446e0029",
  "source": "pragma solidity ^0.4.19;\n\nimport \"./NumberGame.sol\";\n\ncontract TestContract is NumberGame {\n\n    mapping(bytes32 => uint256[]) userKeys;\n\n    function testMin(uint256[] nums)\n      public\n      pure\n      returns (uint256)\n    {\n        return (min(nums));\n    }\n}\n",
  "sourcePath": "/Users/waynechiu/Desktop/dApp/contracts/TestContract.sol",
  "compiler": {
    "name": "solc",
    "version": "0.4.24+commit.e67f0147.Emscripten.clang"
  },
  "schemaVersion": "2.0.1",
  "updatedAt": "2018-11-02T23:07:38.325Z"
}