{
  "contractName": "TestContract",
  "abi": [
    {
      "constant": false,
      "inputs": [
        {
          "name": "_gameRound",
          "type": "uint256"
        },
        {
          "name": "_keys",
          "type": "uint256[]"
        }
      ],
      "name": "snapshotKeys",
      "outputs": [],
      "payable": true,
      "stateMutability": "payable",
      "type": "function"
    },
    {
      "constant": true,
      "inputs": [],
      "name": "keyPrice_",
      "outputs": [
        {
          "name": "",
          "type": "uint256"
        }
      ],
      "payable": false,
      "stateMutability": "view",
      "type": "function"
    },
    {
      "constant": true,
      "inputs": [],
      "name": "currentLotteryPot_",
      "outputs": [
        {
          "name": "",
          "type": "uint256"
        }
      ],
      "payable": false,
      "stateMutability": "view",
      "type": "function"
    },
    {
      "constant": true,
      "inputs": [
        {
          "name": "_gameRound",
          "type": "uint256"
        }
      ],
      "name": "getSnapshotWinner",
      "outputs": [
        {
          "name": "",
          "type": "uint256"
        },
        {
          "name": "",
          "type": "bytes32"
        },
        {
          "name": "",
          "type": "uint256"
        },
        {
          "name": "",
          "type": "address"
        }
      ],
      "payable": false,
      "stateMutability": "view",
      "type": "function"
    },
    {
      "constant": true,
      "inputs": [],
      "name": "totalGameCount_",
      "outputs": [
        {
          "name": "",
          "type": "uint256"
        }
      ],
      "payable": false,
      "stateMutability": "view",
      "type": "function"
    },
    {
      "constant": true,
      "inputs": [
        {
          "name": "_gameRound",
          "type": "uint256"
        },
        {
          "name": "_key",
          "type": "uint256"
        }
      ],
      "name": "getKeysSnapshotCount",
      "outputs": [
        {
          "name": "",
          "type": "uint256"
        },
        {
          "name": "",
          "type": "uint256"
        }
      ],
      "payable": false,
      "stateMutability": "view",
      "type": "function"
    },
    {
      "constant": true,
      "inputs": [],
      "name": "snapshotWinnerFee_",
      "outputs": [
        {
          "name": "",
          "type": "uint256"
        }
      ],
      "payable": false,
      "stateMutability": "view",
      "type": "function"
    },
    {
      "constant": true,
      "inputs": [
        {
          "name": "_gameRound",
          "type": "uint256"
        }
      ],
      "name": "getCurrentFinishGameReward",
      "outputs": [
        {
          "name": "",
          "type": "uint256"
        }
      ],
      "payable": false,
      "stateMutability": "view",
      "type": "function"
    },
    {
      "constant": false,
      "inputs": [
        {
          "name": "_gameRound",
          "type": "uint256"
        }
      ],
      "name": "snapshotWinner",
      "outputs": [],
      "payable": true,
      "stateMutability": "payable",
      "type": "function"
    },
    {
      "constant": true,
      "inputs": [],
      "name": "keyRevealFee_",
      "outputs": [
        {
          "name": "",
          "type": "uint256"
        }
      ],
      "payable": false,
      "stateMutability": "view",
      "type": "function"
    },
    {
      "constant": false,
      "inputs": [
        {
          "name": "_gameRound",
          "type": "uint256"
        }
      ],
      "name": "finishGame",
      "outputs": [],
      "payable": true,
      "stateMutability": "payable",
      "type": "function"
    },
    {
      "constant": true,
      "inputs": [
        {
          "name": "",
          "type": "uint256"
        }
      ],
      "name": "games_",
      "outputs": [
        {
          "name": "bankerAddress",
          "type": "address"
        },
        {
          "name": "totalAmount",
          "type": "uint256"
        },
        {
          "name": "gameTotalTime",
          "type": "uint256"
        },
        {
          "name": "startTime",
          "type": "uint256"
        },
        {
          "name": "endTime",
          "type": "uint256"
        },
        {
          "name": "winnerName",
          "type": "bytes32"
        },
        {
          "name": "winnerAddress",
          "type": "address"
        },
        {
          "name": "winnerNumber",
          "type": "uint256"
        },
        {
          "name": "winnerTimestamp",
          "type": "uint256"
        }
      ],
      "payable": false,
      "stateMutability": "view",
      "type": "function"
    },
    {
      "constant": false,
      "inputs": [],
      "name": "startGame",
      "outputs": [],
      "payable": true,
      "stateMutability": "payable",
      "type": "function"
    },
    {
      "constant": true,
      "inputs": [],
      "name": "gameActivationFee_",
      "outputs": [
        {
          "name": "",
          "type": "uint256"
        }
      ],
      "payable": false,
      "stateMutability": "view",
      "type": "function"
    },
    {
      "constant": false,
      "inputs": [
        {
          "name": "_gameRound",
          "type": "uint256"
        },
        {
          "name": "_keys",
          "type": "uint256[]"
        }
      ],
      "name": "buyKeys",
      "outputs": [],
      "payable": true,
      "stateMutability": "payable",
      "type": "function"
    },
    {
      "anonymous": false,
      "inputs": [
        {
          "indexed": true,
          "name": "playerAddress",
          "type": "address"
        },
        {
          "indexed": true,
          "name": "playerName",
          "type": "bytes32"
        },
        {
          "indexed": false,
          "name": "timeStamp",
          "type": "uint256"
        },
        {
          "indexed": false,
          "name": "winningAmount",
          "type": "uint256"
        }
      ],
      "name": "onLotteryWin",
      "type": "event"
    },
    {
      "anonymous": false,
      "inputs": [
        {
          "indexed": true,
          "name": "bankerAddress",
          "type": "address"
        },
        {
          "indexed": true,
          "name": "bankerName",
          "type": "bytes32"
        },
        {
          "indexed": false,
          "name": "timeStamp",
          "type": "uint256"
        },
        {
          "indexed": false,
          "name": "initialAmount",
          "type": "uint256"
        },
        {
          "indexed": false,
          "name": "round",
          "type": "uint256"
        }
      ],
      "name": "onGameStart",
      "type": "event"
    },
    {
      "constant": true,
      "inputs": [
        {
          "name": "nums",
          "type": "uint256[]"
        }
      ],
      "name": "testMin",
      "outputs": [
        {
          "name": "",
          "type": "uint256"
        }
      ],
      "payable": false,
      "stateMutability": "pure",
      "type": "function"
    }
  ],
  "bytecode": "0x60806040526706f05b59d3b20000600055670de0b6b3a7640000600155600060025560006003556702c68af0bb140000600455674563918244f4000060055534801561004a57600080fd5b506125428061005a6000396000f3006080604052600436106100e6576000357c0100000000000000000000000000000000000000000000000000000000900463ffffffff1680631936fb20146100eb57806328078143146101655780633a610fec146101c8578063426c0822146101f3578063581cf0731461021e5780636b973f55146102a8578063736aab16146102d357806391a7a52714610325578063c2bdf8e114610350578063c3b4657e14610391578063c74004b0146103b1578063cfe186b2146103dc578063d5241279146103fc578063d65ab5f2146104d5578063e8cd7bac146104df578063ff3483e51461050a575b600080fd5b3480156100f757600080fd5b5061014f6004803603810190808035906020019082018035906020019080806020026020016040519081016040528093929190818152602001838360200280828437820191505050505050919291929050505061056d565b6040518082815260200191505060405180910390f35b6101c6600480360381019080803590602001909291908035906020019082018035906020019080806020026020016040519081016040528093929190818152602001838360200280828437820191505050505050919291929050505061057f565b005b3480156101d457600080fd5b506101dd61094a565b6040518082815260200191505060405180910390f35b3480156101ff57600080fd5b50610208610950565b6040518082815260200191505060405180910390f35b34801561022a57600080fd5b5061024960048036038101908080359060200190929190505050610956565b6040518085815260200184600019166000191681526020018381526020018273ffffffffffffffffffffffffffffffffffffffff1673ffffffffffffffffffffffffffffffffffffffff16815260200194505050505060405180910390f35b3480156102b457600080fd5b506102bd6109b7565b6040518082815260200191505060405180910390f35b3480156102df57600080fd5b5061030860048036038101908080359060200190929190803590602001909291905050506109bd565b604051808381526020018281526020019250505060405180910390f35b34801561033157600080fd5b5061033a610a21565b6040518082815260200191505060405180910390f35b34801561035c57600080fd5b5061037b60048036038101908080359060200190929190505050610a27565b6040518082815260200191505060405180910390f35b6103af60048036038101908080359060200190929190505050610c57565b005b3480156103bd57600080fd5b506103c6610f25565b6040518082815260200191505060405180910390f35b6103fa60048036038101908080359060200190929190505050610f2b565b005b34801561040857600080fd5b5061042760048036038101908080359060200190929190505050611334565b604051808a73ffffffffffffffffffffffffffffffffffffffff1673ffffffffffffffffffffffffffffffffffffffff16815260200189815260200188815260200187815260200186815260200185600019166000191681526020018473ffffffffffffffffffffffffffffffffffffffff1673ffffffffffffffffffffffffffffffffffffffff168152602001838152602001828152602001995050505050505050505060405180910390f35b6104dd6113c2565b005b3480156104eb57600080fd5b506104f461180f565b6040518082815260200191505060405180910390f35b61056b6004803603810190808035906020019092919080359060200190820180359060200190808060200260200160405190810160405280939291908181526020018383602002808284378201915050505050509192919290505050611815565b005b600061057882611da9565b9050919050565b6000806000807328299963d19286c00f5366bef900d27f8eb02cb873ffffffffffffffffffffffffffffffffffffffff1663e18d38ce336040518263ffffffff167c0100000000000000000000000000000000000000000000000000000000028152600401808273ffffffffffffffffffffffffffffffffffffffff1673ffffffffffffffffffffffffffffffffffffffff168152602001915050602060405180830381600087803b15801561063457600080fd5b505af1158015610648573d6000803e3d6000fd5b505050506040513d602081101561065e57600080fd5b810190808051906020019092919050505090507f300000000000000000000000000000000000000000000000000000000000000081600019161415151561070d576040517f08c379a00000000000000000000000000000000000000000000000000000000081526004018080602001828103825260138152602001807f7573657220646f6573206e6f742065786973740000000000000000000000000081525060200191505060405180910390fd5b8460005b81518110156107bb5761073a828281518110151561072b57fe5b90602001906020020151611e37565b15156107ae576040517f08c379a00000000000000000000000000000000000000000000000000000000081526004018080602001828103825260168152602001807f6e756d626572206d75737420626520696e74656765720000000000000000000081525060200191505060405180910390fd5b8080600101915050610711565b6107d18751600454611e5590919063ffffffff16565b803410151515610849576040517f08c379a000000000000000000000000000000000000000000000000000000000815260040180806020018281038252601d8152602001807f66656520646f6573206e6f74206d65657420726571756972656d656e7400000081525060200191505060405180910390fd5b600660008a8152602001908152602001600020965034955061089089878960000160009054906101000a900473ffffffffffffffffffffffffffffffffffffffff16611e93565b600094505b875185101561093f5786600b01600089878151811015156108b257fe5b9060200190602002015181526020019081526020016000205487600c0160008a888151811015156108df57fe5b906020019060200201518152602001908152602001600020600101819055504287600c0160008a8881518110151561091357fe5b906020019060200201518152602001908152602001600020600001819055508480600101955050610895565b505050505050505050565b60005481565b60035481565b60008060008060006006600087815260200190815260200160002090508060080154816005015482600701548360060160009054906101000a900473ffffffffffffffffffffffffffffffffffffffff169450945094509450509193509193565b60025481565b60008060066000858152602001908152602001600020600c0160008481526020019081526020016000206000015460066000868152602001908152602001600020600c01600085815260200190815260200160002060010154915091509250929050565b60055481565b6000610a3161248c565b6006600084815260200190815260200160002061016060405190810160405290816000820160009054906101000a900473ffffffffffffffffffffffffffffffffffffffff1673ffffffffffffffffffffffffffffffffffffffff1673ffffffffffffffffffffffffffffffffffffffff168152602001600182015481526020016002820154815260200160038201548152602001600482015481526020016005820154600019166000191681526020016006820160009054906101000a900473ffffffffffffffffffffffffffffffffffffffff1673ffffffffffffffffffffffffffffffffffffffff1673ffffffffffffffffffffffffffffffffffffffff168152602001600782015481526020016008820154815260200160098201805480602002602001604051908101604052809291908181526020018280548015610b9e57602002820191906000526020600020905b81546000191681526020019060010190808311610b86575b50505050508152602001600a8201805480602002602001604051908101604052809291908181526020018280548015610c2c57602002820191906000526020600020905b8160009054906101000a900473ffffffffffffffffffffffffffffffffffffffff1673ffffffffffffffffffffffffffffffffffffffff1681526020019060010190808311610be2575b5050505050815250509050610c4f600a826020015161203590919063ffffffff16565b915050919050565b6000806000806000807328299963d19286c00f5366bef900d27f8eb02cb873ffffffffffffffffffffffffffffffffffffffff1663e18d38ce336040518263ffffffff167c0100000000000000000000000000000000000000000000000000000000028152600401808273ffffffffffffffffffffffffffffffffffffffff1673ffffffffffffffffffffffffffffffffffffffff168152602001915050602060405180830381600087803b158015610d0f57600080fd5b505af1158015610d23573d6000803e3d6000fd5b505050506040513d6020811015610d3957600080fd5b810190808051906020019092919050505090507f3000000000000000000000000000000000000000000000000000000000000000816000191614151515610de8576040517f08c379a00000000000000000000000000000000000000000000000000000000081526004018080602001828103825260138152602001807f7573657220646f6573206e6f742065786973740000000000000000000000000081525060200191505060405180910390fd5b600554803410151515610e63576040517f08c379a000000000000000000000000000000000000000000000000000000000815260040180806020018281038252601d8152602001807f66656520646f6573206e6f74206d65657420726571756972656d656e7400000081525060200191505060405180910390fd5b600660008981526020019081526020016000209650349550610eaa88878960000160009054906101000a900473ffffffffffffffffffffffffffffffffffffffff16611e93565b610eb38861205f565b94509450945084876005018160001916905550828760060160006101000a81548173ffffffffffffffffffffffffffffffffffffffff021916908373ffffffffffffffffffffffffffffffffffffffff1602179055508387600701819055504287600801819055505050505050505050565b60045481565b6000806000807328299963d19286c00f5366bef900d27f8eb02cb873ffffffffffffffffffffffffffffffffffffffff1663e18d38ce336040518263ffffffff167c0100000000000000000000000000000000000000000000000000000000028152600401808273ffffffffffffffffffffffffffffffffffffffff1673ffffffffffffffffffffffffffffffffffffffff168152602001915050602060405180830381600087803b158015610fe057600080fd5b505af1158015610ff4573d6000803e3d6000fd5b505050506040513d602081101561100a57600080fd5b810190808051906020019092919050505090507f30000000000000000000000000000000000000000000000000000000000000008160001916141515156110b9576040517f08c379a00000000000000000000000000000000000000000000000000000000081526004018080602001828103825260138152602001807f7573657220646f6573206e6f742065786973740000000000000000000000000081525060200191505060405180910390fd5b6006600086815260200190815260200160002093504284600401541115151561114a576040517f08c379a00000000000000000000000000000000000000000000000000000000081526004018080602001828103825260178152602001807f47616d652079657420746f2062652066696e697368656400000000000000000081525060200191505060405180910390fd5b8273ffffffffffffffffffffffffffffffffffffffff168460060160009054906101000a900473ffffffffffffffffffffffffffffffffffffffff1673ffffffffffffffffffffffffffffffffffffffff1614151515611212576040517f08c379a00000000000000000000000000000000000000000000000000000000081526004018080602001828103825260178152602001807f57696e6e657220686173206265656e20636c61696d656400000000000000000081525060200191505060405180910390fd5b61121b85610a27565b91507328299963d19286c00f5366bef900d27f8eb02cb873ffffffffffffffffffffffffffffffffffffffff1663f340fa01838660060160009054906101000a900473ffffffffffffffffffffffffffffffffffffffff166040518363ffffffff167c0100000000000000000000000000000000000000000000000000000000028152600401808273ffffffffffffffffffffffffffffffffffffffff1673ffffffffffffffffffffffffffffffffffffffff1681526020019150506020604051808303818588803b1580156112f057600080fd5b505af1158015611304573d6000803e3d6000fd5b50505050506040513d602081101561131b57600080fd5b8101908080519060200190929190505050505050505050565b60066020528060005260406000206000915090508060000160009054906101000a900473ffffffffffffffffffffffffffffffffffffffff16908060010154908060020154908060030154908060040154908060050154908060060160009054906101000a900473ffffffffffffffffffffffffffffffffffffffff16908060070154908060080154905089565b60008060007328299963d19286c00f5366bef900d27f8eb02cb873ffffffffffffffffffffffffffffffffffffffff1663e18d38ce336040518263ffffffff167c0100000000000000000000000000000000000000000000000000000000028152600401808273ffffffffffffffffffffffffffffffffffffffff1673ffffffffffffffffffffffffffffffffffffffff168152602001915050602060405180830381600087803b15801561147657600080fd5b505af115801561148a573d6000803e3d6000fd5b505050506040513d60208110156114a057600080fd5b810190808051906020019092919050505090507f300000000000000000000000000000000000000000000000000000000000000081600019161415151561154f576040517f08c379a00000000000000000000000000000000000000000000000000000000081526004018080602001828103825260138152602001807f7573657220646f6573206e6f742065786973740000000000000000000000000081525060200191505060405180910390fd5b6001548034101515156115ca576040517f08c379a000000000000000000000000000000000000000000000000000000000815260040180806020018281038252601d8152602001807f66656520646f6573206e6f74206d65657420726571756972656d656e7400000081525060200191505060405180910390fd5b3393503492506002600081548092919060010191905055508360066000600254815260200190815260200160002060000160006101000a81548173ffffffffffffffffffffffffffffffffffffffff021916908373ffffffffffffffffffffffffffffffffffffffff1602179055506116466002548486611e93565b61a8c060066000600254815260200190815260200160002060020181905550426006600060025481526020019081526020016000206003018190555061a8c04201600660006002548152602001908152602001600020600401819055507328299963d19286c00f5366bef900d27f8eb02cb873ffffffffffffffffffffffffffffffffffffffff1663e18d38ce856040518263ffffffff167c0100000000000000000000000000000000000000000000000000000000028152600401808273ffffffffffffffffffffffffffffffffffffffff1673ffffffffffffffffffffffffffffffffffffffff168152602001915050602060405180830381600087803b15801561175257600080fd5b505af1158015611766573d6000803e3d6000fd5b505050506040513d602081101561177c57600080fd5b8101908080519060200190929190505050600019168473ffffffffffffffffffffffffffffffffffffffff167fd2e3b044802ec7ace4d431ada5a537bceb8099d0b5c3c6d579a92365b5bf5766426006600060025481526020019081526020016000206001015460025460405180848152602001838152602001828152602001935050505060405180910390a350505050565b60015481565b6000806000806000807328299963d19286c00f5366bef900d27f8eb02cb873ffffffffffffffffffffffffffffffffffffffff1663e18d38ce336040518263ffffffff167c0100000000000000000000000000000000000000000000000000000000028152600401808273ffffffffffffffffffffffffffffffffffffffff1673ffffffffffffffffffffffffffffffffffffffff168152602001915050602060405180830381600087803b1580156118cd57600080fd5b505af11580156118e1573d6000803e3d6000fd5b505050506040513d60208110156118f757600080fd5b810190808051906020019092919050505090507f30000000000000000000000000000000000000000000000000000000000000008160001916141515156119a6576040517f08c379a00000000000000000000000000000000000000000000000000000000081526004018080602001828103825260138152602001807f7573657220646f6573206e6f742065786973740000000000000000000000000081525060200191505060405180910390fd5b8660005b8151811015611a54576119d382828151811015156119c457fe5b90602001906020020151611e37565b1515611a47576040517f08c379a00000000000000000000000000000000000000000000000000000000081526004018080602001828103825260168152602001807f6e756d626572206d75737420626520696e74656765720000000000000000000081525060200191505060405180910390fd5b80806001019150506119aa565b611a6a8951600054611e5590919063ffffffff16565b803410151515611ae2576040517f08c379a000000000000000000000000000000000000000000000000000000000815260040180806020018281038252601d8152602001807f66656520646f6573206e6f74206d65657420726571756972656d656e7400000081525060200191505060405180910390fd5b339850349750600660008c815260200190815260200160002096507328299963d19286c00f5366bef900d27f8eb02cb873ffffffffffffffffffffffffffffffffffffffff1663e18d38ce8a6040518263ffffffff167c0100000000000000000000000000000000000000000000000000000000028152600401808273ffffffffffffffffffffffffffffffffffffffff1673ffffffffffffffffffffffffffffffffffffffff168152602001915050602060405180830381600087803b158015611bac57600080fd5b505af1158015611bc0573d6000803e3d6000fd5b505050506040513d6020811015611bd657600080fd5b81019080805190602001909291905050509550611c188b898960000160009054906101000a900473ffffffffffffffffffffffffffffffffffffffff16611e93565b600087600d0160008860001916600019168152602001908152602001600020805490501415611cde578660090186908060018154018082558091505090600182039060005260206000200160009091929091909150906000191690555086600a018990806001815401808255809150509060018203906000526020600020016000909192909190916101000a81548173ffffffffffffffffffffffffffffffffffffffff021916908373ffffffffffffffffffffffffffffffffffffffff160217905550505b600094505b8951851015611d9c5786600d01600087600019166000191681526020019081526020016000208a86815181101515611d1757fe5b90602001906020020151908060018154018082558091505090600182039060005260206000200160009091929091909150555086600b0160008b87815181101515611d5e57fe5b90602001906020020151815260200190815260200160002060008154809291906001019190505550611d8e612288565b508480600101955050611ce3565b5050505050505050505050565b60008060008084511415611dc05760009250611e30565b836000815181101515611dcf57fe5b9060200190602002015191505b8351811015611e2c57818482815181101515611df457fe5b906020019060200201511015611e1f578381815181101515611e1257fe5b9060200190602002015191505b8080600101915050611ddc565b8192505b5050919050565b60008082141515611e4b5760019050611e50565b600090505b919050565b6000806000841415611e6a5760009150611e8c565b8284029050828482811515611e7b57fe5b04141515611e8857600080fd5b8091505b5092915050565b6000806000806000869450611eb2600a8661203590919063ffffffff16565b9350839250839150611edf82611ed185886123a990919063ffffffff16565b6123a990919063ffffffff16565b9050611f0a81600660008b8152602001908152602001600020600101546123ca90919063ffffffff16565b600660008a815260200190815260200160002060010181905550611f39826003546123ca90919063ffffffff16565b6003819055507328299963d19286c00f5366bef900d27f8eb02cb873ffffffffffffffffffffffffffffffffffffffff1663f340fa0184886040518363ffffffff167c0100000000000000000000000000000000000000000000000000000000028152600401808273ffffffffffffffffffffffffffffffffffffffff1673ffffffffffffffffffffffffffffffffffffffff1681526020019150506020604051808303818588803b158015611fee57600080fd5b505af1158015612002573d6000803e3d6000fd5b50505050506040513d602081101561201957600080fd5b8101908080519060200190929190505050505050505050505050565b60008060008311151561204757600080fd5b828481151561205257fe5b0490508091505092915050565b60008060008060008060006060600060606000806000600660008f81526020019081526020016000209650866009018054806020026020016040519081016040528092919081815260200182805480156120dc57602002820191906000526020600020905b815460001916815260200190600101908083116120c4575b50505050509550600094505b855185101561226e5786600d016000878781518110151561210557fe5b906020019060200201516000191660001916815260200190815260200160002080548060200260200160405190810160405280929190818152602001828054801561216f57602002820191906000526020600020905b81548152602001906001019080831161215b575b50505050509350600092505b835183101561226157838381518110151561219257fe5b906020019060200201519150600187600b016000848152602001908152602001600020541490506000891480156121cd575060011515811515145b806121f357506000891480156121e7575060011515811515145b80156121f257508882105b5b1561225457819850858581518110151561220957fe5b90602001906020020151995086600a018581548110151561222657fe5b9060005260206000200160009054906101000a900473ffffffffffffffffffffffffffffffffffffffff1697505b828060010193505061217b565b84806001019550506120e8565b8989899c509c509c50505050505050505050509193909250565b60008033905060326122986123eb565b60ff1611156123a0577328299963d19286c00f5366bef900d27f8eb02cb873ffffffffffffffffffffffffffffffffffffffff1663f340fa01600354836040518363ffffffff167c0100000000000000000000000000000000000000000000000000000000028152600401808273ffffffffffffffffffffffffffffffffffffffff1673ffffffffffffffffffffffffffffffffffffffff1681526020019150506020604051808303818588803b15801561235257600080fd5b505af1158015612366573d6000803e3d6000fd5b50505050506040513d602081101561237d57600080fd5b8101908080519060200190929190505050506000600381905550600191506123a5565b600091505b5090565b6000808383111515156123bb57600080fd5b82840390508091505092915050565b60008082840190508381101515156123e157600080fd5b8091505092915050565b60006064424460405160200180838152602001828152602001925050506040516020818303038152906040526040518082805190602001908083835b60208310151561244c5780518252602082019150602081019050602083039250612427565b6001836020036101000a03801982511681845116808217855250505050505090500191505060405180910390206001900481151561248657fe5b06905090565b61016060405190810160405280600073ffffffffffffffffffffffffffffffffffffffff1681526020016000815260200160008152602001600081526020016000815260200160008019168152602001600073ffffffffffffffffffffffffffffffffffffffff1681526020016000815260200160008152602001606081526020016060815250905600a165627a7a72305820d277eb14f48dbd36078adcc07bdeedef826677d78f2b68324adafe92bd6727550029",
  "source": "pragma solidity ^0.4.19;\n\nimport \"./NumberGame.sol\";\n\ncontract TestContract is NumberGame {\n\n    mapping(bytes32 => uint256[]) userKeys;\n\n    function testMin(uint256[] nums)\n      public\n      pure\n      returns (uint256)\n    {\n        return (min(nums));\n    }\n}\n",
  "sourcePath": "/Users/waynechiu/Desktop/dApp/contracts/TestContract.sol",
  "compiler": {
    "name": "solc",
    "version": "0.4.24+commit.e67f0147.Emscripten.clang"
  },
  "schemaVersion": "2.0.1",
  "updatedAt": "2018-11-04T01:23:32.237Z"
}